{
  "_format": "hh-sol-artifact-1",
  "contractName": "ProjectsRegistry",
  "sourceName": "src/web3/contracts/ProjectsRegistry.sol",
  "abi": [
    {
      "inputs": [
        {
          "internalType": "address",
          "name": "_nftAddress",
          "type": "address"
        }
      ],
      "stateMutability": "nonpayable",
      "type": "constructor"
    },
    {
      "inputs": [],
      "name": "ECDSAInvalidSignature",
      "type": "error"
    },
    {
      "inputs": [
        {
          "internalType": "uint256",
          "name": "length",
          "type": "uint256"
        }
      ],
      "name": "ECDSAInvalidSignatureLength",
      "type": "error"
    },
    {
      "inputs": [
        {
          "internalType": "bytes32",
          "name": "s",
          "type": "bytes32"
        }
      ],
      "name": "ECDSAInvalidSignatureS",
      "type": "error"
    },
    {
      "inputs": [
        {
          "internalType": "address",
          "name": "owner",
          "type": "address"
        }
      ],
      "name": "OwnableInvalidOwner",
      "type": "error"
    },
    {
      "inputs": [
        {
          "internalType": "address",
          "name": "account",
          "type": "address"
        }
      ],
      "name": "OwnableUnauthorizedAccount",
      "type": "error"
    },
    {
      "anonymous": false,
      "inputs": [
        {
          "indexed": false,
          "internalType": "address",
          "name": "nftAddress",
          "type": "address"
        }
      ],
      "name": "NFTContractAddressSet",
      "type": "event"
    },
    {
      "anonymous": false,
      "inputs": [
        {
          "indexed": false,
          "internalType": "string",
          "name": "projectId",
          "type": "string"
        },
        {
          "indexed": false,
          "internalType": "string",
          "name": "participantId",
          "type": "string"
        },
        {
          "indexed": false,
          "internalType": "address",
          "name": "participant",
          "type": "address"
        },
        {
          "indexed": false,
          "internalType": "uint256",
          "name": "tokenId",
          "type": "uint256"
        }
      ],
      "name": "NFTMintedForParticipant",
      "type": "event"
    },
    {
      "anonymous": false,
      "inputs": [
        {
          "indexed": true,
          "internalType": "address",
          "name": "previousOwner",
          "type": "address"
        },
        {
          "indexed": true,
          "internalType": "address",
          "name": "newOwner",
          "type": "address"
        }
      ],
      "name": "OwnershipTransferred",
      "type": "event"
    },
    {
      "anonymous": false,
      "inputs": [
        {
          "indexed": false,
          "internalType": "string",
          "name": "projectId",
          "type": "string"
        },
        {
          "indexed": false,
          "internalType": "address",
          "name": "participant",
          "type": "address"
        },
        {
          "indexed": false,
          "internalType": "string",
          "name": "participantId",
          "type": "string"
        }
      ],
      "name": "ParticipantAdded",
      "type": "event"
    },
    {
      "anonymous": false,
      "inputs": [
        {
          "indexed": false,
          "internalType": "string",
          "name": "projectId",
          "type": "string"
        },
        {
          "indexed": false,
          "internalType": "string",
          "name": "title",
          "type": "string"
        }
      ],
      "name": "ProjectRegistered",
      "type": "event"
    },
    {
      "anonymous": false,
      "inputs": [
        {
          "indexed": false,
          "internalType": "bool",
          "name": "enabled",
          "type": "bool"
        }
      ],
      "name": "WhitelistStatusChanged",
      "type": "event"
    },
    {
      "anonymous": false,
      "inputs": [
        {
          "indexed": true,
          "internalType": "address",
          "name": "account",
          "type": "address"
        },
        {
          "indexed": false,
          "internalType": "bool",
          "name": "isWhitelisted",
          "type": "bool"
        }
      ],
      "name": "WhitelistUpdated",
      "type": "event"
    },
    {
      "inputs": [
        {
          "internalType": "address",
          "name": "_addr",
          "type": "address"
        }
      ],
      "name": "addToWhitelist",
      "outputs": [],
      "stateMutability": "nonpayable",
      "type": "function"
    },
    {
      "inputs": [],
      "name": "getAllProjects",
      "outputs": [
        {
          "internalType": "string[]",
          "name": "ids",
          "type": "string[]"
        },
        {
          "internalType": "string[]",
          "name": "chains",
          "type": "string[]"
        },
        {
          "internalType": "string[]",
          "name": "urls",
          "type": "string[]"
        },
        {
          "internalType": "string[]",
          "name": "titles",
          "type": "string[]"
        }
      ],
      "stateMutability": "view",
      "type": "function"
    },
    {
      "inputs": [
        {
          "internalType": "string",
          "name": "_projectId",
          "type": "string"
        }
      ],
      "name": "getNFTsForProject",
      "outputs": [
        {
          "internalType": "string[]",
          "name": "usernames",
          "type": "string[]"
        },
        {
          "internalType": "string[]",
          "name": "participantIds",
          "type": "string[]"
        },
        {
          "internalType": "uint256[]",
          "name": "tokenIds",
          "type": "uint256[]"
        }
      ],
      "stateMutability": "view",
      "type": "function"
    },
    {
      "inputs": [
        {
          "internalType": "string",
          "name": "_projectId",
          "type": "string"
        },
        {
          "internalType": "uint256",
          "name": "_index",
          "type": "uint256"
        }
      ],
      "name": "getParticipant",
      "outputs": [
        {
          "internalType": "address",
          "name": "participantAddress",
          "type": "address"
        },
        {
          "internalType": "string",
          "name": "participantId",
          "type": "string"
        },
        {
          "internalType": "string",
          "name": "fullname",
          "type": "string"
        },
        {
          "internalType": "string",
          "name": "username",
          "type": "string"
        },
        {
          "internalType": "bytes",
          "name": "signature",
          "type": "bytes"
        },
        {
          "internalType": "uint256",
          "name": "tokenId",
          "type": "uint256"
        }
      ],
      "stateMutability": "view",
      "type": "function"
    },
    {
      "inputs": [
        {
          "internalType": "string",
          "name": "_projectId",
          "type": "string"
        }
      ],
      "name": "getProject",
      "outputs": [
        {
          "internalType": "string",
          "name": "projectChain",
          "type": "string"
        },
        {
          "internalType": "string",
          "name": "url",
          "type": "string"
        },
        {
          "internalType": "string",
          "name": "title",
          "type": "string"
        },
        {
          "internalType": "bytes32",
          "name": "projectHash",
          "type": "bytes32"
        },
        {
          "internalType": "uint256",
          "name": "participantsCount",
          "type": "uint256"
        }
      ],
      "stateMutability": "view",
      "type": "function"
    },
    {
      "inputs": [],
      "name": "nftContract",
      "outputs": [
        {
          "internalType": "contract IRhizomeNFT",
          "name": "",
          "type": "address"
        }
      ],
      "stateMutability": "view",
      "type": "function"
    },
    {
      "inputs": [],
      "name": "nftContractAddress",
      "outputs": [
        {
          "internalType": "address",
          "name": "",
          "type": "address"
        }
      ],
      "stateMutability": "view",
      "type": "function"
    },
    {
      "inputs": [],
      "name": "owner",
      "outputs": [
        {
          "internalType": "address",
          "name": "",
          "type": "address"
        }
      ],
      "stateMutability": "view",
      "type": "function"
    },
    {
      "inputs": [
        {
          "internalType": "string",
          "name": "_projectId",
          "type": "string"
        },
        {
          "internalType": "string",
          "name": "_projectChain",
          "type": "string"
        },
        {
          "internalType": "string",
          "name": "_url",
          "type": "string"
        },
        {
          "internalType": "string",
          "name": "_title",
          "type": "string"
        },
        {
          "internalType": "bytes32",
          "name": "_projectHash",
          "type": "bytes32"
        },
        {
          "internalType": "address[]",
          "name": "_participantAddresses",
          "type": "address[]"
        },
        {
          "internalType": "string[]",
          "name": "_participantIds",
          "type": "string[]"
        },
        {
          "internalType": "string[]",
          "name": "_participantFullnames",
          "type": "string[]"
        },
        {
          "internalType": "string[]",
          "name": "_participantUsernames",
          "type": "string[]"
        },
        {
          "internalType": "bytes[]",
          "name": "_participantSignatures",
          "type": "bytes[]"
        },
        {
          "internalType": "string",
          "name": "_nftImageUrl",
          "type": "string"
        },
        {
          "internalType": "string[]",
          "name": "_participantRole",
          "type": "string[]"
        },
        {
          "internalType": "string[]",
          "name": "_participantContributionPercentage",
          "type": "string[]"
        },
        {
          "internalType": "string[]",
          "name": "_participantContributionDescription",
          "type": "string[]"
        },
        {
          "internalType": "string",
          "name": "_nftFinalizationDate",
          "type": "string"
        }
      ],
      "name": "registerProject",
      "outputs": [],
      "stateMutability": "nonpayable",
      "type": "function"
    },
    {
      "inputs": [
        {
          "internalType": "address",
          "name": "_addr",
          "type": "address"
        }
      ],
      "name": "removeFromWhitelist",
      "outputs": [],
      "stateMutability": "nonpayable",
      "type": "function"
    },
    {
      "inputs": [],
      "name": "renounceOwnership",
      "outputs": [],
      "stateMutability": "nonpayable",
      "type": "function"
    },
    {
      "inputs": [
        {
          "internalType": "address",
          "name": "_nftAddress",
          "type": "address"
        }
      ],
      "name": "setNFTContractAddress",
      "outputs": [],
      "stateMutability": "nonpayable",
      "type": "function"
    },
    {
      "inputs": [
        {
          "internalType": "bool",
          "name": "_enabled",
          "type": "bool"
        }
      ],
      "name": "setWhitelistEnabled",
      "outputs": [],
      "stateMutability": "nonpayable",
      "type": "function"
    },
    {
      "inputs": [
        {
          "internalType": "address",
          "name": "newOwner",
          "type": "address"
        }
      ],
      "name": "transferOwnership",
      "outputs": [],
      "stateMutability": "nonpayable",
      "type": "function"
    },
    {
      "inputs": [
        {
          "internalType": "address",
          "name": "",
          "type": "address"
        }
      ],
      "name": "whitelist",
      "outputs": [
        {
          "internalType": "bool",
          "name": "",
          "type": "bool"
        }
      ],
      "stateMutability": "view",
      "type": "function"
    },
    {
      "inputs": [],
      "name": "whitelistEnabled",
      "outputs": [
        {
          "internalType": "bool",
          "name": "",
          "type": "bool"
        }
      ],
      "stateMutability": "view",
      "type": "function"
    }
  ],
  "bytecode": "0x6080346100e357601f611e4e38819003918201601f19168301916001600160401b038311848410176100e8578084926020946040528339810103126100e357516001600160a01b038116908190036100e35733156100cd5760008054336001600160a01b0319821681178355604051939290916001600160a01b0316907f8be0079c531659141344cd1fd0a4f28419497f9722a3daafe3b4186f6b6457e09080a3600580546001600160a01b03199081168317909155600680549091169091179055611d4f90816100ff8239f35b631e4fbdf760e01b600052600060045260246000fd5b600080fd5b634e487b7160e01b600052604160045260246000fdfe610140604052600436101561001357600080fd5b60003560e01c8063052d9e7e1461168f578063058344eb1461151a57806323949cd1146114865780634fa691e2146113aa57806351fb012d14611387578063715018a61461132157806380d03829146111675780638ab1d681146110fa5780638da5cb5b146110d35780639b19251a14611094578063a4bf6259146103d0578063aae282e1146103a9578063ccf92a7914610218578063d56d229d146101f1578063e43252d7146101815763f2fde38b146100cd57600080fd5b3461017c57602060031936011261017c576001600160a01b036100ee6117c1565b6100f6611b3f565b16801561014d576001600160a01b036000548273ffffffffffffffffffffffffffffffffffffffff19821617600055167f8be0079c531659141344cd1fd0a4f28419497f9722a3daafe3b4186f6b6457e0600080a3005b7f1e4fbdf700000000000000000000000000000000000000000000000000000000600052600060045260246000fd5b600080fd5b3461017c57602060031936011261017c576001600160a01b036101a26117c1565b6101aa611b3f565b168060005260046020526040600020600160ff198254161790557ff93f9a76c1bf3444d22400a00cb9fe990e6abe9dbb333fda48859cfee864543d602060405160018152a2005b3461017c57600060031936011261017c5760206001600160a01b0360065416604051908152f35b3461017c57602060031936011261017c5760043567ffffffffffffffff811161017c57610262602061024f6004933690850161175b565b8160405193828580945193849201611779565b8101600181520301902001805490610279826119b7565b91610283816119b7565b61028c82611830565b9161029a60405193846116f1565b8083526102a681611830565b93601f1960208501950136863760005b828110610325576102dd87878760206102ea896040519687966060885260608801906117d7565b90868203848801526117d7565b918483036040860152519182815201919060005b81811061030c575050500390f35b82518452859450602093840193909201916001016102fe565b80600361034f610337600194866118c7565b506103486040518094819301611933565b03826116f1565b610359828a611a1b565b526103648189611a1b565b508161037361033783866118c7565b61037d8287611a1b565b526103888186611a1b565b50600861039582856118c7565b5001546103a28288611a1b565b52016102b6565b3461017c57600060031936011261017c5760206001600160a01b0360055416604051908152f35b3461017c576101e060031936011261017c5760043567ffffffffffffffff811161017c5761040290369060040161175b565b6101205260243567ffffffffffffffff811161017c5761042690369060040161175b565b60443567ffffffffffffffff811161017c5761044690369060040161175b565b9060643567ffffffffffffffff811161017c5761046790369060040161175b565b9060a43567ffffffffffffffff811161017c573660238201121561017c578060040135906104a561049783611830565b60405160e05260e0516116f1565b60e08051839052516020019160051b81016024019036821161017c57602401915b8183106110745750505060c43567ffffffffffffffff811161017c576104f0903690600401611848565b6101005260e43567ffffffffffffffff811161017c57610514903690600401611848565b906101043567ffffffffffffffff811161017c57610536903690600401611848565b610124359467ffffffffffffffff861161017c573660238701121561017c57856004013561056381611830565b9661057160405198896116f1565b8188526024602089019260051b8201019036821161017c5760248101925b82841061103357505050506101443567ffffffffffffffff811161017c576105bb90369060040161175b565b6101643567ffffffffffffffff811161017c576105dc903690600401611848565b6080526101843567ffffffffffffffff811161017c57610600903690600401611848565b60a0526101a43567ffffffffffffffff811161017c57610624903690600401611848565b60c0526101c43567ffffffffffffffff811161017c5761064890369060040161175b565b60ff60035416610fd9575b6020600060405180885161066a8183878d01611779565b8101039060025afa15610e8e5760843560005103610f955760e05151845181149081610f8a575b81610f7f575b81610f72575b81610f65575b81610f57575b81610f4a575b5015610ee0576040516106e6610120515191602081816101205101946106d6818388611779565b81016001815203019020546118f9565b610e9c57610707602061071892604051809381926101205151928391611779565b810160018152030190209586611a81565b6107258360018701611a81565b6107328760028701611a81565b608435600386015560005b60e05151811015610b4e576107ad6107a460405160208101907f19457468657265756d205369676e6564204d6573736167653a0a3332000000008252608435603c820152603c8152610790605c826116f1565b51902061079d848d611a1b565b5190611b81565b90929192611bbd565b6001600160a01b03806107c28460e051611a1b565b5116911603610ae4576001600160a01b036107df8260e051611a1b565b51166107ee8261010051611a1b565b51908a6107fb848b611a1b565b516108118561080a818c611a1b565b5193611a1b565b519161081f86608051611a1b565b5161082c8760a051611a1b565b516108398860c051611a1b565b519160405196610120880188811067ffffffffffffffff821117610ab85760405287526020870197885260408701948552606087019384526080870195865260a087015260c086015260e0850152600061010085015260048b015468010000000000000000811015610ab8576001810160048d019081556108ba91906118c7565b959095610ace57610911926108fd610907926001600160a01b0388511673ffffffffffffffffffffffffffffffffffffffff198a54161789555160018901611a81565b5160028701611a81565b5160038501611a81565b5180519067ffffffffffffffff8211610ab85761093e8261093560048701546118f9565b60048701611a2f565b602090601f8311600114610a40579261097983600894610100946001999897600092610a35575b50506000198260011b9260031b1c19161790565b60048501555b61099060a082015160058601611a81565b6109a160c082015160068601611a81565b6109b260e082015160078601611a81565b01519101557fcd3ad31227973607760255dd1b18c731b64db2a7e40847b3419381bd202530266001600160a01b036109ec8360e051611a1b565b51166109fb8361010051611a1b565b51610a2c60405192839260608452610a19606085016101205161179c565b916020850152838203604085015261179c565b0390a10161073d565b015190503880610965565b9060048501600052806000209160005b601f1985168110610aa057508361010093600198979693899383601f196008991610610a87575b505050811b01600485015561097f565b015160001960f88460031b161c19169055388080610a77565b91926020600181928685015181550194019201610a50565b634e487b7160e01b600052604160045260246000fd5b634e487b7160e01b600052600060045260246000fd5b608460405162461bcd60e51b815260206004820152602160248201527f496e76616c6964207369676e617475726520666f72207061727469636970616e60448201527f74000000000000000000000000000000000000000000000000000000000000006064820152fd5b508493508660025468010000000000000000811015610ab857806001610b779201600255611a00565b610ace5761012051610b8891611a81565b7fc281711ec22f64397aeefc7f5e1e2ec643d510d5467ac6e7ede885fd3c5b66406040516040815280610bd2610bc4604083016101205161179c565b82810360208401528561179c565b0390a160005b6004860154811015610e9a576006546001600160a01b0316610bfd82600489016118c7565b50546001600160a01b031690610c168360048a016118c7565b50610c248460048b016118c7565b5092610c338560048c016118c7565b508a610c4287600483016118c7565b5087610c5181600485016118c7565b509260040190610c60916118c7565b509260405197889687967f1673b456000000000000000000000000000000000000000000000000000000008852600488015260248701610180905261018487016101205190610cae9161179c565b600319888203016044890152610cc691600101611933565b600319878203016064880152610cde91600201611933565b600319868203016084870152610cf691600301611933565b8481036003190160a4860152610d0c908a61179c565b8481036003190160c4860152610d22908d61179c565b8481036003190160e4860152610d38908c61179c565b60031985820301610104860152610d5191600501611933565b60031984820301610124850152610d6a91600601611933565b60031983820301610144840152610d8391600701611933565b81810360031901610164830152610d9a908861179c565b03815a602094600091f18015610e8e578791600091610e55575b50610e4182827f11e557eaa1b2425538387041bb8c3928f384cf103634a3f30c7e9d23f049e6ad936008610dee88600460019a99016118c7565b5001556001600160a01b03610e13866004610e0b828288016118c7565b5095016118c7565b505416906040519384936080855288610e32608087016101205161179c565b91868303602088015201611933565b91604084015260608301520390a101610bd8565b91506020823d8211610e86575b81610e6f602093836116f1565b81010312610e835750518690610e41610db4565b80fd5b3d9150610e62565b6040513d6000823e3d90fd5b005b606460405162461bcd60e51b815260206004820152601a60248201527f50726f6a65637420616c726561647920726567697374657265640000000000006044820152fd5b608460405162461bcd60e51b815260206004820152602d60248201527f5061727469636970616e747320617272617973206d757374206861766520746860448201527f652073616d65206c656e677468000000000000000000000000000000000000006064820152fd5b905060c0515114896106af565b6101005151811491506106a9565b60a05151811491506106a3565b608051518114915061069d565b895181149150610697565b875181149150610691565b606460405162461bcd60e51b815260206004820152601560248201527f50726f6a6563742068617368206d69736d6174636800000000000000000000006044820152fd5b33600052600460205260ff6040600020541661065357606460405162461bcd60e51b815260206004820152601660248201527f53656e646572206e6f742077686974656c6973746564000000000000000000006044820152fd5b833567ffffffffffffffff811161017c5782013660438201121561017c5760209161106983923690604460248201359101611714565b81520193019261058f565b82356001600160a01b038116810361017c578152602092830192016104c6565b3461017c57602060031936011261017c576001600160a01b036110b56117c1565b166000526004602052602060ff604060002054166040519015158152f35b3461017c57600060031936011261017c5760206001600160a01b0360005416604051908152f35b3461017c57602060031936011261017c576001600160a01b0361111b6117c1565b611123611b3f565b16806000526004602052604060002060ff1981541690557ff93f9a76c1bf3444d22400a00cb9fe990e6abe9dbb333fda48859cfee864543d602060405160008152a2005b3461017c57600060031936011261017c57600254611184816119b7565b61118d826119b7565b611196836119b7565b906111a0846119b7565b9360005b8181106111fd576111cf856111f9886111eb886111dd896040519788976080895260808901906117d7565b9087820360208901526117d7565b9085820360408701526117d7565b9083820360608501526117d7565b0390f35b61120681611a00565b5060405160008254611217816118f9565b906001811690811561130b57506001146112d6575b5060019392610348611255846020600296868a6112ba9852030190209260405192838092611933565b61125f858b611a1b565b5261126a848a611a1b565b5060405161127c816103488185611933565b6112868589611a1b565b526112918488611a1b565b506040516112a58161034881898601611933565b6112af858a611a1b565b526103378489611a1b565b6112c48289611a1b565b526112cf8188611a1b565b50016111a4565b90508260005260206000206000905b8282106112f75750508101600161122c565b6001816020925484870152019101906112e5565b60ff19168452508015150282019050600161122c565b3461017c57600060031936011261017c5761133a611b3f565b60006001600160a01b03815473ffffffffffffffffffffffffffffffffffffffff1981168355167f8be0079c531659141344cd1fd0a4f28419497f9722a3daafe3b4186f6b6457e08280a3005b3461017c57600060031936011261017c57602060ff600354166040519015158152f35b3461017c57602060031936011261017c5760043567ffffffffffffffff811161017c576113e3602061024f61145b93369060040161175b565b8101600181520301902060038101546004820154611477600261146960405195611418876114118184611933565b03886116f1565b61144760405191611437836114308160018501611933565b03846116f1565b6114306040518096819301611933565b60405197889760a0895260a089019061179c565b90878203602089015261179c565b90858203604087015261179c565b91606084015260808301520390f35b3461017c57602060031936011261017c577f1fb36fd0459b3471fd5ce49752da7eca0fab368c700543fd883cd67490b12a1c60206001600160a01b036114ca6117c1565b6114d2611b3f565b168073ffffffffffffffffffffffffffffffffffffffff1960055416176005558073ffffffffffffffffffffffffffffffffffffffff196006541617600655604051908152a1005b3461017c57604060031936011261017c5760043567ffffffffffffffff811161017c5761154b90369060040161175b565b60046115696020602435938160405193828580945193849201611779565b810160018152030190200190815481101561164b57611587916118c7565b506001600160a01b0381541660088201546116416004611633604051956115b5876114118160018501611933565b6116256040516115cc816103488160028701611933565b6115fb604051936115eb856115e48160038501611933565b03866116f1565b6115e46040518098819301611933565b611617604051998a998a5260c060208b015260c08a019061179c565b9088820360408a015261179c565b90868203606088015261179c565b90848203608086015261179c565b9060a08301520390f35b606460405162461bcd60e51b815260206004820152601f60248201527f5061727469636970616e7420696e646578206f7574206f6620626f756e6473006044820152fd5b3461017c57602060031936011261017c5760043580151580910361017c5760207f1cf28b997975c7be355bcef74f2f5019aa48253bc1e54b3c8b002471865fdba8916116d9611b3f565b60ff196003541660ff821617600355604051908152a1005b90601f601f19910116810190811067ffffffffffffffff821117610ab857604052565b92919267ffffffffffffffff8211610ab8576040519161173e601f8201601f1916602001846116f1565b82948184528183011161017c578281602093846000960137010152565b9080601f8301121561017c5781602061177693359101611714565b90565b60005b83811061178c5750506000910152565b818101518382015260200161177c565b90601f19601f6020936117ba81518092818752878088019101611779565b0116010190565b600435906001600160a01b038216820361017c57565b9080602083519182815201916020808360051b8301019401926000915b83831061180357505050505090565b909192939460208061182183601f198660019603018752895161179c565b970193019301919392906117f4565b67ffffffffffffffff8111610ab85760051b60200190565b9080601f8301121561017c57813561185f81611830565b9261186d60405194856116f1565b81845260208085019260051b8201019183831161017c5760208201905b83821061189957505050505090565b813567ffffffffffffffff811161017c576020916118bc8784809488010161175b565b81520191019061188a565b80548210156118e3576000526009602060002091020190600090565b634e487b7160e01b600052603260045260246000fd5b90600182811c92168015611929575b602083101461191357565b634e487b7160e01b600052602260045260246000fd5b91607f1691611908565b60009291815491611943836118f9565b8083529260018116908115611999575060011461195f57505050565b60009081526020812093945091925b83831061197f575060209250010190565b60018160209294939454838587010152019101919061196e565b9050602094955060ff1991509291921683830152151560051b010190565b906119c182611830565b6119ce60405191826116f1565b828152601f196119de8294611830565b019060005b8281106119ef57505050565b8060606020809385010152016119e3565b6002548110156118e357600260005260206000200190600090565b80518210156118e35760209160051b010190565b601f8211611a3c57505050565b6000526020600020906020601f840160051c83019310611a77575b601f0160051c01905b818110611a6b575050565b60008155600101611a60565b9091508190611a57565b919091825167ffffffffffffffff8111610ab857611aa981611aa384546118f9565b84611a2f565b6020601f8211600114611add578190611ad9939495600092610a355750506000198260011b9260031b1c19161790565b9055565b601f1982169083600052806000209160005b818110611b2757509583600195969710611b0e575b505050811b019055565b015160001960f88460031b161c19169055388080611b04565b9192602060018192868b015181550194019201611aef565b6001600160a01b03600054163303611b5357565b7f118cdaa7000000000000000000000000000000000000000000000000000000006000523360045260246000fd5b8151919060418303611bb257611bab92506020820151906060604084015193015160001a90611c90565b9192909190565b505060009160029190565b9190916004811015611c7a5780611bd357509050565b600060018203611c07577ff645eedf0000000000000000000000000000000000000000000000000000000060005260046000fd5b5060028103611c3e57827ffce698f70000000000000000000000000000000000000000000000000000000060005260045260246000fd5b9091600360009214611c4e575050565b602492507fd78bce0c000000000000000000000000000000000000000000000000000000008252600452fd5b634e487b7160e01b600052602160045260246000fd5b91907f7fffffffffffffffffffffffffffffff5d576e7357a4501ddfe92f46681b20a08411611d0d579160209360809260ff60009560405194855216868401526040830152606082015282805260015afa15610e8e576000516001600160a01b03811615611d015790600090600090565b50600090600190600090565b5050506000916003919056fea264697066735822122027a0a6cd6ef9e12f68c139b5d8a5ef94a014940122e01406d1a38ef770a9b41164736f6c634300081c0033",
  "linkReferences": {},
  "deployedLinkReferences": {}
}