{"src/web3/contracts/ProjectsRegistry.sol":{"ProjectsRegistry":{"abi":[{"inputs":[{"internalType":"address","name":"_nftAddress","type":"address"}],"stateMutability":"nonpayable","type":"constructor"},{"inputs":[],"name":"ECDSAInvalidSignature","type":"error"},{"inputs":[{"internalType":"uint256","name":"length","type":"uint256"}],"name":"ECDSAInvalidSignatureLength","type":"error"},{"inputs":[{"internalType":"bytes32","name":"s","type":"bytes32"}],"name":"ECDSAInvalidSignatureS","type":"error"},{"inputs":[{"internalType":"address","name":"owner","type":"address"}],"name":"OwnableInvalidOwner","type":"error"},{"inputs":[{"internalType":"address","name":"account","type":"address"}],"name":"OwnableUnauthorizedAccount","type":"error"},{"anonymous":false,"inputs":[{"indexed":false,"internalType":"address","name":"nftAddress","type":"address"}],"name":"NFTContractAddressSet","type":"event"},{"anonymous":false,"inputs":[{"indexed":false,"internalType":"string","name":"projectId","type":"string"},{"indexed":false,"internalType":"string","name":"participantId","type":"string"},{"indexed":false,"internalType":"address","name":"participant","type":"address"},{"indexed":false,"internalType":"uint256","name":"tokenId","type":"uint256"}],"name":"NFTMintedForParticipant","type":"event"},{"anonymous":false,"inputs":[{"indexed":true,"internalType":"address","name":"previousOwner","type":"address"},{"indexed":true,"internalType":"address","name":"newOwner","type":"address"}],"name":"OwnershipTransferred","type":"event"},{"anonymous":false,"inputs":[{"indexed":false,"internalType":"string","name":"projectId","type":"string"},{"indexed":false,"internalType":"address","name":"participant","type":"address"},{"indexed":false,"internalType":"string","name":"participantId","type":"string"}],"name":"ParticipantAdded","type":"event"},{"anonymous":false,"inputs":[{"indexed":false,"internalType":"string","name":"projectId","type":"string"},{"indexed":false,"internalType":"string","name":"title","type":"string"}],"name":"ProjectRegistered","type":"event"},{"anonymous":false,"inputs":[{"indexed":false,"internalType":"bool","name":"enabled","type":"bool"}],"name":"WhitelistStatusChanged","type":"event"},{"anonymous":false,"inputs":[{"indexed":true,"internalType":"address","name":"account","type":"address"},{"indexed":false,"internalType":"bool","name":"isWhitelisted","type":"bool"}],"name":"WhitelistUpdated","type":"event"},{"inputs":[{"internalType":"address","name":"_addr","type":"address"}],"name":"addToWhitelist","outputs":[],"stateMutability":"nonpayable","type":"function"},{"inputs":[],"name":"getAllProjects","outputs":[{"internalType":"string[]","name":"ids","type":"string[]"},{"internalType":"string[]","name":"chains","type":"string[]"},{"internalType":"string[]","name":"urls","type":"string[]"},{"internalType":"string[]","name":"titles","type":"string[]"}],"stateMutability":"view","type":"function"},{"inputs":[{"internalType":"string","name":"_projectId","type":"string"}],"name":"getNFTsForProject","outputs":[{"internalType":"string[]","name":"usernames","type":"string[]"},{"internalType":"string[]","name":"participantIds","type":"string[]"},{"internalType":"uint256[]","name":"tokenIds","type":"uint256[]"}],"stateMutability":"view","type":"function"},{"inputs":[{"internalType":"string","name":"_projectId","type":"string"},{"internalType":"uint256","name":"_index","type":"uint256"}],"name":"getParticipant","outputs":[{"internalType":"address","name":"participantAddress","type":"address"},{"internalType":"string","name":"participantId","type":"string"},{"internalType":"string","name":"fullname","type":"string"},{"internalType":"string","name":"username","type":"string"},{"internalType":"bytes","name":"signature","type":"bytes"},{"internalType":"uint256","name":"tokenId","type":"uint256"}],"stateMutability":"view","type":"function"},{"inputs":[{"internalType":"string","name":"_projectId","type":"string"}],"name":"getProject","outputs":[{"internalType":"string","name":"projectChain","type":"string"},{"internalType":"string","name":"url","type":"string"},{"internalType":"string","name":"title","type":"string"},{"internalType":"bytes32","name":"projectHash","type":"bytes32"},{"internalType":"uint256","name":"participantsCount","type":"uint256"}],"stateMutability":"view","type":"function"},{"inputs":[],"name":"nftContract","outputs":[{"internalType":"contract IRhizomeNFT","name":"","type":"address"}],"stateMutability":"view","type":"function"},{"inputs":[],"name":"nftContractAddress","outputs":[{"internalType":"address","name":"","type":"address"}],"stateMutability":"view","type":"function"},{"inputs":[],"name":"owner","outputs":[{"internalType":"address","name":"","type":"address"}],"stateMutability":"view","type":"function"},{"inputs":[{"internalType":"string","name":"_projectId","type":"string"},{"internalType":"string","name":"_projectChain","type":"string"},{"internalType":"string","name":"_url","type":"string"},{"internalType":"string","name":"_title","type":"string"},{"internalType":"bytes32","name":"_projectHash","type":"bytes32"},{"internalType":"address[]","name":"_participantAddresses","type":"address[]"},{"internalType":"string[]","name":"_participantIds","type":"string[]"},{"internalType":"string[]","name":"_participantFullnames","type":"string[]"},{"internalType":"string[]","name":"_participantUsernames","type":"string[]"},{"internalType":"bytes[]","name":"_participantSignatures","type":"bytes[]"},{"internalType":"string","name":"_nftImageUrl","type":"string"},{"internalType":"string[]","name":"_participantRole","type":"string[]"},{"internalType":"string[]","name":"_participantContributionPercentage","type":"string[]"},{"internalType":"string[]","name":"_participantContributionDescription","type":"string[]"},{"internalType":"string","name":"_nftFinalizationDate","type":"string"}],"name":"registerProject","outputs":[],"stateMutability":"nonpayable","type":"function"},{"inputs":[{"internalType":"address","name":"_addr","type":"address"}],"name":"removeFromWhitelist","outputs":[],"stateMutability":"nonpayable","type":"function"},{"inputs":[],"name":"renounceOwnership","outputs":[],"stateMutability":"nonpayable","type":"function"},{"inputs":[{"internalType":"address","name":"_nftAddress","type":"address"}],"name":"setNFTContractAddress","outputs":[],"stateMutability":"nonpayable","type":"function"},{"inputs":[{"internalType":"bool","name":"_enabled","type":"bool"}],"name":"setWhitelistEnabled","outputs":[],"stateMutability":"nonpayable","type":"function"},{"inputs":[{"internalType":"address","name":"newOwner","type":"address"}],"name":"transferOwnership","outputs":[],"stateMutability":"nonpayable","type":"function"},{"inputs":[{"internalType":"address","name":"","type":"address"}],"name":"whitelist","outputs":[{"internalType":"bool","name":"","type":"bool"}],"stateMutability":"view","type":"function"},{"inputs":[],"name":"whitelistEnabled","outputs":[{"internalType":"bool","name":"","type":"bool"}],"stateMutability":"view","type":"function"}],"evm":{"bytecode":{"linkReferences":{},"object":"6080346100e357601f611e4e38819003918201601f19168301916001600160401b038311848410176100e8578084926020946040528339810103126100e357516001600160a01b038116908190036100e35733156100cd5760008054336001600160a01b0319821681178355604051939290916001600160a01b0316907f8be0079c531659141344cd1fd0a4f28419497f9722a3daafe3b4186f6b6457e09080a3600580546001600160a01b03199081168317909155600680549091169091179055611d4f90816100ff8239f35b631e4fbdf760e01b600052600060045260246000fd5b600080fd5b634e487b7160e01b600052604160045260246000fdfe610140604052600436101561001357600080fd5b60003560e01c8063052d9e7e1461168f578063058344eb1461151a57806323949cd1146114865780634fa691e2146113aa57806351fb012d14611387578063715018a61461132157806380d03829146111675780638ab1d681146110fa5780638da5cb5b146110d35780639b19251a14611094578063a4bf6259146103d0578063aae282e1146103a9578063ccf92a7914610218578063d56d229d146101f1578063e43252d7146101815763f2fde38b146100cd57600080fd5b3461017c57602060031936011261017c576001600160a01b036100ee6117c1565b6100f6611b3f565b16801561014d576001600160a01b036000548273ffffffffffffffffffffffffffffffffffffffff19821617600055167f8be0079c531659141344cd1fd0a4f28419497f9722a3daafe3b4186f6b6457e0600080a3005b7f1e4fbdf700000000000000000000000000000000000000000000000000000000600052600060045260246000fd5b600080fd5b3461017c57602060031936011261017c576001600160a01b036101a26117c1565b6101aa611b3f565b168060005260046020526040600020600160ff198254161790557ff93f9a76c1bf3444d22400a00cb9fe990e6abe9dbb333fda48859cfee864543d602060405160018152a2005b3461017c57600060031936011261017c5760206001600160a01b0360065416604051908152f35b3461017c57602060031936011261017c5760043567ffffffffffffffff811161017c57610262602061024f6004933690850161175b565b8160405193828580945193849201611779565b8101600181520301902001805490610279826119b7565b91610283816119b7565b61028c82611830565b9161029a60405193846116f1565b8083526102a681611830565b93601f1960208501950136863760005b828110610325576102dd87878760206102ea896040519687966060885260608801906117d7565b90868203848801526117d7565b918483036040860152519182815201919060005b81811061030c575050500390f35b82518452859450602093840193909201916001016102fe565b80600361034f610337600194866118c7565b506103486040518094819301611933565b03826116f1565b610359828a611a1b565b526103648189611a1b565b508161037361033783866118c7565b61037d8287611a1b565b526103888186611a1b565b50600861039582856118c7565b5001546103a28288611a1b565b52016102b6565b3461017c57600060031936011261017c5760206001600160a01b0360055416604051908152f35b3461017c576101e060031936011261017c5760043567ffffffffffffffff811161017c5761040290369060040161175b565b6101205260243567ffffffffffffffff811161017c5761042690369060040161175b565b60443567ffffffffffffffff811161017c5761044690369060040161175b565b9060643567ffffffffffffffff811161017c5761046790369060040161175b565b9060a43567ffffffffffffffff811161017c573660238201121561017c578060040135906104a561049783611830565b60405160e05260e0516116f1565b60e08051839052516020019160051b81016024019036821161017c57602401915b8183106110745750505060c43567ffffffffffffffff811161017c576104f0903690600401611848565b6101005260e43567ffffffffffffffff811161017c57610514903690600401611848565b906101043567ffffffffffffffff811161017c57610536903690600401611848565b610124359467ffffffffffffffff861161017c573660238701121561017c57856004013561056381611830565b9661057160405198896116f1565b8188526024602089019260051b8201019036821161017c5760248101925b82841061103357505050506101443567ffffffffffffffff811161017c576105bb90369060040161175b565b6101643567ffffffffffffffff811161017c576105dc903690600401611848565b6080526101843567ffffffffffffffff811161017c57610600903690600401611848565b60a0526101a43567ffffffffffffffff811161017c57610624903690600401611848565b60c0526101c43567ffffffffffffffff811161017c5761064890369060040161175b565b60ff60035416610fd9575b6020600060405180885161066a8183878d01611779565b8101039060025afa15610e8e5760843560005103610f955760e05151845181149081610f8a575b81610f7f575b81610f72575b81610f65575b81610f57575b81610f4a575b5015610ee0576040516106e6610120515191602081816101205101946106d6818388611779565b81016001815203019020546118f9565b610e9c57610707602061071892604051809381926101205151928391611779565b810160018152030190209586611a81565b6107258360018701611a81565b6107328760028701611a81565b608435600386015560005b60e05151811015610b4e576107ad6107a460405160208101907f19457468657265756d205369676e6564204d6573736167653a0a3332000000008252608435603c820152603c8152610790605c826116f1565b51902061079d848d611a1b565b5190611b81565b90929192611bbd565b6001600160a01b03806107c28460e051611a1b565b5116911603610ae4576001600160a01b036107df8260e051611a1b565b51166107ee8261010051611a1b565b51908a6107fb848b611a1b565b516108118561080a818c611a1b565b5193611a1b565b519161081f86608051611a1b565b5161082c8760a051611a1b565b516108398860c051611a1b565b519160405196610120880188811067ffffffffffffffff821117610ab85760405287526020870197885260408701948552606087019384526080870195865260a087015260c086015260e0850152600061010085015260048b015468010000000000000000811015610ab8576001810160048d019081556108ba91906118c7565b959095610ace57610911926108fd610907926001600160a01b0388511673ffffffffffffffffffffffffffffffffffffffff198a54161789555160018901611a81565b5160028701611a81565b5160038501611a81565b5180519067ffffffffffffffff8211610ab85761093e8261093560048701546118f9565b60048701611a2f565b602090601f8311600114610a40579261097983600894610100946001999897600092610a35575b50506000198260011b9260031b1c19161790565b60048501555b61099060a082015160058601611a81565b6109a160c082015160068601611a81565b6109b260e082015160078601611a81565b01519101557fcd3ad31227973607760255dd1b18c731b64db2a7e40847b3419381bd202530266001600160a01b036109ec8360e051611a1b565b51166109fb8361010051611a1b565b51610a2c60405192839260608452610a19606085016101205161179c565b916020850152838203604085015261179c565b0390a10161073d565b015190503880610965565b9060048501600052806000209160005b601f1985168110610aa057508361010093600198979693899383601f196008991610610a87575b505050811b01600485015561097f565b015160001960f88460031b161c19169055388080610a77565b91926020600181928685015181550194019201610a50565b634e487b7160e01b600052604160045260246000fd5b634e487b7160e01b600052600060045260246000fd5b608460405162461bcd60e51b815260206004820152602160248201527f496e76616c6964207369676e617475726520666f72207061727469636970616e60448201527f74000000000000000000000000000000000000000000000000000000000000006064820152fd5b508493508660025468010000000000000000811015610ab857806001610b779201600255611a00565b610ace5761012051610b8891611a81565b7fc281711ec22f64397aeefc7f5e1e2ec643d510d5467ac6e7ede885fd3c5b66406040516040815280610bd2610bc4604083016101205161179c565b82810360208401528561179c565b0390a160005b6004860154811015610e9a576006546001600160a01b0316610bfd82600489016118c7565b50546001600160a01b031690610c168360048a016118c7565b50610c248460048b016118c7565b5092610c338560048c016118c7565b508a610c4287600483016118c7565b5087610c5181600485016118c7565b509260040190610c60916118c7565b509260405197889687967f1673b456000000000000000000000000000000000000000000000000000000008852600488015260248701610180905261018487016101205190610cae9161179c565b600319888203016044890152610cc691600101611933565b600319878203016064880152610cde91600201611933565b600319868203016084870152610cf691600301611933565b8481036003190160a4860152610d0c908a61179c565b8481036003190160c4860152610d22908d61179c565b8481036003190160e4860152610d38908c61179c565b60031985820301610104860152610d5191600501611933565b60031984820301610124850152610d6a91600601611933565b60031983820301610144840152610d8391600701611933565b81810360031901610164830152610d9a908861179c565b03815a602094600091f18015610e8e578791600091610e55575b50610e4182827f11e557eaa1b2425538387041bb8c3928f384cf103634a3f30c7e9d23f049e6ad936008610dee88600460019a99016118c7565b5001556001600160a01b03610e13866004610e0b828288016118c7565b5095016118c7565b505416906040519384936080855288610e32608087016101205161179c565b91868303602088015201611933565b91604084015260608301520390a101610bd8565b91506020823d8211610e86575b81610e6f602093836116f1565b81010312610e835750518690610e41610db4565b80fd5b3d9150610e62565b6040513d6000823e3d90fd5b005b606460405162461bcd60e51b815260206004820152601a60248201527f50726f6a65637420616c726561647920726567697374657265640000000000006044820152fd5b608460405162461bcd60e51b815260206004820152602d60248201527f5061727469636970616e747320617272617973206d757374206861766520746860448201527f652073616d65206c656e677468000000000000000000000000000000000000006064820152fd5b905060c0515114896106af565b6101005151811491506106a9565b60a05151811491506106a3565b608051518114915061069d565b895181149150610697565b875181149150610691565b606460405162461bcd60e51b815260206004820152601560248201527f50726f6a6563742068617368206d69736d6174636800000000000000000000006044820152fd5b33600052600460205260ff6040600020541661065357606460405162461bcd60e51b815260206004820152601660248201527f53656e646572206e6f742077686974656c6973746564000000000000000000006044820152fd5b833567ffffffffffffffff811161017c5782013660438201121561017c5760209161106983923690604460248201359101611714565b81520193019261058f565b82356001600160a01b038116810361017c578152602092830192016104c6565b3461017c57602060031936011261017c576001600160a01b036110b56117c1565b166000526004602052602060ff604060002054166040519015158152f35b3461017c57600060031936011261017c5760206001600160a01b0360005416604051908152f35b3461017c57602060031936011261017c576001600160a01b0361111b6117c1565b611123611b3f565b16806000526004602052604060002060ff1981541690557ff93f9a76c1bf3444d22400a00cb9fe990e6abe9dbb333fda48859cfee864543d602060405160008152a2005b3461017c57600060031936011261017c57600254611184816119b7565b61118d826119b7565b611196836119b7565b906111a0846119b7565b9360005b8181106111fd576111cf856111f9886111eb886111dd896040519788976080895260808901906117d7565b9087820360208901526117d7565b9085820360408701526117d7565b9083820360608501526117d7565b0390f35b61120681611a00565b5060405160008254611217816118f9565b906001811690811561130b57506001146112d6575b5060019392610348611255846020600296868a6112ba9852030190209260405192838092611933565b61125f858b611a1b565b5261126a848a611a1b565b5060405161127c816103488185611933565b6112868589611a1b565b526112918488611a1b565b506040516112a58161034881898601611933565b6112af858a611a1b565b526103378489611a1b565b6112c48289611a1b565b526112cf8188611a1b565b50016111a4565b90508260005260206000206000905b8282106112f75750508101600161122c565b6001816020925484870152019101906112e5565b60ff19168452508015150282019050600161122c565b3461017c57600060031936011261017c5761133a611b3f565b60006001600160a01b03815473ffffffffffffffffffffffffffffffffffffffff1981168355167f8be0079c531659141344cd1fd0a4f28419497f9722a3daafe3b4186f6b6457e08280a3005b3461017c57600060031936011261017c57602060ff600354166040519015158152f35b3461017c57602060031936011261017c5760043567ffffffffffffffff811161017c576113e3602061024f61145b93369060040161175b565b8101600181520301902060038101546004820154611477600261146960405195611418876114118184611933565b03886116f1565b61144760405191611437836114308160018501611933565b03846116f1565b6114306040518096819301611933565b60405197889760a0895260a089019061179c565b90878203602089015261179c565b90858203604087015261179c565b91606084015260808301520390f35b3461017c57602060031936011261017c577f1fb36fd0459b3471fd5ce49752da7eca0fab368c700543fd883cd67490b12a1c60206001600160a01b036114ca6117c1565b6114d2611b3f565b168073ffffffffffffffffffffffffffffffffffffffff1960055416176005558073ffffffffffffffffffffffffffffffffffffffff196006541617600655604051908152a1005b3461017c57604060031936011261017c5760043567ffffffffffffffff811161017c5761154b90369060040161175b565b60046115696020602435938160405193828580945193849201611779565b810160018152030190200190815481101561164b57611587916118c7565b506001600160a01b0381541660088201546116416004611633604051956115b5876114118160018501611933565b6116256040516115cc816103488160028701611933565b6115fb604051936115eb856115e48160038501611933565b03866116f1565b6115e46040518098819301611933565b611617604051998a998a5260c060208b015260c08a019061179c565b9088820360408a015261179c565b90868203606088015261179c565b90848203608086015261179c565b9060a08301520390f35b606460405162461bcd60e51b815260206004820152601f60248201527f5061727469636970616e7420696e646578206f7574206f6620626f756e6473006044820152fd5b3461017c57602060031936011261017c5760043580151580910361017c5760207f1cf28b997975c7be355bcef74f2f5019aa48253bc1e54b3c8b002471865fdba8916116d9611b3f565b60ff196003541660ff821617600355604051908152a1005b90601f601f19910116810190811067ffffffffffffffff821117610ab857604052565b92919267ffffffffffffffff8211610ab8576040519161173e601f8201601f1916602001846116f1565b82948184528183011161017c578281602093846000960137010152565b9080601f8301121561017c5781602061177693359101611714565b90565b60005b83811061178c5750506000910152565b818101518382015260200161177c565b90601f19601f6020936117ba81518092818752878088019101611779565b0116010190565b600435906001600160a01b038216820361017c57565b9080602083519182815201916020808360051b8301019401926000915b83831061180357505050505090565b909192939460208061182183601f198660019603018752895161179c565b970193019301919392906117f4565b67ffffffffffffffff8111610ab85760051b60200190565b9080601f8301121561017c57813561185f81611830565b9261186d60405194856116f1565b81845260208085019260051b8201019183831161017c5760208201905b83821061189957505050505090565b813567ffffffffffffffff811161017c576020916118bc8784809488010161175b565b81520191019061188a565b80548210156118e3576000526009602060002091020190600090565b634e487b7160e01b600052603260045260246000fd5b90600182811c92168015611929575b602083101461191357565b634e487b7160e01b600052602260045260246000fd5b91607f1691611908565b60009291815491611943836118f9565b8083529260018116908115611999575060011461195f57505050565b60009081526020812093945091925b83831061197f575060209250010190565b60018160209294939454838587010152019101919061196e565b9050602094955060ff1991509291921683830152151560051b010190565b906119c182611830565b6119ce60405191826116f1565b828152601f196119de8294611830565b019060005b8281106119ef57505050565b8060606020809385010152016119e3565b6002548110156118e357600260005260206000200190600090565b80518210156118e35760209160051b010190565b601f8211611a3c57505050565b6000526020600020906020601f840160051c83019310611a77575b601f0160051c01905b818110611a6b575050565b60008155600101611a60565b9091508190611a57565b919091825167ffffffffffffffff8111610ab857611aa981611aa384546118f9565b84611a2f565b6020601f8211600114611add578190611ad9939495600092610a355750506000198260011b9260031b1c19161790565b9055565b601f1982169083600052806000209160005b818110611b2757509583600195969710611b0e575b505050811b019055565b015160001960f88460031b161c19169055388080611b04565b9192602060018192868b015181550194019201611aef565b6001600160a01b03600054163303611b5357565b7f118cdaa7000000000000000000000000000000000000000000000000000000006000523360045260246000fd5b8151919060418303611bb257611bab92506020820151906060604084015193015160001a90611c90565b9192909190565b505060009160029190565b9190916004811015611c7a5780611bd357509050565b600060018203611c07577ff645eedf0000000000000000000000000000000000000000000000000000000060005260046000fd5b5060028103611c3e57827ffce698f70000000000000000000000000000000000000000000000000000000060005260045260246000fd5b9091600360009214611c4e575050565b602492507fd78bce0c000000000000000000000000000000000000000000000000000000008252600452fd5b634e487b7160e01b600052602160045260246000fd5b91907f7fffffffffffffffffffffffffffffff5d576e7357a4501ddfe92f46681b20a08411611d0d579160209360809260ff60009560405194855216868401526040830152606082015282805260015afa15610e8e576000516001600160a01b03811615611d015790600090600090565b50600090600190600090565b5050506000916003919056fea264697066735822122027a0a6cd6ef9e12f68c139b5d8a5ef94a014940122e01406d1a38ef770a9b41164736f6c634300081c0033","opcodes":"PUSH1 0x80 CALLVALUE PUSH2 0xE3 JUMPI PUSH1 0x1F PUSH2 0x1E4E CODESIZE DUP2 SWAP1 SUB SWAP2 DUP3 ADD PUSH1 0x1F NOT AND DUP4 ADD SWAP2 PUSH1 0x1 PUSH1 0x1 PUSH1 0x40 SHL SUB DUP4 GT DUP5 DUP5 LT OR PUSH2 0xE8 JUMPI DUP1 DUP5 SWAP3 PUSH1 0x20 SWAP5 PUSH1 0x40 MSTORE DUP4 CODECOPY DUP2 ADD SUB SLT PUSH2 0xE3 JUMPI MLOAD PUSH1 0x1 PUSH1 0x1 PUSH1 0xA0 SHL SUB DUP2 AND SWAP1 DUP2 SWAP1 SUB PUSH2 0xE3 JUMPI CALLER ISZERO PUSH2 0xCD JUMPI PUSH1 0x0 DUP1 SLOAD CALLER PUSH1 0x1 PUSH1 0x1 PUSH1 0xA0 SHL SUB NOT DUP3 AND DUP2 OR DUP4 SSTORE PUSH1 0x40 MLOAD SWAP4 SWAP3 SWAP1 SWAP2 PUSH1 0x1 PUSH1 0x1 PUSH1 0xA0 SHL SUB AND SWAP1 PUSH32 0x8BE0079C531659141344CD1FD0A4F28419497F9722A3DAAFE3B4186F6B6457E0 SWAP1 DUP1 LOG3 PUSH1 0x5 DUP1 SLOAD PUSH1 0x1 PUSH1 0x1 PUSH1 0xA0 SHL SUB NOT SWAP1 DUP2 AND DUP4 OR SWAP1 SWAP2 SSTORE PUSH1 0x6 DUP1 SLOAD SWAP1 SWAP2 AND SWAP1 SWAP2 OR SWAP1 SSTORE PUSH2 0x1D4F SWAP1 DUP2 PUSH2 0xFF DUP3 CODECOPY RETURN JUMPDEST PUSH4 0x1E4FBDF7 PUSH1 0xE0 SHL PUSH1 0x0 MSTORE PUSH1 0x0 PUSH1 0x4 MSTORE PUSH1 0x24 PUSH1 0x0 REVERT JUMPDEST PUSH1 0x0 DUP1 REVERT JUMPDEST PUSH4 0x4E487B71 PUSH1 0xE0 SHL PUSH1 0x0 MSTORE PUSH1 0x41 PUSH1 0x4 MSTORE PUSH1 0x24 PUSH1 0x0 REVERT INVALID PUSH2 0x140 PUSH1 0x40 MSTORE PUSH1 0x4 CALLDATASIZE LT ISZERO PUSH2 0x13 JUMPI PUSH1 0x0 DUP1 REVERT JUMPDEST PUSH1 0x0 CALLDATALOAD PUSH1 0xE0 SHR DUP1 PUSH4 0x52D9E7E EQ PUSH2 0x168F JUMPI DUP1 PUSH4 0x58344EB EQ PUSH2 0x151A JUMPI DUP1 PUSH4 0x23949CD1 EQ PUSH2 0x1486 JUMPI DUP1 PUSH4 0x4FA691E2 EQ PUSH2 0x13AA JUMPI DUP1 PUSH4 0x51FB012D EQ PUSH2 0x1387 JUMPI DUP1 PUSH4 0x715018A6 EQ PUSH2 0x1321 JUMPI DUP1 PUSH4 0x80D03829 EQ PUSH2 0x1167 JUMPI DUP1 PUSH4 0x8AB1D681 EQ PUSH2 0x10FA JUMPI DUP1 PUSH4 0x8DA5CB5B EQ PUSH2 0x10D3 JUMPI DUP1 PUSH4 0x9B19251A EQ PUSH2 0x1094 JUMPI DUP1 PUSH4 0xA4BF6259 EQ PUSH2 0x3D0 JUMPI DUP1 PUSH4 0xAAE282E1 EQ PUSH2 0x3A9 JUMPI DUP1 PUSH4 0xCCF92A79 EQ PUSH2 0x218 JUMPI DUP1 PUSH4 0xD56D229D EQ PUSH2 0x1F1 JUMPI DUP1 PUSH4 0xE43252D7 EQ PUSH2 0x181 JUMPI PUSH4 0xF2FDE38B EQ PUSH2 0xCD JUMPI PUSH1 0x0 DUP1 REVERT JUMPDEST CALLVALUE PUSH2 0x17C JUMPI PUSH1 0x20 PUSH1 0x3 NOT CALLDATASIZE ADD SLT PUSH2 0x17C JUMPI PUSH1 0x1 PUSH1 0x1 PUSH1 0xA0 SHL SUB PUSH2 0xEE PUSH2 0x17C1 JUMP JUMPDEST PUSH2 0xF6 PUSH2 0x1B3F JUMP JUMPDEST AND DUP1 ISZERO PUSH2 0x14D JUMPI PUSH1 0x1 PUSH1 0x1 PUSH1 0xA0 SHL SUB PUSH1 0x0 SLOAD DUP3 PUSH20 0xFFFFFFFFFFFFFFFFFFFFFFFFFFFFFFFFFFFFFFFF NOT DUP3 AND OR PUSH1 0x0 SSTORE AND PUSH32 0x8BE0079C531659141344CD1FD0A4F28419497F9722A3DAAFE3B4186F6B6457E0 PUSH1 0x0 DUP1 LOG3 STOP JUMPDEST PUSH32 0x1E4FBDF700000000000000000000000000000000000000000000000000000000 PUSH1 0x0 MSTORE PUSH1 0x0 PUSH1 0x4 MSTORE PUSH1 0x24 PUSH1 0x0 REVERT JUMPDEST PUSH1 0x0 DUP1 REVERT JUMPDEST CALLVALUE PUSH2 0x17C JUMPI PUSH1 0x20 PUSH1 0x3 NOT CALLDATASIZE ADD SLT PUSH2 0x17C JUMPI PUSH1 0x1 PUSH1 0x1 PUSH1 0xA0 SHL SUB PUSH2 0x1A2 PUSH2 0x17C1 JUMP JUMPDEST PUSH2 0x1AA PUSH2 0x1B3F JUMP JUMPDEST AND DUP1 PUSH1 0x0 MSTORE PUSH1 0x4 PUSH1 0x20 MSTORE PUSH1 0x40 PUSH1 0x0 KECCAK256 PUSH1 0x1 PUSH1 0xFF NOT DUP3 SLOAD AND OR SWAP1 SSTORE PUSH32 0xF93F9A76C1BF3444D22400A00CB9FE990E6ABE9DBB333FDA48859CFEE864543D PUSH1 0x20 PUSH1 0x40 MLOAD PUSH1 0x1 DUP2 MSTORE LOG2 STOP JUMPDEST CALLVALUE PUSH2 0x17C JUMPI PUSH1 0x0 PUSH1 0x3 NOT CALLDATASIZE ADD SLT PUSH2 0x17C JUMPI PUSH1 0x20 PUSH1 0x1 PUSH1 0x1 PUSH1 0xA0 SHL SUB PUSH1 0x6 SLOAD AND PUSH1 0x40 MLOAD SWAP1 DUP2 MSTORE RETURN JUMPDEST CALLVALUE PUSH2 0x17C JUMPI PUSH1 0x20 PUSH1 0x3 NOT CALLDATASIZE ADD SLT PUSH2 0x17C JUMPI PUSH1 0x4 CALLDATALOAD PUSH8 0xFFFFFFFFFFFFFFFF DUP2 GT PUSH2 0x17C JUMPI PUSH2 0x262 PUSH1 0x20 PUSH2 0x24F PUSH1 0x4 SWAP4 CALLDATASIZE SWAP1 DUP6 ADD PUSH2 0x175B JUMP JUMPDEST DUP2 PUSH1 0x40 MLOAD SWAP4 DUP3 DUP6 DUP1 SWAP5 MLOAD SWAP4 DUP5 SWAP3 ADD PUSH2 0x1779 JUMP JUMPDEST DUP2 ADD PUSH1 0x1 DUP2 MSTORE SUB ADD SWAP1 KECCAK256 ADD DUP1 SLOAD SWAP1 PUSH2 0x279 DUP3 PUSH2 0x19B7 JUMP JUMPDEST SWAP2 PUSH2 0x283 DUP2 PUSH2 0x19B7 JUMP JUMPDEST PUSH2 0x28C DUP3 PUSH2 0x1830 JUMP JUMPDEST SWAP2 PUSH2 0x29A PUSH1 0x40 MLOAD SWAP4 DUP5 PUSH2 0x16F1 JUMP JUMPDEST DUP1 DUP4 MSTORE PUSH2 0x2A6 DUP2 PUSH2 0x1830 JUMP JUMPDEST SWAP4 PUSH1 0x1F NOT PUSH1 0x20 DUP6 ADD SWAP6 ADD CALLDATASIZE DUP7 CALLDATACOPY PUSH1 0x0 JUMPDEST DUP3 DUP2 LT PUSH2 0x325 JUMPI PUSH2 0x2DD DUP8 DUP8 DUP8 PUSH1 0x20 PUSH2 0x2EA DUP10 PUSH1 0x40 MLOAD SWAP7 DUP8 SWAP7 PUSH1 0x60 DUP9 MSTORE PUSH1 0x60 DUP9 ADD SWAP1 PUSH2 0x17D7 JUMP JUMPDEST SWAP1 DUP7 DUP3 SUB DUP5 DUP9 ADD MSTORE PUSH2 0x17D7 JUMP JUMPDEST SWAP2 DUP5 DUP4 SUB PUSH1 0x40 DUP7 ADD MSTORE MLOAD SWAP2 DUP3 DUP2 MSTORE ADD SWAP2 SWAP1 PUSH1 0x0 JUMPDEST DUP2 DUP2 LT PUSH2 0x30C JUMPI POP POP POP SUB SWAP1 RETURN JUMPDEST DUP3 MLOAD DUP5 MSTORE DUP6 SWAP5 POP PUSH1 0x20 SWAP4 DUP5 ADD SWAP4 SWAP1 SWAP3 ADD SWAP2 PUSH1 0x1 ADD PUSH2 0x2FE JUMP JUMPDEST DUP1 PUSH1 0x3 PUSH2 0x34F PUSH2 0x337 PUSH1 0x1 SWAP5 DUP7 PUSH2 0x18C7 JUMP JUMPDEST POP PUSH2 0x348 PUSH1 0x40 MLOAD DUP1 SWAP5 DUP2 SWAP4 ADD PUSH2 0x1933 JUMP JUMPDEST SUB DUP3 PUSH2 0x16F1 JUMP JUMPDEST PUSH2 0x359 DUP3 DUP11 PUSH2 0x1A1B JUMP JUMPDEST MSTORE PUSH2 0x364 DUP2 DUP10 PUSH2 0x1A1B JUMP JUMPDEST POP DUP2 PUSH2 0x373 PUSH2 0x337 DUP4 DUP7 PUSH2 0x18C7 JUMP JUMPDEST PUSH2 0x37D DUP3 DUP8 PUSH2 0x1A1B JUMP JUMPDEST MSTORE PUSH2 0x388 DUP2 DUP7 PUSH2 0x1A1B JUMP JUMPDEST POP PUSH1 0x8 PUSH2 0x395 DUP3 DUP6 PUSH2 0x18C7 JUMP JUMPDEST POP ADD SLOAD PUSH2 0x3A2 DUP3 DUP9 PUSH2 0x1A1B JUMP JUMPDEST MSTORE ADD PUSH2 0x2B6 JUMP JUMPDEST CALLVALUE PUSH2 0x17C JUMPI PUSH1 0x0 PUSH1 0x3 NOT CALLDATASIZE ADD SLT PUSH2 0x17C JUMPI PUSH1 0x20 PUSH1 0x1 PUSH1 0x1 PUSH1 0xA0 SHL SUB PUSH1 0x5 SLOAD AND PUSH1 0x40 MLOAD SWAP1 DUP2 MSTORE RETURN JUMPDEST CALLVALUE PUSH2 0x17C JUMPI PUSH2 0x1E0 PUSH1 0x3 NOT CALLDATASIZE ADD SLT PUSH2 0x17C JUMPI PUSH1 0x4 CALLDATALOAD PUSH8 0xFFFFFFFFFFFFFFFF DUP2 GT PUSH2 0x17C JUMPI PUSH2 0x402 SWAP1 CALLDATASIZE SWAP1 PUSH1 0x4 ADD PUSH2 0x175B JUMP JUMPDEST PUSH2 0x120 MSTORE PUSH1 0x24 CALLDATALOAD PUSH8 0xFFFFFFFFFFFFFFFF DUP2 GT PUSH2 0x17C JUMPI PUSH2 0x426 SWAP1 CALLDATASIZE SWAP1 PUSH1 0x4 ADD PUSH2 0x175B JUMP JUMPDEST PUSH1 0x44 CALLDATALOAD PUSH8 0xFFFFFFFFFFFFFFFF DUP2 GT PUSH2 0x17C JUMPI PUSH2 0x446 SWAP1 CALLDATASIZE SWAP1 PUSH1 0x4 ADD PUSH2 0x175B JUMP JUMPDEST SWAP1 PUSH1 0x64 CALLDATALOAD PUSH8 0xFFFFFFFFFFFFFFFF DUP2 GT PUSH2 0x17C JUMPI PUSH2 0x467 SWAP1 CALLDATASIZE SWAP1 PUSH1 0x4 ADD PUSH2 0x175B JUMP JUMPDEST SWAP1 PUSH1 0xA4 CALLDATALOAD PUSH8 0xFFFFFFFFFFFFFFFF DUP2 GT PUSH2 0x17C JUMPI CALLDATASIZE PUSH1 0x23 DUP3 ADD SLT ISZERO PUSH2 0x17C JUMPI DUP1 PUSH1 0x4 ADD CALLDATALOAD SWAP1 PUSH2 0x4A5 PUSH2 0x497 DUP4 PUSH2 0x1830 JUMP JUMPDEST PUSH1 0x40 MLOAD PUSH1 0xE0 MSTORE PUSH1 0xE0 MLOAD PUSH2 0x16F1 JUMP JUMPDEST PUSH1 0xE0 DUP1 MLOAD DUP4 SWAP1 MSTORE MLOAD PUSH1 0x20 ADD SWAP2 PUSH1 0x5 SHL DUP2 ADD PUSH1 0x24 ADD SWAP1 CALLDATASIZE DUP3 GT PUSH2 0x17C JUMPI PUSH1 0x24 ADD SWAP2 JUMPDEST DUP2 DUP4 LT PUSH2 0x1074 JUMPI POP POP POP PUSH1 0xC4 CALLDATALOAD PUSH8 0xFFFFFFFFFFFFFFFF DUP2 GT PUSH2 0x17C JUMPI PUSH2 0x4F0 SWAP1 CALLDATASIZE SWAP1 PUSH1 0x4 ADD PUSH2 0x1848 JUMP JUMPDEST PUSH2 0x100 MSTORE PUSH1 0xE4 CALLDATALOAD PUSH8 0xFFFFFFFFFFFFFFFF DUP2 GT PUSH2 0x17C JUMPI PUSH2 0x514 SWAP1 CALLDATASIZE SWAP1 PUSH1 0x4 ADD PUSH2 0x1848 JUMP JUMPDEST SWAP1 PUSH2 0x104 CALLDATALOAD PUSH8 0xFFFFFFFFFFFFFFFF DUP2 GT PUSH2 0x17C JUMPI PUSH2 0x536 SWAP1 CALLDATASIZE SWAP1 PUSH1 0x4 ADD PUSH2 0x1848 JUMP JUMPDEST PUSH2 0x124 CALLDATALOAD SWAP5 PUSH8 0xFFFFFFFFFFFFFFFF DUP7 GT PUSH2 0x17C JUMPI CALLDATASIZE PUSH1 0x23 DUP8 ADD SLT ISZERO PUSH2 0x17C JUMPI DUP6 PUSH1 0x4 ADD CALLDATALOAD PUSH2 0x563 DUP2 PUSH2 0x1830 JUMP JUMPDEST SWAP7 PUSH2 0x571 PUSH1 0x40 MLOAD SWAP9 DUP10 PUSH2 0x16F1 JUMP JUMPDEST DUP2 DUP9 MSTORE PUSH1 0x24 PUSH1 0x20 DUP10 ADD SWAP3 PUSH1 0x5 SHL DUP3 ADD ADD SWAP1 CALLDATASIZE DUP3 GT PUSH2 0x17C JUMPI PUSH1 0x24 DUP2 ADD SWAP3 JUMPDEST DUP3 DUP5 LT PUSH2 0x1033 JUMPI POP POP POP POP PUSH2 0x144 CALLDATALOAD PUSH8 0xFFFFFFFFFFFFFFFF DUP2 GT PUSH2 0x17C JUMPI PUSH2 0x5BB SWAP1 CALLDATASIZE SWAP1 PUSH1 0x4 ADD PUSH2 0x175B JUMP JUMPDEST PUSH2 0x164 CALLDATALOAD PUSH8 0xFFFFFFFFFFFFFFFF DUP2 GT PUSH2 0x17C JUMPI PUSH2 0x5DC SWAP1 CALLDATASIZE SWAP1 PUSH1 0x4 ADD PUSH2 0x1848 JUMP JUMPDEST PUSH1 0x80 MSTORE PUSH2 0x184 CALLDATALOAD PUSH8 0xFFFFFFFFFFFFFFFF DUP2 GT PUSH2 0x17C JUMPI PUSH2 0x600 SWAP1 CALLDATASIZE SWAP1 PUSH1 0x4 ADD PUSH2 0x1848 JUMP JUMPDEST PUSH1 0xA0 MSTORE PUSH2 0x1A4 CALLDATALOAD PUSH8 0xFFFFFFFFFFFFFFFF DUP2 GT PUSH2 0x17C JUMPI PUSH2 0x624 SWAP1 CALLDATASIZE SWAP1 PUSH1 0x4 ADD PUSH2 0x1848 JUMP JUMPDEST PUSH1 0xC0 MSTORE PUSH2 0x1C4 CALLDATALOAD PUSH8 0xFFFFFFFFFFFFFFFF DUP2 GT PUSH2 0x17C JUMPI PUSH2 0x648 SWAP1 CALLDATASIZE SWAP1 PUSH1 0x4 ADD PUSH2 0x175B JUMP JUMPDEST PUSH1 0xFF PUSH1 0x3 SLOAD AND PUSH2 0xFD9 JUMPI JUMPDEST PUSH1 0x20 PUSH1 0x0 PUSH1 0x40 MLOAD DUP1 DUP9 MLOAD PUSH2 0x66A DUP2 DUP4 DUP8 DUP14 ADD PUSH2 0x1779 JUMP JUMPDEST DUP2 ADD SUB SWAP1 PUSH1 0x2 GAS STATICCALL ISZERO PUSH2 0xE8E JUMPI PUSH1 0x84 CALLDATALOAD PUSH1 0x0 MLOAD SUB PUSH2 0xF95 JUMPI PUSH1 0xE0 MLOAD MLOAD DUP5 MLOAD DUP2 EQ SWAP1 DUP2 PUSH2 0xF8A JUMPI JUMPDEST DUP2 PUSH2 0xF7F JUMPI JUMPDEST DUP2 PUSH2 0xF72 JUMPI JUMPDEST DUP2 PUSH2 0xF65 JUMPI JUMPDEST DUP2 PUSH2 0xF57 JUMPI JUMPDEST DUP2 PUSH2 0xF4A JUMPI JUMPDEST POP ISZERO PUSH2 0xEE0 JUMPI PUSH1 0x40 MLOAD PUSH2 0x6E6 PUSH2 0x120 MLOAD MLOAD SWAP2 PUSH1 0x20 DUP2 DUP2 PUSH2 0x120 MLOAD ADD SWAP5 PUSH2 0x6D6 DUP2 DUP4 DUP9 PUSH2 0x1779 JUMP JUMPDEST DUP2 ADD PUSH1 0x1 DUP2 MSTORE SUB ADD SWAP1 KECCAK256 SLOAD PUSH2 0x18F9 JUMP JUMPDEST PUSH2 0xE9C JUMPI PUSH2 0x707 PUSH1 0x20 PUSH2 0x718 SWAP3 PUSH1 0x40 MLOAD DUP1 SWAP4 DUP2 SWAP3 PUSH2 0x120 MLOAD MLOAD SWAP3 DUP4 SWAP2 PUSH2 0x1779 JUMP JUMPDEST DUP2 ADD PUSH1 0x1 DUP2 MSTORE SUB ADD SWAP1 KECCAK256 SWAP6 DUP7 PUSH2 0x1A81 JUMP JUMPDEST PUSH2 0x725 DUP4 PUSH1 0x1 DUP8 ADD PUSH2 0x1A81 JUMP JUMPDEST PUSH2 0x732 DUP8 PUSH1 0x2 DUP8 ADD PUSH2 0x1A81 JUMP JUMPDEST PUSH1 0x84 CALLDATALOAD PUSH1 0x3 DUP7 ADD SSTORE PUSH1 0x0 JUMPDEST PUSH1 0xE0 MLOAD MLOAD DUP2 LT ISZERO PUSH2 0xB4E JUMPI PUSH2 0x7AD PUSH2 0x7A4 PUSH1 0x40 MLOAD PUSH1 0x20 DUP2 ADD SWAP1 PUSH32 0x19457468657265756D205369676E6564204D6573736167653A0A333200000000 DUP3 MSTORE PUSH1 0x84 CALLDATALOAD PUSH1 0x3C DUP3 ADD MSTORE PUSH1 0x3C DUP2 MSTORE PUSH2 0x790 PUSH1 0x5C DUP3 PUSH2 0x16F1 JUMP JUMPDEST MLOAD SWAP1 KECCAK256 PUSH2 0x79D DUP5 DUP14 PUSH2 0x1A1B JUMP JUMPDEST MLOAD SWAP1 PUSH2 0x1B81 JUMP JUMPDEST SWAP1 SWAP3 SWAP2 SWAP3 PUSH2 0x1BBD JUMP JUMPDEST PUSH1 0x1 PUSH1 0x1 PUSH1 0xA0 SHL SUB DUP1 PUSH2 0x7C2 DUP5 PUSH1 0xE0 MLOAD PUSH2 0x1A1B JUMP JUMPDEST MLOAD AND SWAP2 AND SUB PUSH2 0xAE4 JUMPI PUSH1 0x1 PUSH1 0x1 PUSH1 0xA0 SHL SUB PUSH2 0x7DF DUP3 PUSH1 0xE0 MLOAD PUSH2 0x1A1B JUMP JUMPDEST MLOAD AND PUSH2 0x7EE DUP3 PUSH2 0x100 MLOAD PUSH2 0x1A1B JUMP JUMPDEST MLOAD SWAP1 DUP11 PUSH2 0x7FB DUP5 DUP12 PUSH2 0x1A1B JUMP JUMPDEST MLOAD PUSH2 0x811 DUP6 PUSH2 0x80A DUP2 DUP13 PUSH2 0x1A1B JUMP JUMPDEST MLOAD SWAP4 PUSH2 0x1A1B JUMP JUMPDEST MLOAD SWAP2 PUSH2 0x81F DUP7 PUSH1 0x80 MLOAD PUSH2 0x1A1B JUMP JUMPDEST MLOAD PUSH2 0x82C DUP8 PUSH1 0xA0 MLOAD PUSH2 0x1A1B JUMP JUMPDEST MLOAD PUSH2 0x839 DUP9 PUSH1 0xC0 MLOAD PUSH2 0x1A1B JUMP JUMPDEST MLOAD SWAP2 PUSH1 0x40 MLOAD SWAP7 PUSH2 0x120 DUP9 ADD DUP9 DUP2 LT PUSH8 0xFFFFFFFFFFFFFFFF DUP3 GT OR PUSH2 0xAB8 JUMPI PUSH1 0x40 MSTORE DUP8 MSTORE PUSH1 0x20 DUP8 ADD SWAP8 DUP9 MSTORE PUSH1 0x40 DUP8 ADD SWAP5 DUP6 MSTORE PUSH1 0x60 DUP8 ADD SWAP4 DUP5 MSTORE PUSH1 0x80 DUP8 ADD SWAP6 DUP7 MSTORE PUSH1 0xA0 DUP8 ADD MSTORE PUSH1 0xC0 DUP7 ADD MSTORE PUSH1 0xE0 DUP6 ADD MSTORE PUSH1 0x0 PUSH2 0x100 DUP6 ADD MSTORE PUSH1 0x4 DUP12 ADD SLOAD PUSH9 0x10000000000000000 DUP2 LT ISZERO PUSH2 0xAB8 JUMPI PUSH1 0x1 DUP2 ADD PUSH1 0x4 DUP14 ADD SWAP1 DUP2 SSTORE PUSH2 0x8BA SWAP2 SWAP1 PUSH2 0x18C7 JUMP JUMPDEST SWAP6 SWAP1 SWAP6 PUSH2 0xACE JUMPI PUSH2 0x911 SWAP3 PUSH2 0x8FD PUSH2 0x907 SWAP3 PUSH1 0x1 PUSH1 0x1 PUSH1 0xA0 SHL SUB DUP9 MLOAD AND PUSH20 0xFFFFFFFFFFFFFFFFFFFFFFFFFFFFFFFFFFFFFFFF NOT DUP11 SLOAD AND OR DUP10 SSTORE MLOAD PUSH1 0x1 DUP10 ADD PUSH2 0x1A81 JUMP JUMPDEST MLOAD PUSH1 0x2 DUP8 ADD PUSH2 0x1A81 JUMP JUMPDEST MLOAD PUSH1 0x3 DUP6 ADD PUSH2 0x1A81 JUMP JUMPDEST MLOAD DUP1 MLOAD SWAP1 PUSH8 0xFFFFFFFFFFFFFFFF DUP3 GT PUSH2 0xAB8 JUMPI PUSH2 0x93E DUP3 PUSH2 0x935 PUSH1 0x4 DUP8 ADD SLOAD PUSH2 0x18F9 JUMP JUMPDEST PUSH1 0x4 DUP8 ADD PUSH2 0x1A2F JUMP JUMPDEST PUSH1 0x20 SWAP1 PUSH1 0x1F DUP4 GT PUSH1 0x1 EQ PUSH2 0xA40 JUMPI SWAP3 PUSH2 0x979 DUP4 PUSH1 0x8 SWAP5 PUSH2 0x100 SWAP5 PUSH1 0x1 SWAP10 SWAP9 SWAP8 PUSH1 0x0 SWAP3 PUSH2 0xA35 JUMPI JUMPDEST POP POP PUSH1 0x0 NOT DUP3 PUSH1 0x1 SHL SWAP3 PUSH1 0x3 SHL SHR NOT AND OR SWAP1 JUMP JUMPDEST PUSH1 0x4 DUP6 ADD SSTORE JUMPDEST PUSH2 0x990 PUSH1 0xA0 DUP3 ADD MLOAD PUSH1 0x5 DUP7 ADD PUSH2 0x1A81 JUMP JUMPDEST PUSH2 0x9A1 PUSH1 0xC0 DUP3 ADD MLOAD PUSH1 0x6 DUP7 ADD PUSH2 0x1A81 JUMP JUMPDEST PUSH2 0x9B2 PUSH1 0xE0 DUP3 ADD MLOAD PUSH1 0x7 DUP7 ADD PUSH2 0x1A81 JUMP JUMPDEST ADD MLOAD SWAP2 ADD SSTORE PUSH32 0xCD3AD31227973607760255DD1B18C731B64DB2A7E40847B3419381BD20253026 PUSH1 0x1 PUSH1 0x1 PUSH1 0xA0 SHL SUB PUSH2 0x9EC DUP4 PUSH1 0xE0 MLOAD PUSH2 0x1A1B JUMP JUMPDEST MLOAD AND PUSH2 0x9FB DUP4 PUSH2 0x100 MLOAD PUSH2 0x1A1B JUMP JUMPDEST MLOAD PUSH2 0xA2C PUSH1 0x40 MLOAD SWAP3 DUP4 SWAP3 PUSH1 0x60 DUP5 MSTORE PUSH2 0xA19 PUSH1 0x60 DUP6 ADD PUSH2 0x120 MLOAD PUSH2 0x179C JUMP JUMPDEST SWAP2 PUSH1 0x20 DUP6 ADD MSTORE DUP4 DUP3 SUB PUSH1 0x40 DUP6 ADD MSTORE PUSH2 0x179C JUMP JUMPDEST SUB SWAP1 LOG1 ADD PUSH2 0x73D JUMP JUMPDEST ADD MLOAD SWAP1 POP CODESIZE DUP1 PUSH2 0x965 JUMP JUMPDEST SWAP1 PUSH1 0x4 DUP6 ADD PUSH1 0x0 MSTORE DUP1 PUSH1 0x0 KECCAK256 SWAP2 PUSH1 0x0 JUMPDEST PUSH1 0x1F NOT DUP6 AND DUP2 LT PUSH2 0xAA0 JUMPI POP DUP4 PUSH2 0x100 SWAP4 PUSH1 0x1 SWAP9 SWAP8 SWAP7 SWAP4 DUP10 SWAP4 DUP4 PUSH1 0x1F NOT PUSH1 0x8 SWAP10 AND LT PUSH2 0xA87 JUMPI JUMPDEST POP POP POP DUP2 SHL ADD PUSH1 0x4 DUP6 ADD SSTORE PUSH2 0x97F JUMP JUMPDEST ADD MLOAD PUSH1 0x0 NOT PUSH1 0xF8 DUP5 PUSH1 0x3 SHL AND SHR NOT AND SWAP1 SSTORE CODESIZE DUP1 DUP1 PUSH2 0xA77 JUMP JUMPDEST SWAP2 SWAP3 PUSH1 0x20 PUSH1 0x1 DUP2 SWAP3 DUP7 DUP6 ADD MLOAD DUP2 SSTORE ADD SWAP5 ADD SWAP3 ADD PUSH2 0xA50 JUMP JUMPDEST PUSH4 0x4E487B71 PUSH1 0xE0 SHL PUSH1 0x0 MSTORE PUSH1 0x41 PUSH1 0x4 MSTORE PUSH1 0x24 PUSH1 0x0 REVERT JUMPDEST PUSH4 0x4E487B71 PUSH1 0xE0 SHL PUSH1 0x0 MSTORE PUSH1 0x0 PUSH1 0x4 MSTORE PUSH1 0x24 PUSH1 0x0 REVERT JUMPDEST PUSH1 0x84 PUSH1 0x40 MLOAD PUSH3 0x461BCD PUSH1 0xE5 SHL DUP2 MSTORE PUSH1 0x20 PUSH1 0x4 DUP3 ADD MSTORE PUSH1 0x21 PUSH1 0x24 DUP3 ADD MSTORE PUSH32 0x496E76616C6964207369676E617475726520666F72207061727469636970616E PUSH1 0x44 DUP3 ADD MSTORE PUSH32 0x7400000000000000000000000000000000000000000000000000000000000000 PUSH1 0x64 DUP3 ADD MSTORE REVERT JUMPDEST POP DUP5 SWAP4 POP DUP7 PUSH1 0x2 SLOAD PUSH9 0x10000000000000000 DUP2 LT ISZERO PUSH2 0xAB8 JUMPI DUP1 PUSH1 0x1 PUSH2 0xB77 SWAP3 ADD PUSH1 0x2 SSTORE PUSH2 0x1A00 JUMP JUMPDEST PUSH2 0xACE JUMPI PUSH2 0x120 MLOAD PUSH2 0xB88 SWAP2 PUSH2 0x1A81 JUMP JUMPDEST PUSH32 0xC281711EC22F64397AEEFC7F5E1E2EC643D510D5467AC6E7EDE885FD3C5B6640 PUSH1 0x40 MLOAD PUSH1 0x40 DUP2 MSTORE DUP1 PUSH2 0xBD2 PUSH2 0xBC4 PUSH1 0x40 DUP4 ADD PUSH2 0x120 MLOAD PUSH2 0x179C JUMP JUMPDEST DUP3 DUP2 SUB PUSH1 0x20 DUP5 ADD MSTORE DUP6 PUSH2 0x179C JUMP JUMPDEST SUB SWAP1 LOG1 PUSH1 0x0 JUMPDEST PUSH1 0x4 DUP7 ADD SLOAD DUP2 LT ISZERO PUSH2 0xE9A JUMPI PUSH1 0x6 SLOAD PUSH1 0x1 PUSH1 0x1 PUSH1 0xA0 SHL SUB AND PUSH2 0xBFD DUP3 PUSH1 0x4 DUP10 ADD PUSH2 0x18C7 JUMP JUMPDEST POP SLOAD PUSH1 0x1 PUSH1 0x1 PUSH1 0xA0 SHL SUB AND SWAP1 PUSH2 0xC16 DUP4 PUSH1 0x4 DUP11 ADD PUSH2 0x18C7 JUMP JUMPDEST POP PUSH2 0xC24 DUP5 PUSH1 0x4 DUP12 ADD PUSH2 0x18C7 JUMP JUMPDEST POP SWAP3 PUSH2 0xC33 DUP6 PUSH1 0x4 DUP13 ADD PUSH2 0x18C7 JUMP JUMPDEST POP DUP11 PUSH2 0xC42 DUP8 PUSH1 0x4 DUP4 ADD PUSH2 0x18C7 JUMP JUMPDEST POP DUP8 PUSH2 0xC51 DUP2 PUSH1 0x4 DUP6 ADD PUSH2 0x18C7 JUMP JUMPDEST POP SWAP3 PUSH1 0x4 ADD SWAP1 PUSH2 0xC60 SWAP2 PUSH2 0x18C7 JUMP JUMPDEST POP SWAP3 PUSH1 0x40 MLOAD SWAP8 DUP9 SWAP7 DUP8 SWAP7 PUSH32 0x1673B45600000000000000000000000000000000000000000000000000000000 DUP9 MSTORE PUSH1 0x4 DUP9 ADD MSTORE PUSH1 0x24 DUP8 ADD PUSH2 0x180 SWAP1 MSTORE PUSH2 0x184 DUP8 ADD PUSH2 0x120 MLOAD SWAP1 PUSH2 0xCAE SWAP2 PUSH2 0x179C JUMP JUMPDEST PUSH1 0x3 NOT DUP9 DUP3 SUB ADD PUSH1 0x44 DUP10 ADD MSTORE PUSH2 0xCC6 SWAP2 PUSH1 0x1 ADD PUSH2 0x1933 JUMP JUMPDEST PUSH1 0x3 NOT DUP8 DUP3 SUB ADD PUSH1 0x64 DUP9 ADD MSTORE PUSH2 0xCDE SWAP2 PUSH1 0x2 ADD PUSH2 0x1933 JUMP JUMPDEST PUSH1 0x3 NOT DUP7 DUP3 SUB ADD PUSH1 0x84 DUP8 ADD MSTORE PUSH2 0xCF6 SWAP2 PUSH1 0x3 ADD PUSH2 0x1933 JUMP JUMPDEST DUP5 DUP2 SUB PUSH1 0x3 NOT ADD PUSH1 0xA4 DUP7 ADD MSTORE PUSH2 0xD0C SWAP1 DUP11 PUSH2 0x179C JUMP JUMPDEST DUP5 DUP2 SUB PUSH1 0x3 NOT ADD PUSH1 0xC4 DUP7 ADD MSTORE PUSH2 0xD22 SWAP1 DUP14 PUSH2 0x179C JUMP JUMPDEST DUP5 DUP2 SUB PUSH1 0x3 NOT ADD PUSH1 0xE4 DUP7 ADD MSTORE PUSH2 0xD38 SWAP1 DUP13 PUSH2 0x179C JUMP JUMPDEST PUSH1 0x3 NOT DUP6 DUP3 SUB ADD PUSH2 0x104 DUP7 ADD MSTORE PUSH2 0xD51 SWAP2 PUSH1 0x5 ADD PUSH2 0x1933 JUMP JUMPDEST PUSH1 0x3 NOT DUP5 DUP3 SUB ADD PUSH2 0x124 DUP6 ADD MSTORE PUSH2 0xD6A SWAP2 PUSH1 0x6 ADD PUSH2 0x1933 JUMP JUMPDEST PUSH1 0x3 NOT DUP4 DUP3 SUB ADD PUSH2 0x144 DUP5 ADD MSTORE PUSH2 0xD83 SWAP2 PUSH1 0x7 ADD PUSH2 0x1933 JUMP JUMPDEST DUP2 DUP2 SUB PUSH1 0x3 NOT ADD PUSH2 0x164 DUP4 ADD MSTORE PUSH2 0xD9A SWAP1 DUP9 PUSH2 0x179C JUMP JUMPDEST SUB DUP2 GAS PUSH1 0x20 SWAP5 PUSH1 0x0 SWAP2 CALL DUP1 ISZERO PUSH2 0xE8E JUMPI DUP8 SWAP2 PUSH1 0x0 SWAP2 PUSH2 0xE55 JUMPI JUMPDEST POP PUSH2 0xE41 DUP3 DUP3 PUSH32 0x11E557EAA1B2425538387041BB8C3928F384CF103634A3F30C7E9D23F049E6AD SWAP4 PUSH1 0x8 PUSH2 0xDEE DUP9 PUSH1 0x4 PUSH1 0x1 SWAP11 SWAP10 ADD PUSH2 0x18C7 JUMP JUMPDEST POP ADD SSTORE PUSH1 0x1 PUSH1 0x1 PUSH1 0xA0 SHL SUB PUSH2 0xE13 DUP7 PUSH1 0x4 PUSH2 0xE0B DUP3 DUP3 DUP9 ADD PUSH2 0x18C7 JUMP JUMPDEST POP SWAP6 ADD PUSH2 0x18C7 JUMP JUMPDEST POP SLOAD AND SWAP1 PUSH1 0x40 MLOAD SWAP4 DUP5 SWAP4 PUSH1 0x80 DUP6 MSTORE DUP9 PUSH2 0xE32 PUSH1 0x80 DUP8 ADD PUSH2 0x120 MLOAD PUSH2 0x179C JUMP JUMPDEST SWAP2 DUP7 DUP4 SUB PUSH1 0x20 DUP9 ADD MSTORE ADD PUSH2 0x1933 JUMP JUMPDEST SWAP2 PUSH1 0x40 DUP5 ADD MSTORE PUSH1 0x60 DUP4 ADD MSTORE SUB SWAP1 LOG1 ADD PUSH2 0xBD8 JUMP JUMPDEST SWAP2 POP PUSH1 0x20 DUP3 RETURNDATASIZE DUP3 GT PUSH2 0xE86 JUMPI JUMPDEST DUP2 PUSH2 0xE6F PUSH1 0x20 SWAP4 DUP4 PUSH2 0x16F1 JUMP JUMPDEST DUP2 ADD SUB SLT PUSH2 0xE83 JUMPI POP MLOAD DUP7 SWAP1 PUSH2 0xE41 PUSH2 0xDB4 JUMP JUMPDEST DUP1 REVERT JUMPDEST RETURNDATASIZE SWAP2 POP PUSH2 0xE62 JUMP JUMPDEST PUSH1 0x40 MLOAD RETURNDATASIZE PUSH1 0x0 DUP3 RETURNDATACOPY RETURNDATASIZE SWAP1 REVERT JUMPDEST STOP JUMPDEST PUSH1 0x64 PUSH1 0x40 MLOAD PUSH3 0x461BCD PUSH1 0xE5 SHL DUP2 MSTORE PUSH1 0x20 PUSH1 0x4 DUP3 ADD MSTORE PUSH1 0x1A PUSH1 0x24 DUP3 ADD MSTORE PUSH32 0x50726F6A65637420616C72656164792072656769737465726564000000000000 PUSH1 0x44 DUP3 ADD MSTORE REVERT JUMPDEST PUSH1 0x84 PUSH1 0x40 MLOAD PUSH3 0x461BCD PUSH1 0xE5 SHL DUP2 MSTORE PUSH1 0x20 PUSH1 0x4 DUP3 ADD MSTORE PUSH1 0x2D PUSH1 0x24 DUP3 ADD MSTORE PUSH32 0x5061727469636970616E747320617272617973206D7573742068617665207468 PUSH1 0x44 DUP3 ADD MSTORE PUSH32 0x652073616D65206C656E67746800000000000000000000000000000000000000 PUSH1 0x64 DUP3 ADD MSTORE REVERT JUMPDEST SWAP1 POP PUSH1 0xC0 MLOAD MLOAD EQ DUP10 PUSH2 0x6AF JUMP JUMPDEST PUSH2 0x100 MLOAD MLOAD DUP2 EQ SWAP2 POP PUSH2 0x6A9 JUMP JUMPDEST PUSH1 0xA0 MLOAD MLOAD DUP2 EQ SWAP2 POP PUSH2 0x6A3 JUMP JUMPDEST PUSH1 0x80 MLOAD MLOAD DUP2 EQ SWAP2 POP PUSH2 0x69D JUMP JUMPDEST DUP10 MLOAD DUP2 EQ SWAP2 POP PUSH2 0x697 JUMP JUMPDEST DUP8 MLOAD DUP2 EQ SWAP2 POP PUSH2 0x691 JUMP JUMPDEST PUSH1 0x64 PUSH1 0x40 MLOAD PUSH3 0x461BCD PUSH1 0xE5 SHL DUP2 MSTORE PUSH1 0x20 PUSH1 0x4 DUP3 ADD MSTORE PUSH1 0x15 PUSH1 0x24 DUP3 ADD MSTORE PUSH32 0x50726F6A6563742068617368206D69736D617463680000000000000000000000 PUSH1 0x44 DUP3 ADD MSTORE REVERT JUMPDEST CALLER PUSH1 0x0 MSTORE PUSH1 0x4 PUSH1 0x20 MSTORE PUSH1 0xFF PUSH1 0x40 PUSH1 0x0 KECCAK256 SLOAD AND PUSH2 0x653 JUMPI PUSH1 0x64 PUSH1 0x40 MLOAD PUSH3 0x461BCD PUSH1 0xE5 SHL DUP2 MSTORE PUSH1 0x20 PUSH1 0x4 DUP3 ADD MSTORE PUSH1 0x16 PUSH1 0x24 DUP3 ADD MSTORE PUSH32 0x53656E646572206E6F742077686974656C697374656400000000000000000000 PUSH1 0x44 DUP3 ADD MSTORE REVERT JUMPDEST DUP4 CALLDATALOAD PUSH8 0xFFFFFFFFFFFFFFFF DUP2 GT PUSH2 0x17C JUMPI DUP3 ADD CALLDATASIZE PUSH1 0x43 DUP3 ADD SLT ISZERO PUSH2 0x17C JUMPI PUSH1 0x20 SWAP2 PUSH2 0x1069 DUP4 SWAP3 CALLDATASIZE SWAP1 PUSH1 0x44 PUSH1 0x24 DUP3 ADD CALLDATALOAD SWAP2 ADD PUSH2 0x1714 JUMP JUMPDEST DUP2 MSTORE ADD SWAP4 ADD SWAP3 PUSH2 0x58F JUMP JUMPDEST DUP3 CALLDATALOAD PUSH1 0x1 PUSH1 0x1 PUSH1 0xA0 SHL SUB DUP2 AND DUP2 SUB PUSH2 0x17C JUMPI DUP2 MSTORE PUSH1 0x20 SWAP3 DUP4 ADD SWAP3 ADD PUSH2 0x4C6 JUMP JUMPDEST CALLVALUE PUSH2 0x17C JUMPI PUSH1 0x20 PUSH1 0x3 NOT CALLDATASIZE ADD SLT PUSH2 0x17C JUMPI PUSH1 0x1 PUSH1 0x1 PUSH1 0xA0 SHL SUB PUSH2 0x10B5 PUSH2 0x17C1 JUMP JUMPDEST AND PUSH1 0x0 MSTORE PUSH1 0x4 PUSH1 0x20 MSTORE PUSH1 0x20 PUSH1 0xFF PUSH1 0x40 PUSH1 0x0 KECCAK256 SLOAD AND PUSH1 0x40 MLOAD SWAP1 ISZERO ISZERO DUP2 MSTORE RETURN JUMPDEST CALLVALUE PUSH2 0x17C JUMPI PUSH1 0x0 PUSH1 0x3 NOT CALLDATASIZE ADD SLT PUSH2 0x17C JUMPI PUSH1 0x20 PUSH1 0x1 PUSH1 0x1 PUSH1 0xA0 SHL SUB PUSH1 0x0 SLOAD AND PUSH1 0x40 MLOAD SWAP1 DUP2 MSTORE RETURN JUMPDEST CALLVALUE PUSH2 0x17C JUMPI PUSH1 0x20 PUSH1 0x3 NOT CALLDATASIZE ADD SLT PUSH2 0x17C JUMPI PUSH1 0x1 PUSH1 0x1 PUSH1 0xA0 SHL SUB PUSH2 0x111B PUSH2 0x17C1 JUMP JUMPDEST PUSH2 0x1123 PUSH2 0x1B3F JUMP JUMPDEST AND DUP1 PUSH1 0x0 MSTORE PUSH1 0x4 PUSH1 0x20 MSTORE PUSH1 0x40 PUSH1 0x0 KECCAK256 PUSH1 0xFF NOT DUP2 SLOAD AND SWAP1 SSTORE PUSH32 0xF93F9A76C1BF3444D22400A00CB9FE990E6ABE9DBB333FDA48859CFEE864543D PUSH1 0x20 PUSH1 0x40 MLOAD PUSH1 0x0 DUP2 MSTORE LOG2 STOP JUMPDEST CALLVALUE PUSH2 0x17C JUMPI PUSH1 0x0 PUSH1 0x3 NOT CALLDATASIZE ADD SLT PUSH2 0x17C JUMPI PUSH1 0x2 SLOAD PUSH2 0x1184 DUP2 PUSH2 0x19B7 JUMP JUMPDEST PUSH2 0x118D DUP3 PUSH2 0x19B7 JUMP JUMPDEST PUSH2 0x1196 DUP4 PUSH2 0x19B7 JUMP JUMPDEST SWAP1 PUSH2 0x11A0 DUP5 PUSH2 0x19B7 JUMP JUMPDEST SWAP4 PUSH1 0x0 JUMPDEST DUP2 DUP2 LT PUSH2 0x11FD JUMPI PUSH2 0x11CF DUP6 PUSH2 0x11F9 DUP9 PUSH2 0x11EB DUP9 PUSH2 0x11DD DUP10 PUSH1 0x40 MLOAD SWAP8 DUP9 SWAP8 PUSH1 0x80 DUP10 MSTORE PUSH1 0x80 DUP10 ADD SWAP1 PUSH2 0x17D7 JUMP JUMPDEST SWAP1 DUP8 DUP3 SUB PUSH1 0x20 DUP10 ADD MSTORE PUSH2 0x17D7 JUMP JUMPDEST SWAP1 DUP6 DUP3 SUB PUSH1 0x40 DUP8 ADD MSTORE PUSH2 0x17D7 JUMP JUMPDEST SWAP1 DUP4 DUP3 SUB PUSH1 0x60 DUP6 ADD MSTORE PUSH2 0x17D7 JUMP JUMPDEST SUB SWAP1 RETURN JUMPDEST PUSH2 0x1206 DUP2 PUSH2 0x1A00 JUMP JUMPDEST POP PUSH1 0x40 MLOAD PUSH1 0x0 DUP3 SLOAD PUSH2 0x1217 DUP2 PUSH2 0x18F9 JUMP JUMPDEST SWAP1 PUSH1 0x1 DUP2 AND SWAP1 DUP2 ISZERO PUSH2 0x130B JUMPI POP PUSH1 0x1 EQ PUSH2 0x12D6 JUMPI JUMPDEST POP PUSH1 0x1 SWAP4 SWAP3 PUSH2 0x348 PUSH2 0x1255 DUP5 PUSH1 0x20 PUSH1 0x2 SWAP7 DUP7 DUP11 PUSH2 0x12BA SWAP9 MSTORE SUB ADD SWAP1 KECCAK256 SWAP3 PUSH1 0x40 MLOAD SWAP3 DUP4 DUP1 SWAP3 PUSH2 0x1933 JUMP JUMPDEST PUSH2 0x125F DUP6 DUP12 PUSH2 0x1A1B JUMP JUMPDEST MSTORE PUSH2 0x126A DUP5 DUP11 PUSH2 0x1A1B JUMP JUMPDEST POP PUSH1 0x40 MLOAD PUSH2 0x127C DUP2 PUSH2 0x348 DUP2 DUP6 PUSH2 0x1933 JUMP JUMPDEST PUSH2 0x1286 DUP6 DUP10 PUSH2 0x1A1B JUMP JUMPDEST MSTORE PUSH2 0x1291 DUP5 DUP9 PUSH2 0x1A1B JUMP JUMPDEST POP PUSH1 0x40 MLOAD PUSH2 0x12A5 DUP2 PUSH2 0x348 DUP2 DUP10 DUP7 ADD PUSH2 0x1933 JUMP JUMPDEST PUSH2 0x12AF DUP6 DUP11 PUSH2 0x1A1B JUMP JUMPDEST MSTORE PUSH2 0x337 DUP5 DUP10 PUSH2 0x1A1B JUMP JUMPDEST PUSH2 0x12C4 DUP3 DUP10 PUSH2 0x1A1B JUMP JUMPDEST MSTORE PUSH2 0x12CF DUP2 DUP9 PUSH2 0x1A1B JUMP JUMPDEST POP ADD PUSH2 0x11A4 JUMP JUMPDEST SWAP1 POP DUP3 PUSH1 0x0 MSTORE PUSH1 0x20 PUSH1 0x0 KECCAK256 PUSH1 0x0 SWAP1 JUMPDEST DUP3 DUP3 LT PUSH2 0x12F7 JUMPI POP POP DUP2 ADD PUSH1 0x1 PUSH2 0x122C JUMP JUMPDEST PUSH1 0x1 DUP2 PUSH1 0x20 SWAP3 SLOAD DUP5 DUP8 ADD MSTORE ADD SWAP2 ADD SWAP1 PUSH2 0x12E5 JUMP JUMPDEST PUSH1 0xFF NOT AND DUP5 MSTORE POP DUP1 ISZERO ISZERO MUL DUP3 ADD SWAP1 POP PUSH1 0x1 PUSH2 0x122C JUMP JUMPDEST CALLVALUE PUSH2 0x17C JUMPI PUSH1 0x0 PUSH1 0x3 NOT CALLDATASIZE ADD SLT PUSH2 0x17C JUMPI PUSH2 0x133A PUSH2 0x1B3F JUMP JUMPDEST PUSH1 0x0 PUSH1 0x1 PUSH1 0x1 PUSH1 0xA0 SHL SUB DUP2 SLOAD PUSH20 0xFFFFFFFFFFFFFFFFFFFFFFFFFFFFFFFFFFFFFFFF NOT DUP2 AND DUP4 SSTORE AND PUSH32 0x8BE0079C531659141344CD1FD0A4F28419497F9722A3DAAFE3B4186F6B6457E0 DUP3 DUP1 LOG3 STOP JUMPDEST CALLVALUE PUSH2 0x17C JUMPI PUSH1 0x0 PUSH1 0x3 NOT CALLDATASIZE ADD SLT PUSH2 0x17C JUMPI PUSH1 0x20 PUSH1 0xFF PUSH1 0x3 SLOAD AND PUSH1 0x40 MLOAD SWAP1 ISZERO ISZERO DUP2 MSTORE RETURN JUMPDEST CALLVALUE PUSH2 0x17C JUMPI PUSH1 0x20 PUSH1 0x3 NOT CALLDATASIZE ADD SLT PUSH2 0x17C JUMPI PUSH1 0x4 CALLDATALOAD PUSH8 0xFFFFFFFFFFFFFFFF DUP2 GT PUSH2 0x17C JUMPI PUSH2 0x13E3 PUSH1 0x20 PUSH2 0x24F PUSH2 0x145B SWAP4 CALLDATASIZE SWAP1 PUSH1 0x4 ADD PUSH2 0x175B JUMP JUMPDEST DUP2 ADD PUSH1 0x1 DUP2 MSTORE SUB ADD SWAP1 KECCAK256 PUSH1 0x3 DUP2 ADD SLOAD PUSH1 0x4 DUP3 ADD SLOAD PUSH2 0x1477 PUSH1 0x2 PUSH2 0x1469 PUSH1 0x40 MLOAD SWAP6 PUSH2 0x1418 DUP8 PUSH2 0x1411 DUP2 DUP5 PUSH2 0x1933 JUMP JUMPDEST SUB DUP9 PUSH2 0x16F1 JUMP JUMPDEST PUSH2 0x1447 PUSH1 0x40 MLOAD SWAP2 PUSH2 0x1437 DUP4 PUSH2 0x1430 DUP2 PUSH1 0x1 DUP6 ADD PUSH2 0x1933 JUMP JUMPDEST SUB DUP5 PUSH2 0x16F1 JUMP JUMPDEST PUSH2 0x1430 PUSH1 0x40 MLOAD DUP1 SWAP7 DUP2 SWAP4 ADD PUSH2 0x1933 JUMP JUMPDEST PUSH1 0x40 MLOAD SWAP8 DUP9 SWAP8 PUSH1 0xA0 DUP10 MSTORE PUSH1 0xA0 DUP10 ADD SWAP1 PUSH2 0x179C JUMP JUMPDEST SWAP1 DUP8 DUP3 SUB PUSH1 0x20 DUP10 ADD MSTORE PUSH2 0x179C JUMP JUMPDEST SWAP1 DUP6 DUP3 SUB PUSH1 0x40 DUP8 ADD MSTORE PUSH2 0x179C JUMP JUMPDEST SWAP2 PUSH1 0x60 DUP5 ADD MSTORE PUSH1 0x80 DUP4 ADD MSTORE SUB SWAP1 RETURN JUMPDEST CALLVALUE PUSH2 0x17C JUMPI PUSH1 0x20 PUSH1 0x3 NOT CALLDATASIZE ADD SLT PUSH2 0x17C JUMPI PUSH32 0x1FB36FD0459B3471FD5CE49752DA7ECA0FAB368C700543FD883CD67490B12A1C PUSH1 0x20 PUSH1 0x1 PUSH1 0x1 PUSH1 0xA0 SHL SUB PUSH2 0x14CA PUSH2 0x17C1 JUMP JUMPDEST PUSH2 0x14D2 PUSH2 0x1B3F JUMP JUMPDEST AND DUP1 PUSH20 0xFFFFFFFFFFFFFFFFFFFFFFFFFFFFFFFFFFFFFFFF NOT PUSH1 0x5 SLOAD AND OR PUSH1 0x5 SSTORE DUP1 PUSH20 0xFFFFFFFFFFFFFFFFFFFFFFFFFFFFFFFFFFFFFFFF NOT PUSH1 0x6 SLOAD AND OR PUSH1 0x6 SSTORE PUSH1 0x40 MLOAD SWAP1 DUP2 MSTORE LOG1 STOP JUMPDEST CALLVALUE PUSH2 0x17C JUMPI PUSH1 0x40 PUSH1 0x3 NOT CALLDATASIZE ADD SLT PUSH2 0x17C JUMPI PUSH1 0x4 CALLDATALOAD PUSH8 0xFFFFFFFFFFFFFFFF DUP2 GT PUSH2 0x17C JUMPI PUSH2 0x154B SWAP1 CALLDATASIZE SWAP1 PUSH1 0x4 ADD PUSH2 0x175B JUMP JUMPDEST PUSH1 0x4 PUSH2 0x1569 PUSH1 0x20 PUSH1 0x24 CALLDATALOAD SWAP4 DUP2 PUSH1 0x40 MLOAD SWAP4 DUP3 DUP6 DUP1 SWAP5 MLOAD SWAP4 DUP5 SWAP3 ADD PUSH2 0x1779 JUMP JUMPDEST DUP2 ADD PUSH1 0x1 DUP2 MSTORE SUB ADD SWAP1 KECCAK256 ADD SWAP1 DUP2 SLOAD DUP2 LT ISZERO PUSH2 0x164B JUMPI PUSH2 0x1587 SWAP2 PUSH2 0x18C7 JUMP JUMPDEST POP PUSH1 0x1 PUSH1 0x1 PUSH1 0xA0 SHL SUB DUP2 SLOAD AND PUSH1 0x8 DUP3 ADD SLOAD PUSH2 0x1641 PUSH1 0x4 PUSH2 0x1633 PUSH1 0x40 MLOAD SWAP6 PUSH2 0x15B5 DUP8 PUSH2 0x1411 DUP2 PUSH1 0x1 DUP6 ADD PUSH2 0x1933 JUMP JUMPDEST PUSH2 0x1625 PUSH1 0x40 MLOAD PUSH2 0x15CC DUP2 PUSH2 0x348 DUP2 PUSH1 0x2 DUP8 ADD PUSH2 0x1933 JUMP JUMPDEST PUSH2 0x15FB PUSH1 0x40 MLOAD SWAP4 PUSH2 0x15EB DUP6 PUSH2 0x15E4 DUP2 PUSH1 0x3 DUP6 ADD PUSH2 0x1933 JUMP JUMPDEST SUB DUP7 PUSH2 0x16F1 JUMP JUMPDEST PUSH2 0x15E4 PUSH1 0x40 MLOAD DUP1 SWAP9 DUP2 SWAP4 ADD PUSH2 0x1933 JUMP JUMPDEST PUSH2 0x1617 PUSH1 0x40 MLOAD SWAP10 DUP11 SWAP10 DUP11 MSTORE PUSH1 0xC0 PUSH1 0x20 DUP12 ADD MSTORE PUSH1 0xC0 DUP11 ADD SWAP1 PUSH2 0x179C JUMP JUMPDEST SWAP1 DUP9 DUP3 SUB PUSH1 0x40 DUP11 ADD MSTORE PUSH2 0x179C JUMP JUMPDEST SWAP1 DUP7 DUP3 SUB PUSH1 0x60 DUP9 ADD MSTORE PUSH2 0x179C JUMP JUMPDEST SWAP1 DUP5 DUP3 SUB PUSH1 0x80 DUP7 ADD MSTORE PUSH2 0x179C JUMP JUMPDEST SWAP1 PUSH1 0xA0 DUP4 ADD MSTORE SUB SWAP1 RETURN JUMPDEST PUSH1 0x64 PUSH1 0x40 MLOAD PUSH3 0x461BCD PUSH1 0xE5 SHL DUP2 MSTORE PUSH1 0x20 PUSH1 0x4 DUP3 ADD MSTORE PUSH1 0x1F PUSH1 0x24 DUP3 ADD MSTORE PUSH32 0x5061727469636970616E7420696E646578206F7574206F6620626F756E647300 PUSH1 0x44 DUP3 ADD MSTORE REVERT JUMPDEST CALLVALUE PUSH2 0x17C JUMPI PUSH1 0x20 PUSH1 0x3 NOT CALLDATASIZE ADD SLT PUSH2 0x17C JUMPI PUSH1 0x4 CALLDATALOAD DUP1 ISZERO ISZERO DUP1 SWAP2 SUB PUSH2 0x17C JUMPI PUSH1 0x20 PUSH32 0x1CF28B997975C7BE355BCEF74F2F5019AA48253BC1E54B3C8B002471865FDBA8 SWAP2 PUSH2 0x16D9 PUSH2 0x1B3F JUMP JUMPDEST PUSH1 0xFF NOT PUSH1 0x3 SLOAD AND PUSH1 0xFF DUP3 AND OR PUSH1 0x3 SSTORE PUSH1 0x40 MLOAD SWAP1 DUP2 MSTORE LOG1 STOP JUMPDEST SWAP1 PUSH1 0x1F PUSH1 0x1F NOT SWAP2 ADD AND DUP2 ADD SWAP1 DUP2 LT PUSH8 0xFFFFFFFFFFFFFFFF DUP3 GT OR PUSH2 0xAB8 JUMPI PUSH1 0x40 MSTORE JUMP JUMPDEST SWAP3 SWAP2 SWAP3 PUSH8 0xFFFFFFFFFFFFFFFF DUP3 GT PUSH2 0xAB8 JUMPI PUSH1 0x40 MLOAD SWAP2 PUSH2 0x173E PUSH1 0x1F DUP3 ADD PUSH1 0x1F NOT AND PUSH1 0x20 ADD DUP5 PUSH2 0x16F1 JUMP JUMPDEST DUP3 SWAP5 DUP2 DUP5 MSTORE DUP2 DUP4 ADD GT PUSH2 0x17C JUMPI DUP3 DUP2 PUSH1 0x20 SWAP4 DUP5 PUSH1 0x0 SWAP7 ADD CALLDATACOPY ADD ADD MSTORE JUMP JUMPDEST SWAP1 DUP1 PUSH1 0x1F DUP4 ADD SLT ISZERO PUSH2 0x17C JUMPI DUP2 PUSH1 0x20 PUSH2 0x1776 SWAP4 CALLDATALOAD SWAP2 ADD PUSH2 0x1714 JUMP JUMPDEST SWAP1 JUMP JUMPDEST PUSH1 0x0 JUMPDEST DUP4 DUP2 LT PUSH2 0x178C JUMPI POP POP PUSH1 0x0 SWAP2 ADD MSTORE JUMP JUMPDEST DUP2 DUP2 ADD MLOAD DUP4 DUP3 ADD MSTORE PUSH1 0x20 ADD PUSH2 0x177C JUMP JUMPDEST SWAP1 PUSH1 0x1F NOT PUSH1 0x1F PUSH1 0x20 SWAP4 PUSH2 0x17BA DUP2 MLOAD DUP1 SWAP3 DUP2 DUP8 MSTORE DUP8 DUP1 DUP9 ADD SWAP2 ADD PUSH2 0x1779 JUMP JUMPDEST ADD AND ADD ADD SWAP1 JUMP JUMPDEST PUSH1 0x4 CALLDATALOAD SWAP1 PUSH1 0x1 PUSH1 0x1 PUSH1 0xA0 SHL SUB DUP3 AND DUP3 SUB PUSH2 0x17C JUMPI JUMP JUMPDEST SWAP1 DUP1 PUSH1 0x20 DUP4 MLOAD SWAP2 DUP3 DUP2 MSTORE ADD SWAP2 PUSH1 0x20 DUP1 DUP4 PUSH1 0x5 SHL DUP4 ADD ADD SWAP5 ADD SWAP3 PUSH1 0x0 SWAP2 JUMPDEST DUP4 DUP4 LT PUSH2 0x1803 JUMPI POP POP POP POP POP SWAP1 JUMP JUMPDEST SWAP1 SWAP2 SWAP3 SWAP4 SWAP5 PUSH1 0x20 DUP1 PUSH2 0x1821 DUP4 PUSH1 0x1F NOT DUP7 PUSH1 0x1 SWAP7 SUB ADD DUP8 MSTORE DUP10 MLOAD PUSH2 0x179C JUMP JUMPDEST SWAP8 ADD SWAP4 ADD SWAP4 ADD SWAP2 SWAP4 SWAP3 SWAP1 PUSH2 0x17F4 JUMP JUMPDEST PUSH8 0xFFFFFFFFFFFFFFFF DUP2 GT PUSH2 0xAB8 JUMPI PUSH1 0x5 SHL PUSH1 0x20 ADD SWAP1 JUMP JUMPDEST SWAP1 DUP1 PUSH1 0x1F DUP4 ADD SLT ISZERO PUSH2 0x17C JUMPI DUP2 CALLDATALOAD PUSH2 0x185F DUP2 PUSH2 0x1830 JUMP JUMPDEST SWAP3 PUSH2 0x186D PUSH1 0x40 MLOAD SWAP5 DUP6 PUSH2 0x16F1 JUMP JUMPDEST DUP2 DUP5 MSTORE PUSH1 0x20 DUP1 DUP6 ADD SWAP3 PUSH1 0x5 SHL DUP3 ADD ADD SWAP2 DUP4 DUP4 GT PUSH2 0x17C JUMPI PUSH1 0x20 DUP3 ADD SWAP1 JUMPDEST DUP4 DUP3 LT PUSH2 0x1899 JUMPI POP POP POP POP POP SWAP1 JUMP JUMPDEST DUP2 CALLDATALOAD PUSH8 0xFFFFFFFFFFFFFFFF DUP2 GT PUSH2 0x17C JUMPI PUSH1 0x20 SWAP2 PUSH2 0x18BC DUP8 DUP5 DUP1 SWAP5 DUP9 ADD ADD PUSH2 0x175B JUMP JUMPDEST DUP2 MSTORE ADD SWAP2 ADD SWAP1 PUSH2 0x188A JUMP JUMPDEST DUP1 SLOAD DUP3 LT ISZERO PUSH2 0x18E3 JUMPI PUSH1 0x0 MSTORE PUSH1 0x9 PUSH1 0x20 PUSH1 0x0 KECCAK256 SWAP2 MUL ADD SWAP1 PUSH1 0x0 SWAP1 JUMP JUMPDEST PUSH4 0x4E487B71 PUSH1 0xE0 SHL PUSH1 0x0 MSTORE PUSH1 0x32 PUSH1 0x4 MSTORE PUSH1 0x24 PUSH1 0x0 REVERT JUMPDEST SWAP1 PUSH1 0x1 DUP3 DUP2 SHR SWAP3 AND DUP1 ISZERO PUSH2 0x1929 JUMPI JUMPDEST PUSH1 0x20 DUP4 LT EQ PUSH2 0x1913 JUMPI JUMP JUMPDEST PUSH4 0x4E487B71 PUSH1 0xE0 SHL PUSH1 0x0 MSTORE PUSH1 0x22 PUSH1 0x4 MSTORE PUSH1 0x24 PUSH1 0x0 REVERT JUMPDEST SWAP2 PUSH1 0x7F AND SWAP2 PUSH2 0x1908 JUMP JUMPDEST PUSH1 0x0 SWAP3 SWAP2 DUP2 SLOAD SWAP2 PUSH2 0x1943 DUP4 PUSH2 0x18F9 JUMP JUMPDEST DUP1 DUP4 MSTORE SWAP3 PUSH1 0x1 DUP2 AND SWAP1 DUP2 ISZERO PUSH2 0x1999 JUMPI POP PUSH1 0x1 EQ PUSH2 0x195F JUMPI POP POP POP JUMP JUMPDEST PUSH1 0x0 SWAP1 DUP2 MSTORE PUSH1 0x20 DUP2 KECCAK256 SWAP4 SWAP5 POP SWAP2 SWAP3 JUMPDEST DUP4 DUP4 LT PUSH2 0x197F JUMPI POP PUSH1 0x20 SWAP3 POP ADD ADD SWAP1 JUMP JUMPDEST PUSH1 0x1 DUP2 PUSH1 0x20 SWAP3 SWAP5 SWAP4 SWAP5 SLOAD DUP4 DUP6 DUP8 ADD ADD MSTORE ADD SWAP2 ADD SWAP2 SWAP1 PUSH2 0x196E JUMP JUMPDEST SWAP1 POP PUSH1 0x20 SWAP5 SWAP6 POP PUSH1 0xFF NOT SWAP2 POP SWAP3 SWAP2 SWAP3 AND DUP4 DUP4 ADD MSTORE ISZERO ISZERO PUSH1 0x5 SHL ADD ADD SWAP1 JUMP JUMPDEST SWAP1 PUSH2 0x19C1 DUP3 PUSH2 0x1830 JUMP JUMPDEST PUSH2 0x19CE PUSH1 0x40 MLOAD SWAP2 DUP3 PUSH2 0x16F1 JUMP JUMPDEST DUP3 DUP2 MSTORE PUSH1 0x1F NOT PUSH2 0x19DE DUP3 SWAP5 PUSH2 0x1830 JUMP JUMPDEST ADD SWAP1 PUSH1 0x0 JUMPDEST DUP3 DUP2 LT PUSH2 0x19EF JUMPI POP POP POP JUMP JUMPDEST DUP1 PUSH1 0x60 PUSH1 0x20 DUP1 SWAP4 DUP6 ADD ADD MSTORE ADD PUSH2 0x19E3 JUMP JUMPDEST PUSH1 0x2 SLOAD DUP2 LT ISZERO PUSH2 0x18E3 JUMPI PUSH1 0x2 PUSH1 0x0 MSTORE PUSH1 0x20 PUSH1 0x0 KECCAK256 ADD SWAP1 PUSH1 0x0 SWAP1 JUMP JUMPDEST DUP1 MLOAD DUP3 LT ISZERO PUSH2 0x18E3 JUMPI PUSH1 0x20 SWAP2 PUSH1 0x5 SHL ADD ADD SWAP1 JUMP JUMPDEST PUSH1 0x1F DUP3 GT PUSH2 0x1A3C JUMPI POP POP POP JUMP JUMPDEST PUSH1 0x0 MSTORE PUSH1 0x20 PUSH1 0x0 KECCAK256 SWAP1 PUSH1 0x20 PUSH1 0x1F DUP5 ADD PUSH1 0x5 SHR DUP4 ADD SWAP4 LT PUSH2 0x1A77 JUMPI JUMPDEST PUSH1 0x1F ADD PUSH1 0x5 SHR ADD SWAP1 JUMPDEST DUP2 DUP2 LT PUSH2 0x1A6B JUMPI POP POP JUMP JUMPDEST PUSH1 0x0 DUP2 SSTORE PUSH1 0x1 ADD PUSH2 0x1A60 JUMP JUMPDEST SWAP1 SWAP2 POP DUP2 SWAP1 PUSH2 0x1A57 JUMP JUMPDEST SWAP2 SWAP1 SWAP2 DUP3 MLOAD PUSH8 0xFFFFFFFFFFFFFFFF DUP2 GT PUSH2 0xAB8 JUMPI PUSH2 0x1AA9 DUP2 PUSH2 0x1AA3 DUP5 SLOAD PUSH2 0x18F9 JUMP JUMPDEST DUP5 PUSH2 0x1A2F JUMP JUMPDEST PUSH1 0x20 PUSH1 0x1F DUP3 GT PUSH1 0x1 EQ PUSH2 0x1ADD JUMPI DUP2 SWAP1 PUSH2 0x1AD9 SWAP4 SWAP5 SWAP6 PUSH1 0x0 SWAP3 PUSH2 0xA35 JUMPI POP POP PUSH1 0x0 NOT DUP3 PUSH1 0x1 SHL SWAP3 PUSH1 0x3 SHL SHR NOT AND OR SWAP1 JUMP JUMPDEST SWAP1 SSTORE JUMP JUMPDEST PUSH1 0x1F NOT DUP3 AND SWAP1 DUP4 PUSH1 0x0 MSTORE DUP1 PUSH1 0x0 KECCAK256 SWAP2 PUSH1 0x0 JUMPDEST DUP2 DUP2 LT PUSH2 0x1B27 JUMPI POP SWAP6 DUP4 PUSH1 0x1 SWAP6 SWAP7 SWAP8 LT PUSH2 0x1B0E JUMPI JUMPDEST POP POP POP DUP2 SHL ADD SWAP1 SSTORE JUMP JUMPDEST ADD MLOAD PUSH1 0x0 NOT PUSH1 0xF8 DUP5 PUSH1 0x3 SHL AND SHR NOT AND SWAP1 SSTORE CODESIZE DUP1 DUP1 PUSH2 0x1B04 JUMP JUMPDEST SWAP2 SWAP3 PUSH1 0x20 PUSH1 0x1 DUP2 SWAP3 DUP7 DUP12 ADD MLOAD DUP2 SSTORE ADD SWAP5 ADD SWAP3 ADD PUSH2 0x1AEF JUMP JUMPDEST PUSH1 0x1 PUSH1 0x1 PUSH1 0xA0 SHL SUB PUSH1 0x0 SLOAD AND CALLER SUB PUSH2 0x1B53 JUMPI JUMP JUMPDEST PUSH32 0x118CDAA700000000000000000000000000000000000000000000000000000000 PUSH1 0x0 MSTORE CALLER PUSH1 0x4 MSTORE PUSH1 0x24 PUSH1 0x0 REVERT JUMPDEST DUP2 MLOAD SWAP2 SWAP1 PUSH1 0x41 DUP4 SUB PUSH2 0x1BB2 JUMPI PUSH2 0x1BAB SWAP3 POP PUSH1 0x20 DUP3 ADD MLOAD SWAP1 PUSH1 0x60 PUSH1 0x40 DUP5 ADD MLOAD SWAP4 ADD MLOAD PUSH1 0x0 BYTE SWAP1 PUSH2 0x1C90 JUMP JUMPDEST SWAP2 SWAP3 SWAP1 SWAP2 SWAP1 JUMP JUMPDEST POP POP PUSH1 0x0 SWAP2 PUSH1 0x2 SWAP2 SWAP1 JUMP JUMPDEST SWAP2 SWAP1 SWAP2 PUSH1 0x4 DUP2 LT ISZERO PUSH2 0x1C7A JUMPI DUP1 PUSH2 0x1BD3 JUMPI POP SWAP1 POP JUMP JUMPDEST PUSH1 0x0 PUSH1 0x1 DUP3 SUB PUSH2 0x1C07 JUMPI PUSH32 0xF645EEDF00000000000000000000000000000000000000000000000000000000 PUSH1 0x0 MSTORE PUSH1 0x4 PUSH1 0x0 REVERT JUMPDEST POP PUSH1 0x2 DUP2 SUB PUSH2 0x1C3E JUMPI DUP3 PUSH32 0xFCE698F700000000000000000000000000000000000000000000000000000000 PUSH1 0x0 MSTORE PUSH1 0x4 MSTORE PUSH1 0x24 PUSH1 0x0 REVERT JUMPDEST SWAP1 SWAP2 PUSH1 0x3 PUSH1 0x0 SWAP3 EQ PUSH2 0x1C4E JUMPI POP POP JUMP JUMPDEST PUSH1 0x24 SWAP3 POP PUSH32 0xD78BCE0C00000000000000000000000000000000000000000000000000000000 DUP3 MSTORE PUSH1 0x4 MSTORE REVERT JUMPDEST PUSH4 0x4E487B71 PUSH1 0xE0 SHL PUSH1 0x0 MSTORE PUSH1 0x21 PUSH1 0x4 MSTORE PUSH1 0x24 PUSH1 0x0 REVERT JUMPDEST SWAP2 SWAP1 PUSH32 0x7FFFFFFFFFFFFFFFFFFFFFFFFFFFFFFF5D576E7357A4501DDFE92F46681B20A0 DUP5 GT PUSH2 0x1D0D JUMPI SWAP2 PUSH1 0x20 SWAP4 PUSH1 0x80 SWAP3 PUSH1 0xFF PUSH1 0x0 SWAP6 PUSH1 0x40 MLOAD SWAP5 DUP6 MSTORE AND DUP7 DUP5 ADD MSTORE PUSH1 0x40 DUP4 ADD MSTORE PUSH1 0x60 DUP3 ADD MSTORE DUP3 DUP1 MSTORE PUSH1 0x1 GAS STATICCALL ISZERO PUSH2 0xE8E JUMPI PUSH1 0x0 MLOAD PUSH1 0x1 PUSH1 0x1 PUSH1 0xA0 SHL SUB DUP2 AND ISZERO PUSH2 0x1D01 JUMPI SWAP1 PUSH1 0x0 SWAP1 PUSH1 0x0 SWAP1 JUMP JUMPDEST POP PUSH1 0x0 SWAP1 PUSH1 0x1 SWAP1 PUSH1 0x0 SWAP1 JUMP JUMPDEST POP POP POP PUSH1 0x0 SWAP2 PUSH1 0x3 SWAP2 SWAP1 JUMP INVALID LOG2 PUSH5 0x6970667358 0x22 SLT KECCAK256 0x27 LOG0 0xA6 0xCD PUSH15 0xF9E12F68C139B5D8A5EF94A0149401 0x22 0xE0 EQ MOD 0xD1 LOG3 DUP15 0xF7 PUSH17 0xA9B41164736F6C634300081C0033000000 "},"methodIdentifiers":{"addToWhitelist(address)":"e43252d7","getAllProjects()":"80d03829","getNFTsForProject(string)":"ccf92a79","getParticipant(string,uint256)":"058344eb","getProject(string)":"4fa691e2","nftContract()":"d56d229d","nftContractAddress()":"aae282e1","owner()":"8da5cb5b","registerProject(string,string,string,string,bytes32,address[],string[],string[],string[],bytes[],string,string[],string[],string[],string)":"a4bf6259","removeFromWhitelist(address)":"8ab1d681","renounceOwnership()":"715018a6","setNFTContractAddress(address)":"23949cd1","setWhitelistEnabled(bool)":"052d9e7e","transferOwnership(address)":"f2fde38b","whitelist(address)":"9b19251a","whitelistEnabled()":"51fb012d"}}}}}