{"src/web3/contracts/RhizomeNFT.sol":{"RhizomeNFT":{"abi":[{"inputs":[],"stateMutability":"nonpayable","type":"constructor"},{"inputs":[{"internalType":"address","name":"sender","type":"address"},{"internalType":"uint256","name":"tokenId","type":"uint256"},{"internalType":"address","name":"owner","type":"address"}],"name":"ERC721IncorrectOwner","type":"error"},{"inputs":[{"internalType":"address","name":"operator","type":"address"},{"internalType":"uint256","name":"tokenId","type":"uint256"}],"name":"ERC721InsufficientApproval","type":"error"},{"inputs":[{"internalType":"address","name":"approver","type":"address"}],"name":"ERC721InvalidApprover","type":"error"},{"inputs":[{"internalType":"address","name":"operator","type":"address"}],"name":"ERC721InvalidOperator","type":"error"},{"inputs":[{"internalType":"address","name":"owner","type":"address"}],"name":"ERC721InvalidOwner","type":"error"},{"inputs":[{"internalType":"address","name":"receiver","type":"address"}],"name":"ERC721InvalidReceiver","type":"error"},{"inputs":[{"internalType":"address","name":"sender","type":"address"}],"name":"ERC721InvalidSender","type":"error"},{"inputs":[{"internalType":"uint256","name":"tokenId","type":"uint256"}],"name":"ERC721NonexistentToken","type":"error"},{"inputs":[{"internalType":"address","name":"owner","type":"address"}],"name":"OwnableInvalidOwner","type":"error"},{"inputs":[{"internalType":"address","name":"account","type":"address"}],"name":"OwnableUnauthorizedAccount","type":"error"},{"anonymous":false,"inputs":[{"indexed":true,"internalType":"address","name":"owner","type":"address"},{"indexed":true,"internalType":"address","name":"approved","type":"address"},{"indexed":true,"internalType":"uint256","name":"tokenId","type":"uint256"}],"name":"Approval","type":"event"},{"anonymous":false,"inputs":[{"indexed":true,"internalType":"address","name":"owner","type":"address"},{"indexed":true,"internalType":"address","name":"operator","type":"address"},{"indexed":false,"internalType":"bool","name":"approved","type":"bool"}],"name":"ApprovalForAll","type":"event"},{"anonymous":false,"inputs":[{"indexed":false,"internalType":"uint256","name":"_fromTokenId","type":"uint256"},{"indexed":false,"internalType":"uint256","name":"_toTokenId","type":"uint256"}],"name":"BatchMetadataUpdate","type":"event"},{"anonymous":false,"inputs":[{"indexed":false,"internalType":"uint256","name":"_tokenId","type":"uint256"}],"name":"MetadataUpdate","type":"event"},{"anonymous":false,"inputs":[{"indexed":true,"internalType":"address","name":"previousOwner","type":"address"},{"indexed":true,"internalType":"address","name":"newOwner","type":"address"}],"name":"OwnershipTransferred","type":"event"},{"anonymous":false,"inputs":[{"indexed":true,"internalType":"address","name":"from","type":"address"},{"indexed":true,"internalType":"address","name":"to","type":"address"},{"indexed":true,"internalType":"uint256","name":"tokenId","type":"uint256"}],"name":"Transfer","type":"event"},{"inputs":[{"internalType":"address","name":"to","type":"address"},{"internalType":"uint256","name":"tokenId","type":"uint256"}],"name":"approve","outputs":[],"stateMutability":"nonpayable","type":"function"},{"inputs":[{"internalType":"address","name":"owner","type":"address"}],"name":"balanceOf","outputs":[{"internalType":"uint256","name":"","type":"uint256"}],"stateMutability":"view","type":"function"},{"inputs":[{"internalType":"uint256","name":"tokenId","type":"uint256"}],"name":"getApproved","outputs":[{"internalType":"address","name":"","type":"address"}],"stateMutability":"view","type":"function"},{"inputs":[{"internalType":"address","name":"owner","type":"address"},{"internalType":"address","name":"operator","type":"address"}],"name":"isApprovedForAll","outputs":[{"internalType":"bool","name":"","type":"bool"}],"stateMutability":"view","type":"function"},{"inputs":[{"internalType":"address","name":"recipient","type":"address"},{"internalType":"string","name":"projectId","type":"string"},{"internalType":"string","name":"participantId","type":"string"},{"internalType":"string","name":"participantFullname","type":"string"},{"internalType":"string","name":"participantUsername","type":"string"},{"internalType":"string","name":"projectTitle","type":"string"},{"internalType":"string","name":"projectUrl","type":"string"},{"internalType":"string","name":"imageUrl","type":"string"},{"internalType":"string","name":"role","type":"string"},{"internalType":"string","name":"contributionPercentage","type":"string"},{"internalType":"string","name":"contributionDescription","type":"string"},{"internalType":"string","name":"finalizationDate","type":"string"}],"name":"mintNFT","outputs":[{"internalType":"uint256","name":"","type":"uint256"}],"stateMutability":"nonpayable","type":"function"},{"inputs":[],"name":"name","outputs":[{"internalType":"string","name":"","type":"string"}],"stateMutability":"view","type":"function"},{"inputs":[],"name":"owner","outputs":[{"internalType":"address","name":"","type":"address"}],"stateMutability":"view","type":"function"},{"inputs":[{"internalType":"uint256","name":"tokenId","type":"uint256"}],"name":"ownerOf","outputs":[{"internalType":"address","name":"","type":"address"}],"stateMutability":"view","type":"function"},{"inputs":[],"name":"renounceOwnership","outputs":[],"stateMutability":"nonpayable","type":"function"},{"inputs":[{"internalType":"address","name":"from","type":"address"},{"internalType":"address","name":"to","type":"address"},{"internalType":"uint256","name":"tokenId","type":"uint256"}],"name":"safeTransferFrom","outputs":[],"stateMutability":"nonpayable","type":"function"},{"inputs":[{"internalType":"address","name":"from","type":"address"},{"internalType":"address","name":"to","type":"address"},{"internalType":"uint256","name":"tokenId","type":"uint256"},{"internalType":"bytes","name":"data","type":"bytes"}],"name":"safeTransferFrom","outputs":[],"stateMutability":"nonpayable","type":"function"},{"inputs":[{"internalType":"address","name":"operator","type":"address"},{"internalType":"bool","name":"approved","type":"bool"}],"name":"setApprovalForAll","outputs":[],"stateMutability":"nonpayable","type":"function"},{"inputs":[{"internalType":"bytes4","name":"interfaceId","type":"bytes4"}],"name":"supportsInterface","outputs":[{"internalType":"bool","name":"","type":"bool"}],"stateMutability":"view","type":"function"},{"inputs":[],"name":"symbol","outputs":[{"internalType":"string","name":"","type":"string"}],"stateMutability":"view","type":"function"},{"inputs":[{"internalType":"uint256","name":"tokenId","type":"uint256"}],"name":"tokenURI","outputs":[{"internalType":"string","name":"","type":"string"}],"stateMutability":"view","type":"function"},{"inputs":[{"internalType":"address","name":"from","type":"address"},{"internalType":"address","name":"to","type":"address"},{"internalType":"uint256","name":"tokenId","type":"uint256"}],"name":"transferFrom","outputs":[],"stateMutability":"nonpayable","type":"function"},{"inputs":[{"internalType":"address","name":"newOwner","type":"address"}],"name":"transferOwnership","outputs":[],"stateMutability":"nonpayable","type":"function"}],"evm":{"bytecode":{"linkReferences":{},"object":"60806040523461039957604080519081016001600160401b038111828210176102a6576040908152601482527f5268697a6f6d652050726f746f636f6c204e6574000000000000000000000000602083015280519081016001600160401b038111828210176102a657604052600381526229242d60e91b602082015281516001600160401b0381116102a657600054600181811c9116801561038f575b602082101461028657601f811161032b575b50602092601f82116001146102c757928192936000926102bc575b50508160011b916000199060031b1c1916176000555b80516001600160401b0381116102a657600154600181811c9116801561029c575b602082101461028657601f8111610221575b50602091601f82116001146101bd579181926000926101b2575b50508160011b916000199060031b1c1916176001555b331561019c5760078054336001600160a01b03198216811790925560405191906001600160a01b03167f8be0079c531659141344cd1fd0a4f28419497f9722a3daafe3b4186f6b6457e0600080a3612af3908161039f8239f35b631e4fbdf760e01b600052600060045260246000fd5b01519050388061012c565b601f198216926001600052806000209160005b858110610209575083600195106101f0575b505050811b01600155610142565b015160001960f88460031b161c191690553880806101e2565b919260206001819286850151815501940192016101d0565b60016000527fb10e2d527612073b26eecdfd717e6a320cf44b4afac2b0732d9fcbe2b7fa0cf6601f830160051c8101916020841061027c575b601f0160051c01905b8181106102705750610112565b60008155600101610263565b909150819061025a565b634e487b7160e01b600052602260045260246000fd5b90607f1690610100565b634e487b7160e01b600052604160045260246000fd5b0151905038806100c9565b601f1982169360008052806000209160005b86811061031357508360019596106102fa575b505050811b016000556100df565b015160001960f88460031b161c191690553880806102ec565b919260206001819286850151815501940192016102d9565b600080527f290decd9548b62a8d60345a988386fc84ba6bc95484008f6362f93160ef3e563601f830160051c81019160208410610385575b601f0160051c01905b81811061037957506100ae565b6000815560010161036c565b9091508190610363565b90607f169061009c565b600080fdfe60c080604052600436101561001357600080fd5b60003560e01c90816301ffc9a7146121975750806306fdde03146120f2578063081812fc146120b3578063095ea7b314611f975780631673b45614610d9657806323b872dd14610d7f57806342842e0e14610d4f5780636352211e14610d2057806370a0823114610cb1578063715018a614610c495780638da5cb5b14610c2257806395d89b4114610b41578063a22cb46514610a87578063b88d4fde14610a19578063c87b56dd146101eb578063e985e9c51461018e5763f2fde38b146100da57600080fd5b34610189576020600319360112610189576001600160a01b036100fb6122e1565b6101036127bb565b16801561015a576001600160a01b036007548273ffffffffffffffffffffffffffffffffffffffff19821617600755167f8be0079c531659141344cd1fd0a4f28419497f9722a3daafe3b4186f6b6457e0600080a3005b7f1e4fbdf700000000000000000000000000000000000000000000000000000000600052600060045260246000fd5b600080fd5b34610189576040600319360112610189576101a76122e1565b6001600160a01b036101b76122f7565b911660005260056020526001600160a01b0360406000209116600052602052602060ff604060002054166040519015158152f35b34610189576020600319360112610189576004356040517f6352211e000000000000000000000000000000000000000000000000000000008152816004820152602081602481305afa90816109da575b506102aa57608460405162461bcd60e51b815260206004820152602b60248201527f5268697a6f6d654e46543a2055524920717565727920666f72206e6f6e65786960448201527f7374656e7420746f6b656e0000000000000000000000000000000000000000006064820152fd5b60005260096020526040600020604051906102c48261230d565b6102cd81612432565b82526102db60018201612432565b60208301908152916102ef60028301612432565b604082019081529261030360038401612432565b6060830190815261031660048501612432565b608084019081529061032a60058601612432565b60a085019081529461033e60068201612432565b60c086019081529361035260078301612432565b60e0870190815261036560088401612432565b61010088019081529161037a60098501612432565b936101208901948552600a0161038f90612432565b95866101408a015251995194519851965197519051915192519351946040519a8b9a8b92602084017f7b226e616d65223a22000000000000000000000000000000000000000000000090528251806020850195602901906103f09187612299565b8d01602981017f222c226465736372697074696f6e223a224365204e46542061747465737465209052604981017f6465206c612070617274696369706174696f6e2064652000000000000000000090528151918260608301916020019161045692612299565b01602901603781017f2028400000000000000000000000000000000000000000000000000000000000905281519182603a8301916020019161049792612299565b0160370190600382017f292061752070726f6a65742000000000000000000000000000000000000000009052519182600f83016104d392612299565b0160030197600c89017f2e20436f6e73756c74657a206c652070726f6a657420696369203a2000000000905287516020890199816028820190610516918d612299565b01600c01601c81017f222c22696d616765223a2200000000000000000000000000000000000000000090528151918260278301916020019161055792612299565b01601c01600b81017f222c2261747472696275746573223a5b000000000000000000000000000000009052601b81017f7b2274726169745f74797065223a2270726f6a6563745f6964222c2276616c759052603b81017f65223a2200000000000000000000000000000000000000000000000000000000905281519182603f830191602001916105e692612299565b01600b016034810162089f4b60ea1b9052603781017f7b2274726169745f74797065223a227061727469636970616e745f6964222c229052605781017f76616c7565223a22000000000000000000000000000000000000000000000000905281519182605f8301916020019161065b92612299565b01603401602b810162089f4b60ea1b9052602e81017f7b2274726169745f74797065223a22726f6c65222c2276616c7565223a220000905281519182604c830191602001916106a992612299565b01602b016021810162089f4b60ea1b9052602481017f7b2274726169745f74797065223a2270657263656e746167655f636f6e7472699052604481017f627574696f6e222c2276616c7565223a2200000000000000000000000000000090528151918260558301916020019161071e92612299565b016021016034810162089f4b60ea1b9052603781017f7b2274726169745f74797065223a226465736372697074696f6e5f636f6e74729052605781017f69627574696f6e222c2276616c7565223a22000000000000000000000000000090528151918260698301916020019161079392612299565b016034016035810162089f4b60ea1b9052603881017f7b2274726169745f74797065223a227465726d696e617465645f6174222c22769052605881017f616c7565223a2200000000000000000000000000000000000000000000000000905281519182605f8301916020019161080892612299565b0160350190602a820162089f4b60ea1b9052602d82017f7b2274726169745f74797065223a2270726f6a6563745f75726c222c2276616c9052604d82017f7565223a2200000000000000000000000000000000000000000000000000000090525191826052830161087892612299565b01602a01602881017f227d0000000000000000000000000000000000000000000000000000000000009052602a81017f5d7d0000000000000000000000000000000000000000000000000000000000009052036028017fffffffffffffffffffffffffffffffffffffffffffffffffffffffffffffffe481018252600401610900908261232a565b60405161090e60608261232a565b60408082527f4142434445464748494a4b4c4d4e4f505152535455565758595a61626364656660208301527f6768696a6b6c6d6e6f707172737475767778797a303132333435363738392b2f908201526109679161296a565b6040518091602082017f646174613a6170706c69636174696f6e2f6a736f6e3b6261736536342c000000905280519081603d840191602001916109a992612299565b810103603d01601f19810182526109c0908261232a565b604051809160208252602082016109d6916122bc565b0390f35b6020813d602011610a11575b816109f36020938361232a565b8101031261018957516001600160a01b038116811461023b57600080fd5b3d91506109e6565b3461018957608060031936011261018957610a326122e1565b610a3a6122f7565b906044356064359267ffffffffffffffff8411610189573660238501121561018957610a73610a85943690602481600401359101612369565b92610a7f8383836124d6565b336127fd565b005b3461018957604060031936011261018957610aa06122e1565b60243590811515809203610189576001600160a01b0316908115610b1357336000526005602052604060002082600052602052604060002060ff1981541660ff83161790556040519081527f17307eab39ab6107e8899845ad3d59bd9653f200f220920489ca2b5937696c3160203392a3005b507f5b08ba180000000000000000000000000000000000000000000000000000000060005260045260246000fd5b34610189576000600319360112610189576040516000600154610b63816123f8565b8084529060018116908115610bfe5750600114610b9f575b6109d683610b8b8185038261232a565b6040519182916020835260208301906122bc565b600160009081527fb10e2d527612073b26eecdfd717e6a320cf44b4afac2b0732d9fcbe2b7fa0cf6939250905b808210610be457509091508101602001610b8b610b7b565b919260018160209254838588010152019101909291610bcc565b60ff191660208086019190915291151560051b84019091019150610b8b9050610b7b565b346101895760006003193601126101895760206001600160a01b0360075416604051908152f35b3461018957600060031936011261018957610c626127bb565b60006001600160a01b0360075473ffffffffffffffffffffffffffffffffffffffff198116600755167f8be0079c531659141344cd1fd0a4f28419497f9722a3daafe3b4186f6b6457e08280a3005b34610189576020600319360112610189576001600160a01b03610cd26122e1565b168015610cf15760005260036020526020604060002054604051908152f35b7f89c62b6400000000000000000000000000000000000000000000000000000000600052600060045260246000fd5b34610189576020600319360112610189576020610d3e60043561276b565b6001600160a01b0360405191168152f35b3461018957610a85610d60366123be565b9060405192610d7060208561232a565b60008452610a7f8383836124d6565b3461018957610a85610d90366123be565b916124d6565b346101895761018060031936011261018957610db06122e1565b60243567ffffffffffffffff811161018957610dd09036906004016123a0565b60443567ffffffffffffffff811161018957610df09036906004016123a0565b60643567ffffffffffffffff811161018957610e109036906004016123a0565b60843567ffffffffffffffff811161018957610e309036906004016123a0565b60a43567ffffffffffffffff811161018957610e509036906004016123a0565b60c43567ffffffffffffffff811161018957610e709036906004016123a0565b60e43567ffffffffffffffff811161018957610e909036906004016123a0565b906101043567ffffffffffffffff811161018957610eb29036906004016123a0565b926101243567ffffffffffffffff811161018957610ed49036906004016123a0565b946101443567ffffffffffffffff811161018957610ef69036906004016123a0565b966101643567ffffffffffffffff811161018957610f189036906004016123a0565b98610f216127bb565b6008549b6000198d14611f815760018d016008556020608081905260405190610f4a908261232a565b600081526001600160a01b03821660a05260a05115611f6b578d60016000910181526002608051526001600160a01b03604082205416151580611f63575b611ef8578e906001820181526002608051526001600160a01b036040822054169060018215159384611eae575b60a05183526003608051526040832082815401905581810183526002608051526040832060a05173ffffffffffffffffffffffffffffffffffffffff198254161790550190827fddf252ad1be2c89b69c2b068fc378daa952ba7f163c4a11628f55a4df523b3ef60a0519280a450611e7f578d913b611d22575b50506040519a61103e8c61230d565b8b526080518b015260408a01526060890152608088015260a087015260c086015260e0850152610100840152610120830152610140820152600182016000526009608051526040600020815192835167ffffffffffffffff8111611561576110a683546123f8565b601f8111611cdc575b5060805194601f8211600114611c7457948192939495600092611c69575b50506000198260011b9260031b1c19161782555b60805183015192835167ffffffffffffffff81116115615761110660018501546123f8565b601f8111611c20575b5060805194601f8211600114611bb257948192939495600092611ba7575b50506000198260011b9260031b1c19161760018401555b604081015192835167ffffffffffffffff81116115615761116860028301546123f8565b601f8111611b5a575b5060805194601f8211600114611aec57948192939495600092611ae1575b50506000198260011b9260031b1c19161760028201555b60038101606083015180519067ffffffffffffffff82116115615781906111cd84546123f8565b601f8111611a8c575b5060805190601f8311600114611a2657600092611a1b575b50506000198260011b9260031b1c19161790555b60048101608083015180519067ffffffffffffffff821161156157819061122984546123f8565b601f81116119c6575b5060805190601f831160011461196057600092611955575b50506000198260011b9260031b1c19161790555b6005810160a083015180519067ffffffffffffffff821161156157819061128584546123f8565b601f8111611900575b5060805190601f831160011461189a5760009261188f575b50506000198260011b9260031b1c19161790555b6006810160c083015180519067ffffffffffffffff82116115615781906112e184546123f8565b601f811161183a575b5060805190601f83116001146117d4576000926117c9575b50506000198260011b9260031b1c19161790555b6007810160e083015180519067ffffffffffffffff821161156157819061133d84546123f8565b601f8111611774575b5060805190601f831160011461170e57600092611703575b50506000198260011b9260031b1c19161790555b6008810161010083015180519067ffffffffffffffff821161156157819061139a84546123f8565b601f81116116ae575b5060805190601f83116001146116485760009261163d575b50506000198260011b9260031b1c19161790555b6009810161012083015180519067ffffffffffffffff8211611561576113f583546123f8565b601f81116115f3575b5060805190601f8311600114611582579180600a94926101409694600092611577575b50506000198260011b9260031b1c19161790555b0191015180519067ffffffffffffffff821161156157819061145784546123f8565b601f811161150c575b5060805190601f83116001146114a65760009261149b575b50506000198260011b9260031b1c19161790555b60016040519101815260805190f35b015190508480611478565b6000858152608051812093601f1916905b8181106114f357509084600195949392106114da575b505050811b01905561148c565b015160001960f88460031b161c191690558480806114cd565b82840151855560805160019095019493840193016114b7565b90915083600052608051600020601f840160051c8101916080518510611557575b90601f859493920160051c01905b8181106115485750611460565b6000815584935060010161153b565b909150819061152d565b634e487b7160e01b600052604160045260246000fd5b015190508880611421565b90601f19831691846000526080516000209260005b8181106115da57509260019285926101409896600a9896106115c1575b505050811b019055611435565b015160001960f88460031b161c191690558880806115b4565b8284015185556080516001909501949384019301611597565b83600052608051600020601f840160051c8101916080518510611633575b601f0160051c01905b81811061162757506113fe565b6000815560010161161a565b9091508190611611565b0151905086806113bb565b6000858152608051812093601f1916905b818110611695575090846001959493921061167c575b505050811b0190556113cf565b015160001960f88460031b161c1916905586808061166f565b8284015185556080516001909501949384019301611659565b90915083600052608051600020601f840160051c81019160805185106116f9575b90601f859493920160051c01905b8181106116ea57506113a3565b600081558493506001016116dd565b90915081906116cf565b01519050868061135e565b6000858152608051812093601f1916905b81811061175b5750908460019594939210611742575b505050811b019055611372565b015160001960f88460031b161c19169055868080611735565b828401518555608051600190950194938401930161171f565b90915083600052608051600020601f840160051c81019160805185106117bf575b90601f859493920160051c01905b8181106117b05750611346565b600081558493506001016117a3565b9091508190611795565b015190508680611302565b6000858152608051812093601f1916905b8181106118215750908460019594939210611808575b505050811b019055611316565b015160001960f88460031b161c191690558680806117fb565b82840151855560805160019095019493840193016117e5565b90915083600052608051600020601f840160051c8101916080518510611885575b90601f859493920160051c01905b81811061187657506112ea565b60008155849350600101611869565b909150819061185b565b0151905086806112a6565b6000858152608051812093601f1916905b8181106118e757509084600195949392106118ce575b505050811b0190556112ba565b015160001960f88460031b161c191690558680806118c1565b82840151855560805160019095019493840193016118ab565b90915083600052608051600020601f840160051c810191608051851061194b575b90601f859493920160051c01905b81811061193c575061128e565b6000815584935060010161192f565b9091508190611921565b01519050868061124a565b6000858152608051812093601f1916905b8181106119ad5750908460019594939210611994575b505050811b01905561125e565b015160001960f88460031b161c19169055868080611987565b8284015185556080516001909501949384019301611971565b90915083600052608051600020601f840160051c8101916080518510611a11575b90601f859493920160051c01905b818110611a025750611232565b600081558493506001016119f5565b90915081906119e7565b0151905086806111ee565b6000858152608051812093601f1916905b818110611a735750908460019594939210611a5a575b505050811b019055611202565b015160001960f88460031b161c19169055868080611a4d565b8284015185556080516001909501949384019301611a37565b90915083600052608051600020601f840160051c8101916080518510611ad7575b90601f859493920160051c01905b818110611ac857506111d6565b60008155849350600101611abb565b9091508190611aad565b01519050858061118f565b601f19821695600284016000526080516000209160005b888110611b4157508360019596979810611b28575b505050811b0160028201556111a6565b015160001960f88460031b161c19169055858080611b18565b8183015184556080516001909401939283019201611b03565b60028301600052608051600020601f830160051c8101916080518410611b9d575b601f0160051c01905b818110611b915750611171565b60008155600101611b84565b9091508190611b7b565b01519050858061112d565b601f19821695600186016000526080516000209160005b888110611c0757508360019596979810611bee575b505050811b016001840155611144565b015160001960f88460031b161c19169055858080611bde565b8183015184556080516001909401939283019201611bc9565b60018501600052608051600020601f830160051c81016080518410611c62575b601f830160051c82018110611c5657505061110f565b60008155600101611c40565b5080611c40565b0151905085806110cd565b601f19821695846000526080516000209160005b888110611cc357508360019596979810611caa575b505050811b0182556110e1565b015160001960f88460031b161c19169055858080611c9d565b8183015184556080516001909401939283019201611c88565b83600052608051600020601f830160051c81016080518410611d1b575b601f830160051c82018110611d0f5750506110af565b60008155600101611cf9565b5080611cf9565b600160405192630a85bd0160e11b845233600485015260006024850152016044830152608060648301528180611d5f6080519360848301906122bc565b0381600060a0515af18091600091611e1d575b5090611dcf573d15611dc8573d611d888161234d565b90611d96604051928361232a565b81528060003d91608051013e5b80519081611dc257633250574960e11b60005260a05160045260246000fd5b60805101fd5b6060611da3565b7fffffffff00000000000000000000000000000000000000000000000000000000630a85bd0160e11b911603611e06578b8d61102f565b633250574960e11b60005260a05160045260246000fd5b6080513d8111611e78575b611e32818361232a565b816080519181010312611e745751907fffffffff0000000000000000000000000000000000000000000000000000000082168203611e7157508e611d72565b80fd5b5080fd5b503d611e28565b7f73c6ac6e00000000000000000000000000000000000000000000000000000000600052600060045260246000fd5b611ede8282016000526004602052604060002073ffffffffffffffffffffffffffffffffffffffff198154169055565b838352600360805152604083206000198154019055610fb5565b608460405162461bcd60e51b81526080516004820152602860248201527f5268697a6f6d654e46543a2054686973204e4654206973206e6f6e2d7472616e60448201527f7366657261626c650000000000000000000000000000000000000000000000006064820152fd5b506001610f88565b633250574960e11b600052600060045260246000fd5b634e487b7160e01b600052601160045260246000fd5b3461018957604060031936011261018957611fb06122e1565b602435611fbc8161276b565b331515806120a0575b80612069575b61203b5781906001600160a01b0380851691167f8c5be1e5ebec7d5bd14f71427d1e84f3dd0314c0f7b2291e5b200ac8c7c3b925600080a460005260046020526001600160a01b036040600020911673ffffffffffffffffffffffffffffffffffffffff19825416179055600080f35b7fa9fbf51f000000000000000000000000000000000000000000000000000000006000523360045260246000fd5b506001600160a01b038116600052600560205260406000206001600160a01b03331660005260205260ff6040600020541615611fcb565b50336001600160a01b0382161415611fc5565b34610189576020600319360112610189576004356120d08161276b565b50600052600460205260206001600160a01b0360406000205416604051908152f35b346101895760006003193601126101895760405160008054612113816123f8565b8084529060018116908115610bfe575060011461213a576109d683610b8b8185038261232a565b60008080527f290decd9548b62a8d60345a988386fc84ba6bc95484008f6362f93160ef3e563939250905b80821061217d57509091508101602001610b8b610b7b565b919260018160209254838588010152019101909291612165565b3461018957602060031936011261018957600435907fffffffff00000000000000000000000000000000000000000000000000000000821680920361018957817f49064906000000000000000000000000000000000000000000000000000000006020931490811561220b575b5015158152f35b7f80ac58cd0000000000000000000000000000000000000000000000000000000081149150811561226f575b8115612245575b5083612204565b7f01ffc9a7000000000000000000000000000000000000000000000000000000009150148361223e565b7f5b5e139f0000000000000000000000000000000000000000000000000000000081149150612237565b60005b8381106122ac5750506000910152565b818101518382015260200161229c565b90601f19601f6020936122da81518092818752878088019101612299565b0116010190565b600435906001600160a01b038216820361018957565b602435906001600160a01b038216820361018957565b610160810190811067ffffffffffffffff82111761156157604052565b90601f601f19910116810190811067ffffffffffffffff82111761156157604052565b67ffffffffffffffff811161156157601f01601f191660200190565b9291926123758261234d565b91612383604051938461232a565b829481845281830111610189578281602093846000960137010152565b9080601f83011215610189578160206123bb93359101612369565b90565b6003196060910112610189576004356001600160a01b038116810361018957906024356001600160a01b0381168103610189579060443590565b90600182811c92168015612428575b602083101461241257565b634e487b7160e01b600052602260045260246000fd5b91607f1691612407565b9060405191826000825492612446846123f8565b80845293600181169081156124b4575060011461246d575b5061246b9250038361232a565b565b90506000929192526020600020906000915b81831061249857505090602061246b928201013861245e565b602091935080600191548385890101520191019091849261247f565b6020935061246b95925060ff1991501682840152151560051b8201013861245e565b91906001600160a01b0316918215611f6b5760009082825260026020526001600160a01b03604083205416151580612763575b6126f9578282526002602052826001600160a01b03604084205416948533151580612625575b507fddf252ad1be2c89b69c2b068fc378daa952ba7f163c4a11628f55a4df523b3ef6001600160a01b0395826125de575b838152600360205260408120600181540190558481526002602052604081208473ffffffffffffffffffffffffffffffffffffffff1982541617905580a4168083036125ab57505050565b7f64283d7b0000000000000000000000000000000000000000000000000000000060005260045260245260445260646000fd5b61260c856000526004602052604060002073ffffffffffffffffffffffffffffffffffffffff198154169055565b8281526003602052604081206000198154019055612560565b919394925050806126a2575b156126415791908390853861252f565b839085612673576024917f7e273289000000000000000000000000000000000000000000000000000000008252600452fd5b6044917f177e802f00000000000000000000000000000000000000000000000000000000825233600452602452fd5b5033851480156126d0575b8061263157508381526004602052336001600160a01b0360408320541614612631565b508481526005602052604081206001600160a01b033316825260205260ff6040822054166126ad565b608460405162461bcd60e51b815260206004820152602860248201527f5268697a6f6d654e46543a2054686973204e4654206973206e6f6e2d7472616e60448201527f7366657261626c650000000000000000000000000000000000000000000000006064820152fd5b506001612509565b8060005260026020526001600160a01b036040600020541690811561278e575090565b7f7e2732890000000000000000000000000000000000000000000000000000000060005260045260246000fd5b6001600160a01b036007541633036127cf57565b7f118cdaa7000000000000000000000000000000000000000000000000000000006000523360045260246000fd5b93909293823b61280f575b5050505050565b6128566001600160a01b0392836020951696846040519788968796630a85bd0160e11b885216600487015216602485015260448401526080606484015260848301906122bc565b03816000865af1809160009161290f575b50906128c057503d156128b9573d61287e8161234d565b9061288c604051928361232a565b81523d6000602083013e5b805190816128b45782633250574960e11b60005260045260246000fd5b602001fd5b6060612897565b7fffffffff00000000000000000000000000000000000000000000000000000000630a85bd0160e11b9116036128fb57503880808080612808565b633250574960e11b60005260045260246000fd5b6020813d602011612962575b816129286020938361232a565b81010312611e745751907fffffffff0000000000000000000000000000000000000000000000000000000082168203611e71575038612867565b3d915061291b565b919091805115612aa557805160028101809111611f815760039004908160021b917f3fffffffffffffffffffffffffffffffffffffffffffffffffffffffffffffff811603611f81576129d56129bf8361234d565b926129cd604051948561232a565b80845261234d565b601f19602084019101368237908081518201956020870190815192600083525b888110612a575750506003939495965052510680600114612a2657600214612a1b575090565b600019603d91015390565b507ffffffffffffffffffffffffffffffffffffffffffffffffffffffffffffffffe81603d60001981940153015390565b600360049199969901986001603f8b5182828260121c16870101518453828282600c1c16870101518385015382828260061c16870101516002850153168401015160038201530194976129f5565b509050604051612ab660208261232a565b600081529056fea2646970667358221220f380a3da9086002b104b780e7ef74b14b88831d3920e38f1870c80392e89ffef64736f6c634300081c0033","opcodes":"PUSH1 0x80 PUSH1 0x40 MSTORE CALLVALUE PUSH2 0x399 JUMPI PUSH1 0x40 DUP1 MLOAD SWAP1 DUP2 ADD PUSH1 0x1 PUSH1 0x1 PUSH1 0x40 SHL SUB DUP2 GT DUP3 DUP3 LT OR PUSH2 0x2A6 JUMPI PUSH1 0x40 SWAP1 DUP2 MSTORE PUSH1 0x14 DUP3 MSTORE PUSH32 0x5268697A6F6D652050726F746F636F6C204E6574000000000000000000000000 PUSH1 0x20 DUP4 ADD MSTORE DUP1 MLOAD SWAP1 DUP2 ADD PUSH1 0x1 PUSH1 0x1 PUSH1 0x40 SHL SUB DUP2 GT DUP3 DUP3 LT OR PUSH2 0x2A6 JUMPI PUSH1 0x40 MSTORE PUSH1 0x3 DUP2 MSTORE PUSH3 0x29242D PUSH1 0xE9 SHL PUSH1 0x20 DUP3 ADD MSTORE DUP2 MLOAD PUSH1 0x1 PUSH1 0x1 PUSH1 0x40 SHL SUB DUP2 GT PUSH2 0x2A6 JUMPI PUSH1 0x0 SLOAD PUSH1 0x1 DUP2 DUP2 SHR SWAP2 AND DUP1 ISZERO PUSH2 0x38F JUMPI JUMPDEST PUSH1 0x20 DUP3 LT EQ PUSH2 0x286 JUMPI PUSH1 0x1F DUP2 GT PUSH2 0x32B JUMPI JUMPDEST POP PUSH1 0x20 SWAP3 PUSH1 0x1F DUP3 GT PUSH1 0x1 EQ PUSH2 0x2C7 JUMPI SWAP3 DUP2 SWAP3 SWAP4 PUSH1 0x0 SWAP3 PUSH2 0x2BC JUMPI JUMPDEST POP POP DUP2 PUSH1 0x1 SHL SWAP2 PUSH1 0x0 NOT SWAP1 PUSH1 0x3 SHL SHR NOT AND OR PUSH1 0x0 SSTORE JUMPDEST DUP1 MLOAD PUSH1 0x1 PUSH1 0x1 PUSH1 0x40 SHL SUB DUP2 GT PUSH2 0x2A6 JUMPI PUSH1 0x1 SLOAD PUSH1 0x1 DUP2 DUP2 SHR SWAP2 AND DUP1 ISZERO PUSH2 0x29C JUMPI JUMPDEST PUSH1 0x20 DUP3 LT EQ PUSH2 0x286 JUMPI PUSH1 0x1F DUP2 GT PUSH2 0x221 JUMPI JUMPDEST POP PUSH1 0x20 SWAP2 PUSH1 0x1F DUP3 GT PUSH1 0x1 EQ PUSH2 0x1BD JUMPI SWAP2 DUP2 SWAP3 PUSH1 0x0 SWAP3 PUSH2 0x1B2 JUMPI JUMPDEST POP POP DUP2 PUSH1 0x1 SHL SWAP2 PUSH1 0x0 NOT SWAP1 PUSH1 0x3 SHL SHR NOT AND OR PUSH1 0x1 SSTORE JUMPDEST CALLER ISZERO PUSH2 0x19C JUMPI PUSH1 0x7 DUP1 SLOAD CALLER PUSH1 0x1 PUSH1 0x1 PUSH1 0xA0 SHL SUB NOT DUP3 AND DUP2 OR SWAP1 SWAP3 SSTORE PUSH1 0x40 MLOAD SWAP2 SWAP1 PUSH1 0x1 PUSH1 0x1 PUSH1 0xA0 SHL SUB AND PUSH32 0x8BE0079C531659141344CD1FD0A4F28419497F9722A3DAAFE3B4186F6B6457E0 PUSH1 0x0 DUP1 LOG3 PUSH2 0x2AF3 SWAP1 DUP2 PUSH2 0x39F DUP3 CODECOPY RETURN JUMPDEST PUSH4 0x1E4FBDF7 PUSH1 0xE0 SHL PUSH1 0x0 MSTORE PUSH1 0x0 PUSH1 0x4 MSTORE PUSH1 0x24 PUSH1 0x0 REVERT JUMPDEST ADD MLOAD SWAP1 POP CODESIZE DUP1 PUSH2 0x12C JUMP JUMPDEST PUSH1 0x1F NOT DUP3 AND SWAP3 PUSH1 0x1 PUSH1 0x0 MSTORE DUP1 PUSH1 0x0 KECCAK256 SWAP2 PUSH1 0x0 JUMPDEST DUP6 DUP2 LT PUSH2 0x209 JUMPI POP DUP4 PUSH1 0x1 SWAP6 LT PUSH2 0x1F0 JUMPI JUMPDEST POP POP POP DUP2 SHL ADD PUSH1 0x1 SSTORE PUSH2 0x142 JUMP JUMPDEST ADD MLOAD PUSH1 0x0 NOT PUSH1 0xF8 DUP5 PUSH1 0x3 SHL AND SHR NOT AND SWAP1 SSTORE CODESIZE DUP1 DUP1 PUSH2 0x1E2 JUMP JUMPDEST SWAP2 SWAP3 PUSH1 0x20 PUSH1 0x1 DUP2 SWAP3 DUP7 DUP6 ADD MLOAD DUP2 SSTORE ADD SWAP5 ADD SWAP3 ADD PUSH2 0x1D0 JUMP JUMPDEST PUSH1 0x1 PUSH1 0x0 MSTORE PUSH32 0xB10E2D527612073B26EECDFD717E6A320CF44B4AFAC2B0732D9FCBE2B7FA0CF6 PUSH1 0x1F DUP4 ADD PUSH1 0x5 SHR DUP2 ADD SWAP2 PUSH1 0x20 DUP5 LT PUSH2 0x27C JUMPI JUMPDEST PUSH1 0x1F ADD PUSH1 0x5 SHR ADD SWAP1 JUMPDEST DUP2 DUP2 LT PUSH2 0x270 JUMPI POP PUSH2 0x112 JUMP JUMPDEST PUSH1 0x0 DUP2 SSTORE PUSH1 0x1 ADD PUSH2 0x263 JUMP JUMPDEST SWAP1 SWAP2 POP DUP2 SWAP1 PUSH2 0x25A JUMP JUMPDEST PUSH4 0x4E487B71 PUSH1 0xE0 SHL PUSH1 0x0 MSTORE PUSH1 0x22 PUSH1 0x4 MSTORE PUSH1 0x24 PUSH1 0x0 REVERT JUMPDEST SWAP1 PUSH1 0x7F AND SWAP1 PUSH2 0x100 JUMP JUMPDEST PUSH4 0x4E487B71 PUSH1 0xE0 SHL PUSH1 0x0 MSTORE PUSH1 0x41 PUSH1 0x4 MSTORE PUSH1 0x24 PUSH1 0x0 REVERT JUMPDEST ADD MLOAD SWAP1 POP CODESIZE DUP1 PUSH2 0xC9 JUMP JUMPDEST PUSH1 0x1F NOT DUP3 AND SWAP4 PUSH1 0x0 DUP1 MSTORE DUP1 PUSH1 0x0 KECCAK256 SWAP2 PUSH1 0x0 JUMPDEST DUP7 DUP2 LT PUSH2 0x313 JUMPI POP DUP4 PUSH1 0x1 SWAP6 SWAP7 LT PUSH2 0x2FA JUMPI JUMPDEST POP POP POP DUP2 SHL ADD PUSH1 0x0 SSTORE PUSH2 0xDF JUMP JUMPDEST ADD MLOAD PUSH1 0x0 NOT PUSH1 0xF8 DUP5 PUSH1 0x3 SHL AND SHR NOT AND SWAP1 SSTORE CODESIZE DUP1 DUP1 PUSH2 0x2EC JUMP JUMPDEST SWAP2 SWAP3 PUSH1 0x20 PUSH1 0x1 DUP2 SWAP3 DUP7 DUP6 ADD MLOAD DUP2 SSTORE ADD SWAP5 ADD SWAP3 ADD PUSH2 0x2D9 JUMP JUMPDEST PUSH1 0x0 DUP1 MSTORE PUSH32 0x290DECD9548B62A8D60345A988386FC84BA6BC95484008F6362F93160EF3E563 PUSH1 0x1F DUP4 ADD PUSH1 0x5 SHR DUP2 ADD SWAP2 PUSH1 0x20 DUP5 LT PUSH2 0x385 JUMPI JUMPDEST PUSH1 0x1F ADD PUSH1 0x5 SHR ADD SWAP1 JUMPDEST DUP2 DUP2 LT PUSH2 0x379 JUMPI POP PUSH2 0xAE JUMP JUMPDEST PUSH1 0x0 DUP2 SSTORE PUSH1 0x1 ADD PUSH2 0x36C JUMP JUMPDEST SWAP1 SWAP2 POP DUP2 SWAP1 PUSH2 0x363 JUMP JUMPDEST SWAP1 PUSH1 0x7F AND SWAP1 PUSH2 0x9C JUMP JUMPDEST PUSH1 0x0 DUP1 REVERT INVALID PUSH1 0xC0 DUP1 PUSH1 0x40 MSTORE PUSH1 0x4 CALLDATASIZE LT ISZERO PUSH2 0x13 JUMPI PUSH1 0x0 DUP1 REVERT JUMPDEST PUSH1 0x0 CALLDATALOAD PUSH1 0xE0 SHR SWAP1 DUP2 PUSH4 0x1FFC9A7 EQ PUSH2 0x2197 JUMPI POP DUP1 PUSH4 0x6FDDE03 EQ PUSH2 0x20F2 JUMPI DUP1 PUSH4 0x81812FC EQ PUSH2 0x20B3 JUMPI DUP1 PUSH4 0x95EA7B3 EQ PUSH2 0x1F97 JUMPI DUP1 PUSH4 0x1673B456 EQ PUSH2 0xD96 JUMPI DUP1 PUSH4 0x23B872DD EQ PUSH2 0xD7F JUMPI DUP1 PUSH4 0x42842E0E EQ PUSH2 0xD4F JUMPI DUP1 PUSH4 0x6352211E EQ PUSH2 0xD20 JUMPI DUP1 PUSH4 0x70A08231 EQ PUSH2 0xCB1 JUMPI DUP1 PUSH4 0x715018A6 EQ PUSH2 0xC49 JUMPI DUP1 PUSH4 0x8DA5CB5B EQ PUSH2 0xC22 JUMPI DUP1 PUSH4 0x95D89B41 EQ PUSH2 0xB41 JUMPI DUP1 PUSH4 0xA22CB465 EQ PUSH2 0xA87 JUMPI DUP1 PUSH4 0xB88D4FDE EQ PUSH2 0xA19 JUMPI DUP1 PUSH4 0xC87B56DD EQ PUSH2 0x1EB JUMPI DUP1 PUSH4 0xE985E9C5 EQ PUSH2 0x18E JUMPI PUSH4 0xF2FDE38B EQ PUSH2 0xDA JUMPI PUSH1 0x0 DUP1 REVERT JUMPDEST CALLVALUE PUSH2 0x189 JUMPI PUSH1 0x20 PUSH1 0x3 NOT CALLDATASIZE ADD SLT PUSH2 0x189 JUMPI PUSH1 0x1 PUSH1 0x1 PUSH1 0xA0 SHL SUB PUSH2 0xFB PUSH2 0x22E1 JUMP JUMPDEST PUSH2 0x103 PUSH2 0x27BB JUMP JUMPDEST AND DUP1 ISZERO PUSH2 0x15A JUMPI PUSH1 0x1 PUSH1 0x1 PUSH1 0xA0 SHL SUB PUSH1 0x7 SLOAD DUP3 PUSH20 0xFFFFFFFFFFFFFFFFFFFFFFFFFFFFFFFFFFFFFFFF NOT DUP3 AND OR PUSH1 0x7 SSTORE AND PUSH32 0x8BE0079C531659141344CD1FD0A4F28419497F9722A3DAAFE3B4186F6B6457E0 PUSH1 0x0 DUP1 LOG3 STOP JUMPDEST PUSH32 0x1E4FBDF700000000000000000000000000000000000000000000000000000000 PUSH1 0x0 MSTORE PUSH1 0x0 PUSH1 0x4 MSTORE PUSH1 0x24 PUSH1 0x0 REVERT JUMPDEST PUSH1 0x0 DUP1 REVERT JUMPDEST CALLVALUE PUSH2 0x189 JUMPI PUSH1 0x40 PUSH1 0x3 NOT CALLDATASIZE ADD SLT PUSH2 0x189 JUMPI PUSH2 0x1A7 PUSH2 0x22E1 JUMP JUMPDEST PUSH1 0x1 PUSH1 0x1 PUSH1 0xA0 SHL SUB PUSH2 0x1B7 PUSH2 0x22F7 JUMP JUMPDEST SWAP2 AND PUSH1 0x0 MSTORE PUSH1 0x5 PUSH1 0x20 MSTORE PUSH1 0x1 PUSH1 0x1 PUSH1 0xA0 SHL SUB PUSH1 0x40 PUSH1 0x0 KECCAK256 SWAP2 AND PUSH1 0x0 MSTORE PUSH1 0x20 MSTORE PUSH1 0x20 PUSH1 0xFF PUSH1 0x40 PUSH1 0x0 KECCAK256 SLOAD AND PUSH1 0x40 MLOAD SWAP1 ISZERO ISZERO DUP2 MSTORE RETURN JUMPDEST CALLVALUE PUSH2 0x189 JUMPI PUSH1 0x20 PUSH1 0x3 NOT CALLDATASIZE ADD SLT PUSH2 0x189 JUMPI PUSH1 0x4 CALLDATALOAD PUSH1 0x40 MLOAD PUSH32 0x6352211E00000000000000000000000000000000000000000000000000000000 DUP2 MSTORE DUP2 PUSH1 0x4 DUP3 ADD MSTORE PUSH1 0x20 DUP2 PUSH1 0x24 DUP2 ADDRESS GAS STATICCALL SWAP1 DUP2 PUSH2 0x9DA JUMPI JUMPDEST POP PUSH2 0x2AA JUMPI PUSH1 0x84 PUSH1 0x40 MLOAD PUSH3 0x461BCD PUSH1 0xE5 SHL DUP2 MSTORE PUSH1 0x20 PUSH1 0x4 DUP3 ADD MSTORE PUSH1 0x2B PUSH1 0x24 DUP3 ADD MSTORE PUSH32 0x5268697A6F6D654E46543A2055524920717565727920666F72206E6F6E657869 PUSH1 0x44 DUP3 ADD MSTORE PUSH32 0x7374656E7420746F6B656E000000000000000000000000000000000000000000 PUSH1 0x64 DUP3 ADD MSTORE REVERT JUMPDEST PUSH1 0x0 MSTORE PUSH1 0x9 PUSH1 0x20 MSTORE PUSH1 0x40 PUSH1 0x0 KECCAK256 PUSH1 0x40 MLOAD SWAP1 PUSH2 0x2C4 DUP3 PUSH2 0x230D JUMP JUMPDEST PUSH2 0x2CD DUP2 PUSH2 0x2432 JUMP JUMPDEST DUP3 MSTORE PUSH2 0x2DB PUSH1 0x1 DUP3 ADD PUSH2 0x2432 JUMP JUMPDEST PUSH1 0x20 DUP4 ADD SWAP1 DUP2 MSTORE SWAP2 PUSH2 0x2EF PUSH1 0x2 DUP4 ADD PUSH2 0x2432 JUMP JUMPDEST PUSH1 0x40 DUP3 ADD SWAP1 DUP2 MSTORE SWAP3 PUSH2 0x303 PUSH1 0x3 DUP5 ADD PUSH2 0x2432 JUMP JUMPDEST PUSH1 0x60 DUP4 ADD SWAP1 DUP2 MSTORE PUSH2 0x316 PUSH1 0x4 DUP6 ADD PUSH2 0x2432 JUMP JUMPDEST PUSH1 0x80 DUP5 ADD SWAP1 DUP2 MSTORE SWAP1 PUSH2 0x32A PUSH1 0x5 DUP7 ADD PUSH2 0x2432 JUMP JUMPDEST PUSH1 0xA0 DUP6 ADD SWAP1 DUP2 MSTORE SWAP5 PUSH2 0x33E PUSH1 0x6 DUP3 ADD PUSH2 0x2432 JUMP JUMPDEST PUSH1 0xC0 DUP7 ADD SWAP1 DUP2 MSTORE SWAP4 PUSH2 0x352 PUSH1 0x7 DUP4 ADD PUSH2 0x2432 JUMP JUMPDEST PUSH1 0xE0 DUP8 ADD SWAP1 DUP2 MSTORE PUSH2 0x365 PUSH1 0x8 DUP5 ADD PUSH2 0x2432 JUMP JUMPDEST PUSH2 0x100 DUP9 ADD SWAP1 DUP2 MSTORE SWAP2 PUSH2 0x37A PUSH1 0x9 DUP6 ADD PUSH2 0x2432 JUMP JUMPDEST SWAP4 PUSH2 0x120 DUP10 ADD SWAP5 DUP6 MSTORE PUSH1 0xA ADD PUSH2 0x38F SWAP1 PUSH2 0x2432 JUMP JUMPDEST SWAP6 DUP7 PUSH2 0x140 DUP11 ADD MSTORE MLOAD SWAP10 MLOAD SWAP5 MLOAD SWAP9 MLOAD SWAP7 MLOAD SWAP8 MLOAD SWAP1 MLOAD SWAP2 MLOAD SWAP3 MLOAD SWAP4 MLOAD SWAP5 PUSH1 0x40 MLOAD SWAP11 DUP12 SWAP11 DUP12 SWAP3 PUSH1 0x20 DUP5 ADD PUSH32 0x7B226E616D65223A220000000000000000000000000000000000000000000000 SWAP1 MSTORE DUP3 MLOAD DUP1 PUSH1 0x20 DUP6 ADD SWAP6 PUSH1 0x29 ADD SWAP1 PUSH2 0x3F0 SWAP2 DUP8 PUSH2 0x2299 JUMP JUMPDEST DUP14 ADD PUSH1 0x29 DUP2 ADD PUSH32 0x222C226465736372697074696F6E223A224365204E4654206174746573746520 SWAP1 MSTORE PUSH1 0x49 DUP2 ADD PUSH32 0x6465206C612070617274696369706174696F6E20646520000000000000000000 SWAP1 MSTORE DUP2 MLOAD SWAP2 DUP3 PUSH1 0x60 DUP4 ADD SWAP2 PUSH1 0x20 ADD SWAP2 PUSH2 0x456 SWAP3 PUSH2 0x2299 JUMP JUMPDEST ADD PUSH1 0x29 ADD PUSH1 0x37 DUP2 ADD PUSH32 0x2028400000000000000000000000000000000000000000000000000000000000 SWAP1 MSTORE DUP2 MLOAD SWAP2 DUP3 PUSH1 0x3A DUP4 ADD SWAP2 PUSH1 0x20 ADD SWAP2 PUSH2 0x497 SWAP3 PUSH2 0x2299 JUMP JUMPDEST ADD PUSH1 0x37 ADD SWAP1 PUSH1 0x3 DUP3 ADD PUSH32 0x292061752070726F6A6574200000000000000000000000000000000000000000 SWAP1 MSTORE MLOAD SWAP2 DUP3 PUSH1 0xF DUP4 ADD PUSH2 0x4D3 SWAP3 PUSH2 0x2299 JUMP JUMPDEST ADD PUSH1 0x3 ADD SWAP8 PUSH1 0xC DUP10 ADD PUSH32 0x2E20436F6E73756C74657A206C652070726F6A657420696369203A2000000000 SWAP1 MSTORE DUP8 MLOAD PUSH1 0x20 DUP10 ADD SWAP10 DUP2 PUSH1 0x28 DUP3 ADD SWAP1 PUSH2 0x516 SWAP2 DUP14 PUSH2 0x2299 JUMP JUMPDEST ADD PUSH1 0xC ADD PUSH1 0x1C DUP2 ADD PUSH32 0x222C22696D616765223A22000000000000000000000000000000000000000000 SWAP1 MSTORE DUP2 MLOAD SWAP2 DUP3 PUSH1 0x27 DUP4 ADD SWAP2 PUSH1 0x20 ADD SWAP2 PUSH2 0x557 SWAP3 PUSH2 0x2299 JUMP JUMPDEST ADD PUSH1 0x1C ADD PUSH1 0xB DUP2 ADD PUSH32 0x222C2261747472696275746573223A5B00000000000000000000000000000000 SWAP1 MSTORE PUSH1 0x1B DUP2 ADD PUSH32 0x7B2274726169745F74797065223A2270726F6A6563745F6964222C2276616C75 SWAP1 MSTORE PUSH1 0x3B DUP2 ADD PUSH32 0x65223A2200000000000000000000000000000000000000000000000000000000 SWAP1 MSTORE DUP2 MLOAD SWAP2 DUP3 PUSH1 0x3F DUP4 ADD SWAP2 PUSH1 0x20 ADD SWAP2 PUSH2 0x5E6 SWAP3 PUSH2 0x2299 JUMP JUMPDEST ADD PUSH1 0xB ADD PUSH1 0x34 DUP2 ADD PUSH3 0x89F4B PUSH1 0xEA SHL SWAP1 MSTORE PUSH1 0x37 DUP2 ADD PUSH32 0x7B2274726169745F74797065223A227061727469636970616E745F6964222C22 SWAP1 MSTORE PUSH1 0x57 DUP2 ADD PUSH32 0x76616C7565223A22000000000000000000000000000000000000000000000000 SWAP1 MSTORE DUP2 MLOAD SWAP2 DUP3 PUSH1 0x5F DUP4 ADD SWAP2 PUSH1 0x20 ADD SWAP2 PUSH2 0x65B SWAP3 PUSH2 0x2299 JUMP JUMPDEST ADD PUSH1 0x34 ADD PUSH1 0x2B DUP2 ADD PUSH3 0x89F4B PUSH1 0xEA SHL SWAP1 MSTORE PUSH1 0x2E DUP2 ADD PUSH32 0x7B2274726169745F74797065223A22726F6C65222C2276616C7565223A220000 SWAP1 MSTORE DUP2 MLOAD SWAP2 DUP3 PUSH1 0x4C DUP4 ADD SWAP2 PUSH1 0x20 ADD SWAP2 PUSH2 0x6A9 SWAP3 PUSH2 0x2299 JUMP JUMPDEST ADD PUSH1 0x2B ADD PUSH1 0x21 DUP2 ADD PUSH3 0x89F4B PUSH1 0xEA SHL SWAP1 MSTORE PUSH1 0x24 DUP2 ADD PUSH32 0x7B2274726169745F74797065223A2270657263656E746167655F636F6E747269 SWAP1 MSTORE PUSH1 0x44 DUP2 ADD PUSH32 0x627574696F6E222C2276616C7565223A22000000000000000000000000000000 SWAP1 MSTORE DUP2 MLOAD SWAP2 DUP3 PUSH1 0x55 DUP4 ADD SWAP2 PUSH1 0x20 ADD SWAP2 PUSH2 0x71E SWAP3 PUSH2 0x2299 JUMP JUMPDEST ADD PUSH1 0x21 ADD PUSH1 0x34 DUP2 ADD PUSH3 0x89F4B PUSH1 0xEA SHL SWAP1 MSTORE PUSH1 0x37 DUP2 ADD PUSH32 0x7B2274726169745F74797065223A226465736372697074696F6E5F636F6E7472 SWAP1 MSTORE PUSH1 0x57 DUP2 ADD PUSH32 0x69627574696F6E222C2276616C7565223A220000000000000000000000000000 SWAP1 MSTORE DUP2 MLOAD SWAP2 DUP3 PUSH1 0x69 DUP4 ADD SWAP2 PUSH1 0x20 ADD SWAP2 PUSH2 0x793 SWAP3 PUSH2 0x2299 JUMP JUMPDEST ADD PUSH1 0x34 ADD PUSH1 0x35 DUP2 ADD PUSH3 0x89F4B PUSH1 0xEA SHL SWAP1 MSTORE PUSH1 0x38 DUP2 ADD PUSH32 0x7B2274726169745F74797065223A227465726D696E617465645F6174222C2276 SWAP1 MSTORE PUSH1 0x58 DUP2 ADD PUSH32 0x616C7565223A2200000000000000000000000000000000000000000000000000 SWAP1 MSTORE DUP2 MLOAD SWAP2 DUP3 PUSH1 0x5F DUP4 ADD SWAP2 PUSH1 0x20 ADD SWAP2 PUSH2 0x808 SWAP3 PUSH2 0x2299 JUMP JUMPDEST ADD PUSH1 0x35 ADD SWAP1 PUSH1 0x2A DUP3 ADD PUSH3 0x89F4B PUSH1 0xEA SHL SWAP1 MSTORE PUSH1 0x2D DUP3 ADD PUSH32 0x7B2274726169745F74797065223A2270726F6A6563745F75726C222C2276616C SWAP1 MSTORE PUSH1 0x4D DUP3 ADD PUSH32 0x7565223A22000000000000000000000000000000000000000000000000000000 SWAP1 MSTORE MLOAD SWAP2 DUP3 PUSH1 0x52 DUP4 ADD PUSH2 0x878 SWAP3 PUSH2 0x2299 JUMP JUMPDEST ADD PUSH1 0x2A ADD PUSH1 0x28 DUP2 ADD PUSH32 0x227D000000000000000000000000000000000000000000000000000000000000 SWAP1 MSTORE PUSH1 0x2A DUP2 ADD PUSH32 0x5D7D000000000000000000000000000000000000000000000000000000000000 SWAP1 MSTORE SUB PUSH1 0x28 ADD PUSH32 0xFFFFFFFFFFFFFFFFFFFFFFFFFFFFFFFFFFFFFFFFFFFFFFFFFFFFFFFFFFFFFFE4 DUP2 ADD DUP3 MSTORE PUSH1 0x4 ADD PUSH2 0x900 SWAP1 DUP3 PUSH2 0x232A JUMP JUMPDEST PUSH1 0x40 MLOAD PUSH2 0x90E PUSH1 0x60 DUP3 PUSH2 0x232A JUMP JUMPDEST PUSH1 0x40 DUP1 DUP3 MSTORE PUSH32 0x4142434445464748494A4B4C4D4E4F505152535455565758595A616263646566 PUSH1 0x20 DUP4 ADD MSTORE PUSH32 0x6768696A6B6C6D6E6F707172737475767778797A303132333435363738392B2F SWAP1 DUP3 ADD MSTORE PUSH2 0x967 SWAP2 PUSH2 0x296A JUMP JUMPDEST PUSH1 0x40 MLOAD DUP1 SWAP2 PUSH1 0x20 DUP3 ADD PUSH32 0x646174613A6170706C69636174696F6E2F6A736F6E3B6261736536342C000000 SWAP1 MSTORE DUP1 MLOAD SWAP1 DUP2 PUSH1 0x3D DUP5 ADD SWAP2 PUSH1 0x20 ADD SWAP2 PUSH2 0x9A9 SWAP3 PUSH2 0x2299 JUMP JUMPDEST DUP2 ADD SUB PUSH1 0x3D ADD PUSH1 0x1F NOT DUP2 ADD DUP3 MSTORE PUSH2 0x9C0 SWAP1 DUP3 PUSH2 0x232A JUMP JUMPDEST PUSH1 0x40 MLOAD DUP1 SWAP2 PUSH1 0x20 DUP3 MSTORE PUSH1 0x20 DUP3 ADD PUSH2 0x9D6 SWAP2 PUSH2 0x22BC JUMP JUMPDEST SUB SWAP1 RETURN JUMPDEST PUSH1 0x20 DUP2 RETURNDATASIZE PUSH1 0x20 GT PUSH2 0xA11 JUMPI JUMPDEST DUP2 PUSH2 0x9F3 PUSH1 0x20 SWAP4 DUP4 PUSH2 0x232A JUMP JUMPDEST DUP2 ADD SUB SLT PUSH2 0x189 JUMPI MLOAD PUSH1 0x1 PUSH1 0x1 PUSH1 0xA0 SHL SUB DUP2 AND DUP2 EQ PUSH2 0x23B JUMPI PUSH1 0x0 DUP1 REVERT JUMPDEST RETURNDATASIZE SWAP2 POP PUSH2 0x9E6 JUMP JUMPDEST CALLVALUE PUSH2 0x189 JUMPI PUSH1 0x80 PUSH1 0x3 NOT CALLDATASIZE ADD SLT PUSH2 0x189 JUMPI PUSH2 0xA32 PUSH2 0x22E1 JUMP JUMPDEST PUSH2 0xA3A PUSH2 0x22F7 JUMP JUMPDEST SWAP1 PUSH1 0x44 CALLDATALOAD PUSH1 0x64 CALLDATALOAD SWAP3 PUSH8 0xFFFFFFFFFFFFFFFF DUP5 GT PUSH2 0x189 JUMPI CALLDATASIZE PUSH1 0x23 DUP6 ADD SLT ISZERO PUSH2 0x189 JUMPI PUSH2 0xA73 PUSH2 0xA85 SWAP5 CALLDATASIZE SWAP1 PUSH1 0x24 DUP2 PUSH1 0x4 ADD CALLDATALOAD SWAP2 ADD PUSH2 0x2369 JUMP JUMPDEST SWAP3 PUSH2 0xA7F DUP4 DUP4 DUP4 PUSH2 0x24D6 JUMP JUMPDEST CALLER PUSH2 0x27FD JUMP JUMPDEST STOP JUMPDEST CALLVALUE PUSH2 0x189 JUMPI PUSH1 0x40 PUSH1 0x3 NOT CALLDATASIZE ADD SLT PUSH2 0x189 JUMPI PUSH2 0xAA0 PUSH2 0x22E1 JUMP JUMPDEST PUSH1 0x24 CALLDATALOAD SWAP1 DUP2 ISZERO ISZERO DUP1 SWAP3 SUB PUSH2 0x189 JUMPI PUSH1 0x1 PUSH1 0x1 PUSH1 0xA0 SHL SUB AND SWAP1 DUP2 ISZERO PUSH2 0xB13 JUMPI CALLER PUSH1 0x0 MSTORE PUSH1 0x5 PUSH1 0x20 MSTORE PUSH1 0x40 PUSH1 0x0 KECCAK256 DUP3 PUSH1 0x0 MSTORE PUSH1 0x20 MSTORE PUSH1 0x40 PUSH1 0x0 KECCAK256 PUSH1 0xFF NOT DUP2 SLOAD AND PUSH1 0xFF DUP4 AND OR SWAP1 SSTORE PUSH1 0x40 MLOAD SWAP1 DUP2 MSTORE PUSH32 0x17307EAB39AB6107E8899845AD3D59BD9653F200F220920489CA2B5937696C31 PUSH1 0x20 CALLER SWAP3 LOG3 STOP JUMPDEST POP PUSH32 0x5B08BA1800000000000000000000000000000000000000000000000000000000 PUSH1 0x0 MSTORE PUSH1 0x4 MSTORE PUSH1 0x24 PUSH1 0x0 REVERT JUMPDEST CALLVALUE PUSH2 0x189 JUMPI PUSH1 0x0 PUSH1 0x3 NOT CALLDATASIZE ADD SLT PUSH2 0x189 JUMPI PUSH1 0x40 MLOAD PUSH1 0x0 PUSH1 0x1 SLOAD PUSH2 0xB63 DUP2 PUSH2 0x23F8 JUMP JUMPDEST DUP1 DUP5 MSTORE SWAP1 PUSH1 0x1 DUP2 AND SWAP1 DUP2 ISZERO PUSH2 0xBFE JUMPI POP PUSH1 0x1 EQ PUSH2 0xB9F JUMPI JUMPDEST PUSH2 0x9D6 DUP4 PUSH2 0xB8B DUP2 DUP6 SUB DUP3 PUSH2 0x232A JUMP JUMPDEST PUSH1 0x40 MLOAD SWAP2 DUP3 SWAP2 PUSH1 0x20 DUP4 MSTORE PUSH1 0x20 DUP4 ADD SWAP1 PUSH2 0x22BC JUMP JUMPDEST PUSH1 0x1 PUSH1 0x0 SWAP1 DUP2 MSTORE PUSH32 0xB10E2D527612073B26EECDFD717E6A320CF44B4AFAC2B0732D9FCBE2B7FA0CF6 SWAP4 SWAP3 POP SWAP1 JUMPDEST DUP1 DUP3 LT PUSH2 0xBE4 JUMPI POP SWAP1 SWAP2 POP DUP2 ADD PUSH1 0x20 ADD PUSH2 0xB8B PUSH2 0xB7B JUMP JUMPDEST SWAP2 SWAP3 PUSH1 0x1 DUP2 PUSH1 0x20 SWAP3 SLOAD DUP4 DUP6 DUP9 ADD ADD MSTORE ADD SWAP2 ADD SWAP1 SWAP3 SWAP2 PUSH2 0xBCC JUMP JUMPDEST PUSH1 0xFF NOT AND PUSH1 0x20 DUP1 DUP7 ADD SWAP2 SWAP1 SWAP2 MSTORE SWAP2 ISZERO ISZERO PUSH1 0x5 SHL DUP5 ADD SWAP1 SWAP2 ADD SWAP2 POP PUSH2 0xB8B SWAP1 POP PUSH2 0xB7B JUMP JUMPDEST CALLVALUE PUSH2 0x189 JUMPI PUSH1 0x0 PUSH1 0x3 NOT CALLDATASIZE ADD SLT PUSH2 0x189 JUMPI PUSH1 0x20 PUSH1 0x1 PUSH1 0x1 PUSH1 0xA0 SHL SUB PUSH1 0x7 SLOAD AND PUSH1 0x40 MLOAD SWAP1 DUP2 MSTORE RETURN JUMPDEST CALLVALUE PUSH2 0x189 JUMPI PUSH1 0x0 PUSH1 0x3 NOT CALLDATASIZE ADD SLT PUSH2 0x189 JUMPI PUSH2 0xC62 PUSH2 0x27BB JUMP JUMPDEST PUSH1 0x0 PUSH1 0x1 PUSH1 0x1 PUSH1 0xA0 SHL SUB PUSH1 0x7 SLOAD PUSH20 0xFFFFFFFFFFFFFFFFFFFFFFFFFFFFFFFFFFFFFFFF NOT DUP2 AND PUSH1 0x7 SSTORE AND PUSH32 0x8BE0079C531659141344CD1FD0A4F28419497F9722A3DAAFE3B4186F6B6457E0 DUP3 DUP1 LOG3 STOP JUMPDEST CALLVALUE PUSH2 0x189 JUMPI PUSH1 0x20 PUSH1 0x3 NOT CALLDATASIZE ADD SLT PUSH2 0x189 JUMPI PUSH1 0x1 PUSH1 0x1 PUSH1 0xA0 SHL SUB PUSH2 0xCD2 PUSH2 0x22E1 JUMP JUMPDEST AND DUP1 ISZERO PUSH2 0xCF1 JUMPI PUSH1 0x0 MSTORE PUSH1 0x3 PUSH1 0x20 MSTORE PUSH1 0x20 PUSH1 0x40 PUSH1 0x0 KECCAK256 SLOAD PUSH1 0x40 MLOAD SWAP1 DUP2 MSTORE RETURN JUMPDEST PUSH32 0x89C62B6400000000000000000000000000000000000000000000000000000000 PUSH1 0x0 MSTORE PUSH1 0x0 PUSH1 0x4 MSTORE PUSH1 0x24 PUSH1 0x0 REVERT JUMPDEST CALLVALUE PUSH2 0x189 JUMPI PUSH1 0x20 PUSH1 0x3 NOT CALLDATASIZE ADD SLT PUSH2 0x189 JUMPI PUSH1 0x20 PUSH2 0xD3E PUSH1 0x4 CALLDATALOAD PUSH2 0x276B JUMP JUMPDEST PUSH1 0x1 PUSH1 0x1 PUSH1 0xA0 SHL SUB PUSH1 0x40 MLOAD SWAP2 AND DUP2 MSTORE RETURN JUMPDEST CALLVALUE PUSH2 0x189 JUMPI PUSH2 0xA85 PUSH2 0xD60 CALLDATASIZE PUSH2 0x23BE JUMP JUMPDEST SWAP1 PUSH1 0x40 MLOAD SWAP3 PUSH2 0xD70 PUSH1 0x20 DUP6 PUSH2 0x232A JUMP JUMPDEST PUSH1 0x0 DUP5 MSTORE PUSH2 0xA7F DUP4 DUP4 DUP4 PUSH2 0x24D6 JUMP JUMPDEST CALLVALUE PUSH2 0x189 JUMPI PUSH2 0xA85 PUSH2 0xD90 CALLDATASIZE PUSH2 0x23BE JUMP JUMPDEST SWAP2 PUSH2 0x24D6 JUMP JUMPDEST CALLVALUE PUSH2 0x189 JUMPI PUSH2 0x180 PUSH1 0x3 NOT CALLDATASIZE ADD SLT PUSH2 0x189 JUMPI PUSH2 0xDB0 PUSH2 0x22E1 JUMP JUMPDEST PUSH1 0x24 CALLDATALOAD PUSH8 0xFFFFFFFFFFFFFFFF DUP2 GT PUSH2 0x189 JUMPI PUSH2 0xDD0 SWAP1 CALLDATASIZE SWAP1 PUSH1 0x4 ADD PUSH2 0x23A0 JUMP JUMPDEST PUSH1 0x44 CALLDATALOAD PUSH8 0xFFFFFFFFFFFFFFFF DUP2 GT PUSH2 0x189 JUMPI PUSH2 0xDF0 SWAP1 CALLDATASIZE SWAP1 PUSH1 0x4 ADD PUSH2 0x23A0 JUMP JUMPDEST PUSH1 0x64 CALLDATALOAD PUSH8 0xFFFFFFFFFFFFFFFF DUP2 GT PUSH2 0x189 JUMPI PUSH2 0xE10 SWAP1 CALLDATASIZE SWAP1 PUSH1 0x4 ADD PUSH2 0x23A0 JUMP JUMPDEST PUSH1 0x84 CALLDATALOAD PUSH8 0xFFFFFFFFFFFFFFFF DUP2 GT PUSH2 0x189 JUMPI PUSH2 0xE30 SWAP1 CALLDATASIZE SWAP1 PUSH1 0x4 ADD PUSH2 0x23A0 JUMP JUMPDEST PUSH1 0xA4 CALLDATALOAD PUSH8 0xFFFFFFFFFFFFFFFF DUP2 GT PUSH2 0x189 JUMPI PUSH2 0xE50 SWAP1 CALLDATASIZE SWAP1 PUSH1 0x4 ADD PUSH2 0x23A0 JUMP JUMPDEST PUSH1 0xC4 CALLDATALOAD PUSH8 0xFFFFFFFFFFFFFFFF DUP2 GT PUSH2 0x189 JUMPI PUSH2 0xE70 SWAP1 CALLDATASIZE SWAP1 PUSH1 0x4 ADD PUSH2 0x23A0 JUMP JUMPDEST PUSH1 0xE4 CALLDATALOAD PUSH8 0xFFFFFFFFFFFFFFFF DUP2 GT PUSH2 0x189 JUMPI PUSH2 0xE90 SWAP1 CALLDATASIZE SWAP1 PUSH1 0x4 ADD PUSH2 0x23A0 JUMP JUMPDEST SWAP1 PUSH2 0x104 CALLDATALOAD PUSH8 0xFFFFFFFFFFFFFFFF DUP2 GT PUSH2 0x189 JUMPI PUSH2 0xEB2 SWAP1 CALLDATASIZE SWAP1 PUSH1 0x4 ADD PUSH2 0x23A0 JUMP JUMPDEST SWAP3 PUSH2 0x124 CALLDATALOAD PUSH8 0xFFFFFFFFFFFFFFFF DUP2 GT PUSH2 0x189 JUMPI PUSH2 0xED4 SWAP1 CALLDATASIZE SWAP1 PUSH1 0x4 ADD PUSH2 0x23A0 JUMP JUMPDEST SWAP5 PUSH2 0x144 CALLDATALOAD PUSH8 0xFFFFFFFFFFFFFFFF DUP2 GT PUSH2 0x189 JUMPI PUSH2 0xEF6 SWAP1 CALLDATASIZE SWAP1 PUSH1 0x4 ADD PUSH2 0x23A0 JUMP JUMPDEST SWAP7 PUSH2 0x164 CALLDATALOAD PUSH8 0xFFFFFFFFFFFFFFFF DUP2 GT PUSH2 0x189 JUMPI PUSH2 0xF18 SWAP1 CALLDATASIZE SWAP1 PUSH1 0x4 ADD PUSH2 0x23A0 JUMP JUMPDEST SWAP9 PUSH2 0xF21 PUSH2 0x27BB JUMP JUMPDEST PUSH1 0x8 SLOAD SWAP12 PUSH1 0x0 NOT DUP14 EQ PUSH2 0x1F81 JUMPI PUSH1 0x1 DUP14 ADD PUSH1 0x8 SSTORE PUSH1 0x20 PUSH1 0x80 DUP2 SWAP1 MSTORE PUSH1 0x40 MLOAD SWAP1 PUSH2 0xF4A SWAP1 DUP3 PUSH2 0x232A JUMP JUMPDEST PUSH1 0x0 DUP2 MSTORE PUSH1 0x1 PUSH1 0x1 PUSH1 0xA0 SHL SUB DUP3 AND PUSH1 0xA0 MSTORE PUSH1 0xA0 MLOAD ISZERO PUSH2 0x1F6B JUMPI DUP14 PUSH1 0x1 PUSH1 0x0 SWAP2 ADD DUP2 MSTORE PUSH1 0x2 PUSH1 0x80 MLOAD MSTORE PUSH1 0x1 PUSH1 0x1 PUSH1 0xA0 SHL SUB PUSH1 0x40 DUP3 KECCAK256 SLOAD AND ISZERO ISZERO DUP1 PUSH2 0x1F63 JUMPI JUMPDEST PUSH2 0x1EF8 JUMPI DUP15 SWAP1 PUSH1 0x1 DUP3 ADD DUP2 MSTORE PUSH1 0x2 PUSH1 0x80 MLOAD MSTORE PUSH1 0x1 PUSH1 0x1 PUSH1 0xA0 SHL SUB PUSH1 0x40 DUP3 KECCAK256 SLOAD AND SWAP1 PUSH1 0x1 DUP3 ISZERO ISZERO SWAP4 DUP5 PUSH2 0x1EAE JUMPI JUMPDEST PUSH1 0xA0 MLOAD DUP4 MSTORE PUSH1 0x3 PUSH1 0x80 MLOAD MSTORE PUSH1 0x40 DUP4 KECCAK256 DUP3 DUP2 SLOAD ADD SWAP1 SSTORE DUP2 DUP2 ADD DUP4 MSTORE PUSH1 0x2 PUSH1 0x80 MLOAD MSTORE PUSH1 0x40 DUP4 KECCAK256 PUSH1 0xA0 MLOAD PUSH20 0xFFFFFFFFFFFFFFFFFFFFFFFFFFFFFFFFFFFFFFFF NOT DUP3 SLOAD AND OR SWAP1 SSTORE ADD SWAP1 DUP3 PUSH32 0xDDF252AD1BE2C89B69C2B068FC378DAA952BA7F163C4A11628F55A4DF523B3EF PUSH1 0xA0 MLOAD SWAP3 DUP1 LOG4 POP PUSH2 0x1E7F JUMPI DUP14 SWAP2 EXTCODESIZE PUSH2 0x1D22 JUMPI JUMPDEST POP POP PUSH1 0x40 MLOAD SWAP11 PUSH2 0x103E DUP13 PUSH2 0x230D JUMP JUMPDEST DUP12 MSTORE PUSH1 0x80 MLOAD DUP12 ADD MSTORE PUSH1 0x40 DUP11 ADD MSTORE PUSH1 0x60 DUP10 ADD MSTORE PUSH1 0x80 DUP9 ADD MSTORE PUSH1 0xA0 DUP8 ADD MSTORE PUSH1 0xC0 DUP7 ADD MSTORE PUSH1 0xE0 DUP6 ADD MSTORE PUSH2 0x100 DUP5 ADD MSTORE PUSH2 0x120 DUP4 ADD MSTORE PUSH2 0x140 DUP3 ADD MSTORE PUSH1 0x1 DUP3 ADD PUSH1 0x0 MSTORE PUSH1 0x9 PUSH1 0x80 MLOAD MSTORE PUSH1 0x40 PUSH1 0x0 KECCAK256 DUP2 MLOAD SWAP3 DUP4 MLOAD PUSH8 0xFFFFFFFFFFFFFFFF DUP2 GT PUSH2 0x1561 JUMPI PUSH2 0x10A6 DUP4 SLOAD PUSH2 0x23F8 JUMP JUMPDEST PUSH1 0x1F DUP2 GT PUSH2 0x1CDC JUMPI JUMPDEST POP PUSH1 0x80 MLOAD SWAP5 PUSH1 0x1F DUP3 GT PUSH1 0x1 EQ PUSH2 0x1C74 JUMPI SWAP5 DUP2 SWAP3 SWAP4 SWAP5 SWAP6 PUSH1 0x0 SWAP3 PUSH2 0x1C69 JUMPI JUMPDEST POP POP PUSH1 0x0 NOT DUP3 PUSH1 0x1 SHL SWAP3 PUSH1 0x3 SHL SHR NOT AND OR DUP3 SSTORE JUMPDEST PUSH1 0x80 MLOAD DUP4 ADD MLOAD SWAP3 DUP4 MLOAD PUSH8 0xFFFFFFFFFFFFFFFF DUP2 GT PUSH2 0x1561 JUMPI PUSH2 0x1106 PUSH1 0x1 DUP6 ADD SLOAD PUSH2 0x23F8 JUMP JUMPDEST PUSH1 0x1F DUP2 GT PUSH2 0x1C20 JUMPI JUMPDEST POP PUSH1 0x80 MLOAD SWAP5 PUSH1 0x1F DUP3 GT PUSH1 0x1 EQ PUSH2 0x1BB2 JUMPI SWAP5 DUP2 SWAP3 SWAP4 SWAP5 SWAP6 PUSH1 0x0 SWAP3 PUSH2 0x1BA7 JUMPI JUMPDEST POP POP PUSH1 0x0 NOT DUP3 PUSH1 0x1 SHL SWAP3 PUSH1 0x3 SHL SHR NOT AND OR PUSH1 0x1 DUP5 ADD SSTORE JUMPDEST PUSH1 0x40 DUP2 ADD MLOAD SWAP3 DUP4 MLOAD PUSH8 0xFFFFFFFFFFFFFFFF DUP2 GT PUSH2 0x1561 JUMPI PUSH2 0x1168 PUSH1 0x2 DUP4 ADD SLOAD PUSH2 0x23F8 JUMP JUMPDEST PUSH1 0x1F DUP2 GT PUSH2 0x1B5A JUMPI JUMPDEST POP PUSH1 0x80 MLOAD SWAP5 PUSH1 0x1F DUP3 GT PUSH1 0x1 EQ PUSH2 0x1AEC JUMPI SWAP5 DUP2 SWAP3 SWAP4 SWAP5 SWAP6 PUSH1 0x0 SWAP3 PUSH2 0x1AE1 JUMPI JUMPDEST POP POP PUSH1 0x0 NOT DUP3 PUSH1 0x1 SHL SWAP3 PUSH1 0x3 SHL SHR NOT AND OR PUSH1 0x2 DUP3 ADD SSTORE JUMPDEST PUSH1 0x3 DUP2 ADD PUSH1 0x60 DUP4 ADD MLOAD DUP1 MLOAD SWAP1 PUSH8 0xFFFFFFFFFFFFFFFF DUP3 GT PUSH2 0x1561 JUMPI DUP2 SWAP1 PUSH2 0x11CD DUP5 SLOAD PUSH2 0x23F8 JUMP JUMPDEST PUSH1 0x1F DUP2 GT PUSH2 0x1A8C JUMPI JUMPDEST POP PUSH1 0x80 MLOAD SWAP1 PUSH1 0x1F DUP4 GT PUSH1 0x1 EQ PUSH2 0x1A26 JUMPI PUSH1 0x0 SWAP3 PUSH2 0x1A1B JUMPI JUMPDEST POP POP PUSH1 0x0 NOT DUP3 PUSH1 0x1 SHL SWAP3 PUSH1 0x3 SHL SHR NOT AND OR SWAP1 SSTORE JUMPDEST PUSH1 0x4 DUP2 ADD PUSH1 0x80 DUP4 ADD MLOAD DUP1 MLOAD SWAP1 PUSH8 0xFFFFFFFFFFFFFFFF DUP3 GT PUSH2 0x1561 JUMPI DUP2 SWAP1 PUSH2 0x1229 DUP5 SLOAD PUSH2 0x23F8 JUMP JUMPDEST PUSH1 0x1F DUP2 GT PUSH2 0x19C6 JUMPI JUMPDEST POP PUSH1 0x80 MLOAD SWAP1 PUSH1 0x1F DUP4 GT PUSH1 0x1 EQ PUSH2 0x1960 JUMPI PUSH1 0x0 SWAP3 PUSH2 0x1955 JUMPI JUMPDEST POP POP PUSH1 0x0 NOT DUP3 PUSH1 0x1 SHL SWAP3 PUSH1 0x3 SHL SHR NOT AND OR SWAP1 SSTORE JUMPDEST PUSH1 0x5 DUP2 ADD PUSH1 0xA0 DUP4 ADD MLOAD DUP1 MLOAD SWAP1 PUSH8 0xFFFFFFFFFFFFFFFF DUP3 GT PUSH2 0x1561 JUMPI DUP2 SWAP1 PUSH2 0x1285 DUP5 SLOAD PUSH2 0x23F8 JUMP JUMPDEST PUSH1 0x1F DUP2 GT PUSH2 0x1900 JUMPI JUMPDEST POP PUSH1 0x80 MLOAD SWAP1 PUSH1 0x1F DUP4 GT PUSH1 0x1 EQ PUSH2 0x189A JUMPI PUSH1 0x0 SWAP3 PUSH2 0x188F JUMPI JUMPDEST POP POP PUSH1 0x0 NOT DUP3 PUSH1 0x1 SHL SWAP3 PUSH1 0x3 SHL SHR NOT AND OR SWAP1 SSTORE JUMPDEST PUSH1 0x6 DUP2 ADD PUSH1 0xC0 DUP4 ADD MLOAD DUP1 MLOAD SWAP1 PUSH8 0xFFFFFFFFFFFFFFFF DUP3 GT PUSH2 0x1561 JUMPI DUP2 SWAP1 PUSH2 0x12E1 DUP5 SLOAD PUSH2 0x23F8 JUMP JUMPDEST PUSH1 0x1F DUP2 GT PUSH2 0x183A JUMPI JUMPDEST POP PUSH1 0x80 MLOAD SWAP1 PUSH1 0x1F DUP4 GT PUSH1 0x1 EQ PUSH2 0x17D4 JUMPI PUSH1 0x0 SWAP3 PUSH2 0x17C9 JUMPI JUMPDEST POP POP PUSH1 0x0 NOT DUP3 PUSH1 0x1 SHL SWAP3 PUSH1 0x3 SHL SHR NOT AND OR SWAP1 SSTORE JUMPDEST PUSH1 0x7 DUP2 ADD PUSH1 0xE0 DUP4 ADD MLOAD DUP1 MLOAD SWAP1 PUSH8 0xFFFFFFFFFFFFFFFF DUP3 GT PUSH2 0x1561 JUMPI DUP2 SWAP1 PUSH2 0x133D DUP5 SLOAD PUSH2 0x23F8 JUMP JUMPDEST PUSH1 0x1F DUP2 GT PUSH2 0x1774 JUMPI JUMPDEST POP PUSH1 0x80 MLOAD SWAP1 PUSH1 0x1F DUP4 GT PUSH1 0x1 EQ PUSH2 0x170E JUMPI PUSH1 0x0 SWAP3 PUSH2 0x1703 JUMPI JUMPDEST POP POP PUSH1 0x0 NOT DUP3 PUSH1 0x1 SHL SWAP3 PUSH1 0x3 SHL SHR NOT AND OR SWAP1 SSTORE JUMPDEST PUSH1 0x8 DUP2 ADD PUSH2 0x100 DUP4 ADD MLOAD DUP1 MLOAD SWAP1 PUSH8 0xFFFFFFFFFFFFFFFF DUP3 GT PUSH2 0x1561 JUMPI DUP2 SWAP1 PUSH2 0x139A DUP5 SLOAD PUSH2 0x23F8 JUMP JUMPDEST PUSH1 0x1F DUP2 GT PUSH2 0x16AE JUMPI JUMPDEST POP PUSH1 0x80 MLOAD SWAP1 PUSH1 0x1F DUP4 GT PUSH1 0x1 EQ PUSH2 0x1648 JUMPI PUSH1 0x0 SWAP3 PUSH2 0x163D JUMPI JUMPDEST POP POP PUSH1 0x0 NOT DUP3 PUSH1 0x1 SHL SWAP3 PUSH1 0x3 SHL SHR NOT AND OR SWAP1 SSTORE JUMPDEST PUSH1 0x9 DUP2 ADD PUSH2 0x120 DUP4 ADD MLOAD DUP1 MLOAD SWAP1 PUSH8 0xFFFFFFFFFFFFFFFF DUP3 GT PUSH2 0x1561 JUMPI PUSH2 0x13F5 DUP4 SLOAD PUSH2 0x23F8 JUMP JUMPDEST PUSH1 0x1F DUP2 GT PUSH2 0x15F3 JUMPI JUMPDEST POP PUSH1 0x80 MLOAD SWAP1 PUSH1 0x1F DUP4 GT PUSH1 0x1 EQ PUSH2 0x1582 JUMPI SWAP2 DUP1 PUSH1 0xA SWAP5 SWAP3 PUSH2 0x140 SWAP7 SWAP5 PUSH1 0x0 SWAP3 PUSH2 0x1577 JUMPI JUMPDEST POP POP PUSH1 0x0 NOT DUP3 PUSH1 0x1 SHL SWAP3 PUSH1 0x3 SHL SHR NOT AND OR SWAP1 SSTORE JUMPDEST ADD SWAP2 ADD MLOAD DUP1 MLOAD SWAP1 PUSH8 0xFFFFFFFFFFFFFFFF DUP3 GT PUSH2 0x1561 JUMPI DUP2 SWAP1 PUSH2 0x1457 DUP5 SLOAD PUSH2 0x23F8 JUMP JUMPDEST PUSH1 0x1F DUP2 GT PUSH2 0x150C JUMPI JUMPDEST POP PUSH1 0x80 MLOAD SWAP1 PUSH1 0x1F DUP4 GT PUSH1 0x1 EQ PUSH2 0x14A6 JUMPI PUSH1 0x0 SWAP3 PUSH2 0x149B JUMPI JUMPDEST POP POP PUSH1 0x0 NOT DUP3 PUSH1 0x1 SHL SWAP3 PUSH1 0x3 SHL SHR NOT AND OR SWAP1 SSTORE JUMPDEST PUSH1 0x1 PUSH1 0x40 MLOAD SWAP2 ADD DUP2 MSTORE PUSH1 0x80 MLOAD SWAP1 RETURN JUMPDEST ADD MLOAD SWAP1 POP DUP5 DUP1 PUSH2 0x1478 JUMP JUMPDEST PUSH1 0x0 DUP6 DUP2 MSTORE PUSH1 0x80 MLOAD DUP2 KECCAK256 SWAP4 PUSH1 0x1F NOT AND SWAP1 JUMPDEST DUP2 DUP2 LT PUSH2 0x14F3 JUMPI POP SWAP1 DUP5 PUSH1 0x1 SWAP6 SWAP5 SWAP4 SWAP3 LT PUSH2 0x14DA JUMPI JUMPDEST POP POP POP DUP2 SHL ADD SWAP1 SSTORE PUSH2 0x148C JUMP JUMPDEST ADD MLOAD PUSH1 0x0 NOT PUSH1 0xF8 DUP5 PUSH1 0x3 SHL AND SHR NOT AND SWAP1 SSTORE DUP5 DUP1 DUP1 PUSH2 0x14CD JUMP JUMPDEST DUP3 DUP5 ADD MLOAD DUP6 SSTORE PUSH1 0x80 MLOAD PUSH1 0x1 SWAP1 SWAP6 ADD SWAP5 SWAP4 DUP5 ADD SWAP4 ADD PUSH2 0x14B7 JUMP JUMPDEST SWAP1 SWAP2 POP DUP4 PUSH1 0x0 MSTORE PUSH1 0x80 MLOAD PUSH1 0x0 KECCAK256 PUSH1 0x1F DUP5 ADD PUSH1 0x5 SHR DUP2 ADD SWAP2 PUSH1 0x80 MLOAD DUP6 LT PUSH2 0x1557 JUMPI JUMPDEST SWAP1 PUSH1 0x1F DUP6 SWAP5 SWAP4 SWAP3 ADD PUSH1 0x5 SHR ADD SWAP1 JUMPDEST DUP2 DUP2 LT PUSH2 0x1548 JUMPI POP PUSH2 0x1460 JUMP JUMPDEST PUSH1 0x0 DUP2 SSTORE DUP5 SWAP4 POP PUSH1 0x1 ADD PUSH2 0x153B JUMP JUMPDEST SWAP1 SWAP2 POP DUP2 SWAP1 PUSH2 0x152D JUMP JUMPDEST PUSH4 0x4E487B71 PUSH1 0xE0 SHL PUSH1 0x0 MSTORE PUSH1 0x41 PUSH1 0x4 MSTORE PUSH1 0x24 PUSH1 0x0 REVERT JUMPDEST ADD MLOAD SWAP1 POP DUP9 DUP1 PUSH2 0x1421 JUMP JUMPDEST SWAP1 PUSH1 0x1F NOT DUP4 AND SWAP2 DUP5 PUSH1 0x0 MSTORE PUSH1 0x80 MLOAD PUSH1 0x0 KECCAK256 SWAP3 PUSH1 0x0 JUMPDEST DUP2 DUP2 LT PUSH2 0x15DA JUMPI POP SWAP3 PUSH1 0x1 SWAP3 DUP6 SWAP3 PUSH2 0x140 SWAP9 SWAP7 PUSH1 0xA SWAP9 SWAP7 LT PUSH2 0x15C1 JUMPI JUMPDEST POP POP POP DUP2 SHL ADD SWAP1 SSTORE PUSH2 0x1435 JUMP JUMPDEST ADD MLOAD PUSH1 0x0 NOT PUSH1 0xF8 DUP5 PUSH1 0x3 SHL AND SHR NOT AND SWAP1 SSTORE DUP9 DUP1 DUP1 PUSH2 0x15B4 JUMP JUMPDEST DUP3 DUP5 ADD MLOAD DUP6 SSTORE PUSH1 0x80 MLOAD PUSH1 0x1 SWAP1 SWAP6 ADD SWAP5 SWAP4 DUP5 ADD SWAP4 ADD PUSH2 0x1597 JUMP JUMPDEST DUP4 PUSH1 0x0 MSTORE PUSH1 0x80 MLOAD PUSH1 0x0 KECCAK256 PUSH1 0x1F DUP5 ADD PUSH1 0x5 SHR DUP2 ADD SWAP2 PUSH1 0x80 MLOAD DUP6 LT PUSH2 0x1633 JUMPI JUMPDEST PUSH1 0x1F ADD PUSH1 0x5 SHR ADD SWAP1 JUMPDEST DUP2 DUP2 LT PUSH2 0x1627 JUMPI POP PUSH2 0x13FE JUMP JUMPDEST PUSH1 0x0 DUP2 SSTORE PUSH1 0x1 ADD PUSH2 0x161A JUMP JUMPDEST SWAP1 SWAP2 POP DUP2 SWAP1 PUSH2 0x1611 JUMP JUMPDEST ADD MLOAD SWAP1 POP DUP7 DUP1 PUSH2 0x13BB JUMP JUMPDEST PUSH1 0x0 DUP6 DUP2 MSTORE PUSH1 0x80 MLOAD DUP2 KECCAK256 SWAP4 PUSH1 0x1F NOT AND SWAP1 JUMPDEST DUP2 DUP2 LT PUSH2 0x1695 JUMPI POP SWAP1 DUP5 PUSH1 0x1 SWAP6 SWAP5 SWAP4 SWAP3 LT PUSH2 0x167C JUMPI JUMPDEST POP POP POP DUP2 SHL ADD SWAP1 SSTORE PUSH2 0x13CF JUMP JUMPDEST ADD MLOAD PUSH1 0x0 NOT PUSH1 0xF8 DUP5 PUSH1 0x3 SHL AND SHR NOT AND SWAP1 SSTORE DUP7 DUP1 DUP1 PUSH2 0x166F JUMP JUMPDEST DUP3 DUP5 ADD MLOAD DUP6 SSTORE PUSH1 0x80 MLOAD PUSH1 0x1 SWAP1 SWAP6 ADD SWAP5 SWAP4 DUP5 ADD SWAP4 ADD PUSH2 0x1659 JUMP JUMPDEST SWAP1 SWAP2 POP DUP4 PUSH1 0x0 MSTORE PUSH1 0x80 MLOAD PUSH1 0x0 KECCAK256 PUSH1 0x1F DUP5 ADD PUSH1 0x5 SHR DUP2 ADD SWAP2 PUSH1 0x80 MLOAD DUP6 LT PUSH2 0x16F9 JUMPI JUMPDEST SWAP1 PUSH1 0x1F DUP6 SWAP5 SWAP4 SWAP3 ADD PUSH1 0x5 SHR ADD SWAP1 JUMPDEST DUP2 DUP2 LT PUSH2 0x16EA JUMPI POP PUSH2 0x13A3 JUMP JUMPDEST PUSH1 0x0 DUP2 SSTORE DUP5 SWAP4 POP PUSH1 0x1 ADD PUSH2 0x16DD JUMP JUMPDEST SWAP1 SWAP2 POP DUP2 SWAP1 PUSH2 0x16CF JUMP JUMPDEST ADD MLOAD SWAP1 POP DUP7 DUP1 PUSH2 0x135E JUMP JUMPDEST PUSH1 0x0 DUP6 DUP2 MSTORE PUSH1 0x80 MLOAD DUP2 KECCAK256 SWAP4 PUSH1 0x1F NOT AND SWAP1 JUMPDEST DUP2 DUP2 LT PUSH2 0x175B JUMPI POP SWAP1 DUP5 PUSH1 0x1 SWAP6 SWAP5 SWAP4 SWAP3 LT PUSH2 0x1742 JUMPI JUMPDEST POP POP POP DUP2 SHL ADD SWAP1 SSTORE PUSH2 0x1372 JUMP JUMPDEST ADD MLOAD PUSH1 0x0 NOT PUSH1 0xF8 DUP5 PUSH1 0x3 SHL AND SHR NOT AND SWAP1 SSTORE DUP7 DUP1 DUP1 PUSH2 0x1735 JUMP JUMPDEST DUP3 DUP5 ADD MLOAD DUP6 SSTORE PUSH1 0x80 MLOAD PUSH1 0x1 SWAP1 SWAP6 ADD SWAP5 SWAP4 DUP5 ADD SWAP4 ADD PUSH2 0x171F JUMP JUMPDEST SWAP1 SWAP2 POP DUP4 PUSH1 0x0 MSTORE PUSH1 0x80 MLOAD PUSH1 0x0 KECCAK256 PUSH1 0x1F DUP5 ADD PUSH1 0x5 SHR DUP2 ADD SWAP2 PUSH1 0x80 MLOAD DUP6 LT PUSH2 0x17BF JUMPI JUMPDEST SWAP1 PUSH1 0x1F DUP6 SWAP5 SWAP4 SWAP3 ADD PUSH1 0x5 SHR ADD SWAP1 JUMPDEST DUP2 DUP2 LT PUSH2 0x17B0 JUMPI POP PUSH2 0x1346 JUMP JUMPDEST PUSH1 0x0 DUP2 SSTORE DUP5 SWAP4 POP PUSH1 0x1 ADD PUSH2 0x17A3 JUMP JUMPDEST SWAP1 SWAP2 POP DUP2 SWAP1 PUSH2 0x1795 JUMP JUMPDEST ADD MLOAD SWAP1 POP DUP7 DUP1 PUSH2 0x1302 JUMP JUMPDEST PUSH1 0x0 DUP6 DUP2 MSTORE PUSH1 0x80 MLOAD DUP2 KECCAK256 SWAP4 PUSH1 0x1F NOT AND SWAP1 JUMPDEST DUP2 DUP2 LT PUSH2 0x1821 JUMPI POP SWAP1 DUP5 PUSH1 0x1 SWAP6 SWAP5 SWAP4 SWAP3 LT PUSH2 0x1808 JUMPI JUMPDEST POP POP POP DUP2 SHL ADD SWAP1 SSTORE PUSH2 0x1316 JUMP JUMPDEST ADD MLOAD PUSH1 0x0 NOT PUSH1 0xF8 DUP5 PUSH1 0x3 SHL AND SHR NOT AND SWAP1 SSTORE DUP7 DUP1 DUP1 PUSH2 0x17FB JUMP JUMPDEST DUP3 DUP5 ADD MLOAD DUP6 SSTORE PUSH1 0x80 MLOAD PUSH1 0x1 SWAP1 SWAP6 ADD SWAP5 SWAP4 DUP5 ADD SWAP4 ADD PUSH2 0x17E5 JUMP JUMPDEST SWAP1 SWAP2 POP DUP4 PUSH1 0x0 MSTORE PUSH1 0x80 MLOAD PUSH1 0x0 KECCAK256 PUSH1 0x1F DUP5 ADD PUSH1 0x5 SHR DUP2 ADD SWAP2 PUSH1 0x80 MLOAD DUP6 LT PUSH2 0x1885 JUMPI JUMPDEST SWAP1 PUSH1 0x1F DUP6 SWAP5 SWAP4 SWAP3 ADD PUSH1 0x5 SHR ADD SWAP1 JUMPDEST DUP2 DUP2 LT PUSH2 0x1876 JUMPI POP PUSH2 0x12EA JUMP JUMPDEST PUSH1 0x0 DUP2 SSTORE DUP5 SWAP4 POP PUSH1 0x1 ADD PUSH2 0x1869 JUMP JUMPDEST SWAP1 SWAP2 POP DUP2 SWAP1 PUSH2 0x185B JUMP JUMPDEST ADD MLOAD SWAP1 POP DUP7 DUP1 PUSH2 0x12A6 JUMP JUMPDEST PUSH1 0x0 DUP6 DUP2 MSTORE PUSH1 0x80 MLOAD DUP2 KECCAK256 SWAP4 PUSH1 0x1F NOT AND SWAP1 JUMPDEST DUP2 DUP2 LT PUSH2 0x18E7 JUMPI POP SWAP1 DUP5 PUSH1 0x1 SWAP6 SWAP5 SWAP4 SWAP3 LT PUSH2 0x18CE JUMPI JUMPDEST POP POP POP DUP2 SHL ADD SWAP1 SSTORE PUSH2 0x12BA JUMP JUMPDEST ADD MLOAD PUSH1 0x0 NOT PUSH1 0xF8 DUP5 PUSH1 0x3 SHL AND SHR NOT AND SWAP1 SSTORE DUP7 DUP1 DUP1 PUSH2 0x18C1 JUMP JUMPDEST DUP3 DUP5 ADD MLOAD DUP6 SSTORE PUSH1 0x80 MLOAD PUSH1 0x1 SWAP1 SWAP6 ADD SWAP5 SWAP4 DUP5 ADD SWAP4 ADD PUSH2 0x18AB JUMP JUMPDEST SWAP1 SWAP2 POP DUP4 PUSH1 0x0 MSTORE PUSH1 0x80 MLOAD PUSH1 0x0 KECCAK256 PUSH1 0x1F DUP5 ADD PUSH1 0x5 SHR DUP2 ADD SWAP2 PUSH1 0x80 MLOAD DUP6 LT PUSH2 0x194B JUMPI JUMPDEST SWAP1 PUSH1 0x1F DUP6 SWAP5 SWAP4 SWAP3 ADD PUSH1 0x5 SHR ADD SWAP1 JUMPDEST DUP2 DUP2 LT PUSH2 0x193C JUMPI POP PUSH2 0x128E JUMP JUMPDEST PUSH1 0x0 DUP2 SSTORE DUP5 SWAP4 POP PUSH1 0x1 ADD PUSH2 0x192F JUMP JUMPDEST SWAP1 SWAP2 POP DUP2 SWAP1 PUSH2 0x1921 JUMP JUMPDEST ADD MLOAD SWAP1 POP DUP7 DUP1 PUSH2 0x124A JUMP JUMPDEST PUSH1 0x0 DUP6 DUP2 MSTORE PUSH1 0x80 MLOAD DUP2 KECCAK256 SWAP4 PUSH1 0x1F NOT AND SWAP1 JUMPDEST DUP2 DUP2 LT PUSH2 0x19AD JUMPI POP SWAP1 DUP5 PUSH1 0x1 SWAP6 SWAP5 SWAP4 SWAP3 LT PUSH2 0x1994 JUMPI JUMPDEST POP POP POP DUP2 SHL ADD SWAP1 SSTORE PUSH2 0x125E JUMP JUMPDEST ADD MLOAD PUSH1 0x0 NOT PUSH1 0xF8 DUP5 PUSH1 0x3 SHL AND SHR NOT AND SWAP1 SSTORE DUP7 DUP1 DUP1 PUSH2 0x1987 JUMP JUMPDEST DUP3 DUP5 ADD MLOAD DUP6 SSTORE PUSH1 0x80 MLOAD PUSH1 0x1 SWAP1 SWAP6 ADD SWAP5 SWAP4 DUP5 ADD SWAP4 ADD PUSH2 0x1971 JUMP JUMPDEST SWAP1 SWAP2 POP DUP4 PUSH1 0x0 MSTORE PUSH1 0x80 MLOAD PUSH1 0x0 KECCAK256 PUSH1 0x1F DUP5 ADD PUSH1 0x5 SHR DUP2 ADD SWAP2 PUSH1 0x80 MLOAD DUP6 LT PUSH2 0x1A11 JUMPI JUMPDEST SWAP1 PUSH1 0x1F DUP6 SWAP5 SWAP4 SWAP3 ADD PUSH1 0x5 SHR ADD SWAP1 JUMPDEST DUP2 DUP2 LT PUSH2 0x1A02 JUMPI POP PUSH2 0x1232 JUMP JUMPDEST PUSH1 0x0 DUP2 SSTORE DUP5 SWAP4 POP PUSH1 0x1 ADD PUSH2 0x19F5 JUMP JUMPDEST SWAP1 SWAP2 POP DUP2 SWAP1 PUSH2 0x19E7 JUMP JUMPDEST ADD MLOAD SWAP1 POP DUP7 DUP1 PUSH2 0x11EE JUMP JUMPDEST PUSH1 0x0 DUP6 DUP2 MSTORE PUSH1 0x80 MLOAD DUP2 KECCAK256 SWAP4 PUSH1 0x1F NOT AND SWAP1 JUMPDEST DUP2 DUP2 LT PUSH2 0x1A73 JUMPI POP SWAP1 DUP5 PUSH1 0x1 SWAP6 SWAP5 SWAP4 SWAP3 LT PUSH2 0x1A5A JUMPI JUMPDEST POP POP POP DUP2 SHL ADD SWAP1 SSTORE PUSH2 0x1202 JUMP JUMPDEST ADD MLOAD PUSH1 0x0 NOT PUSH1 0xF8 DUP5 PUSH1 0x3 SHL AND SHR NOT AND SWAP1 SSTORE DUP7 DUP1 DUP1 PUSH2 0x1A4D JUMP JUMPDEST DUP3 DUP5 ADD MLOAD DUP6 SSTORE PUSH1 0x80 MLOAD PUSH1 0x1 SWAP1 SWAP6 ADD SWAP5 SWAP4 DUP5 ADD SWAP4 ADD PUSH2 0x1A37 JUMP JUMPDEST SWAP1 SWAP2 POP DUP4 PUSH1 0x0 MSTORE PUSH1 0x80 MLOAD PUSH1 0x0 KECCAK256 PUSH1 0x1F DUP5 ADD PUSH1 0x5 SHR DUP2 ADD SWAP2 PUSH1 0x80 MLOAD DUP6 LT PUSH2 0x1AD7 JUMPI JUMPDEST SWAP1 PUSH1 0x1F DUP6 SWAP5 SWAP4 SWAP3 ADD PUSH1 0x5 SHR ADD SWAP1 JUMPDEST DUP2 DUP2 LT PUSH2 0x1AC8 JUMPI POP PUSH2 0x11D6 JUMP JUMPDEST PUSH1 0x0 DUP2 SSTORE DUP5 SWAP4 POP PUSH1 0x1 ADD PUSH2 0x1ABB JUMP JUMPDEST SWAP1 SWAP2 POP DUP2 SWAP1 PUSH2 0x1AAD JUMP JUMPDEST ADD MLOAD SWAP1 POP DUP6 DUP1 PUSH2 0x118F JUMP JUMPDEST PUSH1 0x1F NOT DUP3 AND SWAP6 PUSH1 0x2 DUP5 ADD PUSH1 0x0 MSTORE PUSH1 0x80 MLOAD PUSH1 0x0 KECCAK256 SWAP2 PUSH1 0x0 JUMPDEST DUP9 DUP2 LT PUSH2 0x1B41 JUMPI POP DUP4 PUSH1 0x1 SWAP6 SWAP7 SWAP8 SWAP9 LT PUSH2 0x1B28 JUMPI JUMPDEST POP POP POP DUP2 SHL ADD PUSH1 0x2 DUP3 ADD SSTORE PUSH2 0x11A6 JUMP JUMPDEST ADD MLOAD PUSH1 0x0 NOT PUSH1 0xF8 DUP5 PUSH1 0x3 SHL AND SHR NOT AND SWAP1 SSTORE DUP6 DUP1 DUP1 PUSH2 0x1B18 JUMP JUMPDEST DUP2 DUP4 ADD MLOAD DUP5 SSTORE PUSH1 0x80 MLOAD PUSH1 0x1 SWAP1 SWAP5 ADD SWAP4 SWAP3 DUP4 ADD SWAP3 ADD PUSH2 0x1B03 JUMP JUMPDEST PUSH1 0x2 DUP4 ADD PUSH1 0x0 MSTORE PUSH1 0x80 MLOAD PUSH1 0x0 KECCAK256 PUSH1 0x1F DUP4 ADD PUSH1 0x5 SHR DUP2 ADD SWAP2 PUSH1 0x80 MLOAD DUP5 LT PUSH2 0x1B9D JUMPI JUMPDEST PUSH1 0x1F ADD PUSH1 0x5 SHR ADD SWAP1 JUMPDEST DUP2 DUP2 LT PUSH2 0x1B91 JUMPI POP PUSH2 0x1171 JUMP JUMPDEST PUSH1 0x0 DUP2 SSTORE PUSH1 0x1 ADD PUSH2 0x1B84 JUMP JUMPDEST SWAP1 SWAP2 POP DUP2 SWAP1 PUSH2 0x1B7B JUMP JUMPDEST ADD MLOAD SWAP1 POP DUP6 DUP1 PUSH2 0x112D JUMP JUMPDEST PUSH1 0x1F NOT DUP3 AND SWAP6 PUSH1 0x1 DUP7 ADD PUSH1 0x0 MSTORE PUSH1 0x80 MLOAD PUSH1 0x0 KECCAK256 SWAP2 PUSH1 0x0 JUMPDEST DUP9 DUP2 LT PUSH2 0x1C07 JUMPI POP DUP4 PUSH1 0x1 SWAP6 SWAP7 SWAP8 SWAP9 LT PUSH2 0x1BEE JUMPI JUMPDEST POP POP POP DUP2 SHL ADD PUSH1 0x1 DUP5 ADD SSTORE PUSH2 0x1144 JUMP JUMPDEST ADD MLOAD PUSH1 0x0 NOT PUSH1 0xF8 DUP5 PUSH1 0x3 SHL AND SHR NOT AND SWAP1 SSTORE DUP6 DUP1 DUP1 PUSH2 0x1BDE JUMP JUMPDEST DUP2 DUP4 ADD MLOAD DUP5 SSTORE PUSH1 0x80 MLOAD PUSH1 0x1 SWAP1 SWAP5 ADD SWAP4 SWAP3 DUP4 ADD SWAP3 ADD PUSH2 0x1BC9 JUMP JUMPDEST PUSH1 0x1 DUP6 ADD PUSH1 0x0 MSTORE PUSH1 0x80 MLOAD PUSH1 0x0 KECCAK256 PUSH1 0x1F DUP4 ADD PUSH1 0x5 SHR DUP2 ADD PUSH1 0x80 MLOAD DUP5 LT PUSH2 0x1C62 JUMPI JUMPDEST PUSH1 0x1F DUP4 ADD PUSH1 0x5 SHR DUP3 ADD DUP2 LT PUSH2 0x1C56 JUMPI POP POP PUSH2 0x110F JUMP JUMPDEST PUSH1 0x0 DUP2 SSTORE PUSH1 0x1 ADD PUSH2 0x1C40 JUMP JUMPDEST POP DUP1 PUSH2 0x1C40 JUMP JUMPDEST ADD MLOAD SWAP1 POP DUP6 DUP1 PUSH2 0x10CD JUMP JUMPDEST PUSH1 0x1F NOT DUP3 AND SWAP6 DUP5 PUSH1 0x0 MSTORE PUSH1 0x80 MLOAD PUSH1 0x0 KECCAK256 SWAP2 PUSH1 0x0 JUMPDEST DUP9 DUP2 LT PUSH2 0x1CC3 JUMPI POP DUP4 PUSH1 0x1 SWAP6 SWAP7 SWAP8 SWAP9 LT PUSH2 0x1CAA JUMPI JUMPDEST POP POP POP DUP2 SHL ADD DUP3 SSTORE PUSH2 0x10E1 JUMP JUMPDEST ADD MLOAD PUSH1 0x0 NOT PUSH1 0xF8 DUP5 PUSH1 0x3 SHL AND SHR NOT AND SWAP1 SSTORE DUP6 DUP1 DUP1 PUSH2 0x1C9D JUMP JUMPDEST DUP2 DUP4 ADD MLOAD DUP5 SSTORE PUSH1 0x80 MLOAD PUSH1 0x1 SWAP1 SWAP5 ADD SWAP4 SWAP3 DUP4 ADD SWAP3 ADD PUSH2 0x1C88 JUMP JUMPDEST DUP4 PUSH1 0x0 MSTORE PUSH1 0x80 MLOAD PUSH1 0x0 KECCAK256 PUSH1 0x1F DUP4 ADD PUSH1 0x5 SHR DUP2 ADD PUSH1 0x80 MLOAD DUP5 LT PUSH2 0x1D1B JUMPI JUMPDEST PUSH1 0x1F DUP4 ADD PUSH1 0x5 SHR DUP3 ADD DUP2 LT PUSH2 0x1D0F JUMPI POP POP PUSH2 0x10AF JUMP JUMPDEST PUSH1 0x0 DUP2 SSTORE PUSH1 0x1 ADD PUSH2 0x1CF9 JUMP JUMPDEST POP DUP1 PUSH2 0x1CF9 JUMP JUMPDEST PUSH1 0x1 PUSH1 0x40 MLOAD SWAP3 PUSH4 0xA85BD01 PUSH1 0xE1 SHL DUP5 MSTORE CALLER PUSH1 0x4 DUP6 ADD MSTORE PUSH1 0x0 PUSH1 0x24 DUP6 ADD MSTORE ADD PUSH1 0x44 DUP4 ADD MSTORE PUSH1 0x80 PUSH1 0x64 DUP4 ADD MSTORE DUP2 DUP1 PUSH2 0x1D5F PUSH1 0x80 MLOAD SWAP4 PUSH1 0x84 DUP4 ADD SWAP1 PUSH2 0x22BC JUMP JUMPDEST SUB DUP2 PUSH1 0x0 PUSH1 0xA0 MLOAD GAS CALL DUP1 SWAP2 PUSH1 0x0 SWAP2 PUSH2 0x1E1D JUMPI JUMPDEST POP SWAP1 PUSH2 0x1DCF JUMPI RETURNDATASIZE ISZERO PUSH2 0x1DC8 JUMPI RETURNDATASIZE PUSH2 0x1D88 DUP2 PUSH2 0x234D JUMP JUMPDEST SWAP1 PUSH2 0x1D96 PUSH1 0x40 MLOAD SWAP3 DUP4 PUSH2 0x232A JUMP JUMPDEST DUP2 MSTORE DUP1 PUSH1 0x0 RETURNDATASIZE SWAP2 PUSH1 0x80 MLOAD ADD RETURNDATACOPY JUMPDEST DUP1 MLOAD SWAP1 DUP2 PUSH2 0x1DC2 JUMPI PUSH4 0x32505749 PUSH1 0xE1 SHL PUSH1 0x0 MSTORE PUSH1 0xA0 MLOAD PUSH1 0x4 MSTORE PUSH1 0x24 PUSH1 0x0 REVERT JUMPDEST PUSH1 0x80 MLOAD ADD REVERT JUMPDEST PUSH1 0x60 PUSH2 0x1DA3 JUMP JUMPDEST PUSH32 0xFFFFFFFF00000000000000000000000000000000000000000000000000000000 PUSH4 0xA85BD01 PUSH1 0xE1 SHL SWAP2 AND SUB PUSH2 0x1E06 JUMPI DUP12 DUP14 PUSH2 0x102F JUMP JUMPDEST PUSH4 0x32505749 PUSH1 0xE1 SHL PUSH1 0x0 MSTORE PUSH1 0xA0 MLOAD PUSH1 0x4 MSTORE PUSH1 0x24 PUSH1 0x0 REVERT JUMPDEST PUSH1 0x80 MLOAD RETURNDATASIZE DUP2 GT PUSH2 0x1E78 JUMPI JUMPDEST PUSH2 0x1E32 DUP2 DUP4 PUSH2 0x232A JUMP JUMPDEST DUP2 PUSH1 0x80 MLOAD SWAP2 DUP2 ADD SUB SLT PUSH2 0x1E74 JUMPI MLOAD SWAP1 PUSH32 0xFFFFFFFF00000000000000000000000000000000000000000000000000000000 DUP3 AND DUP3 SUB PUSH2 0x1E71 JUMPI POP DUP15 PUSH2 0x1D72 JUMP JUMPDEST DUP1 REVERT JUMPDEST POP DUP1 REVERT JUMPDEST POP RETURNDATASIZE PUSH2 0x1E28 JUMP JUMPDEST PUSH32 0x73C6AC6E00000000000000000000000000000000000000000000000000000000 PUSH1 0x0 MSTORE PUSH1 0x0 PUSH1 0x4 MSTORE PUSH1 0x24 PUSH1 0x0 REVERT JUMPDEST PUSH2 0x1EDE DUP3 DUP3 ADD PUSH1 0x0 MSTORE PUSH1 0x4 PUSH1 0x20 MSTORE PUSH1 0x40 PUSH1 0x0 KECCAK256 PUSH20 0xFFFFFFFFFFFFFFFFFFFFFFFFFFFFFFFFFFFFFFFF NOT DUP2 SLOAD AND SWAP1 SSTORE JUMP JUMPDEST DUP4 DUP4 MSTORE PUSH1 0x3 PUSH1 0x80 MLOAD MSTORE PUSH1 0x40 DUP4 KECCAK256 PUSH1 0x0 NOT DUP2 SLOAD ADD SWAP1 SSTORE PUSH2 0xFB5 JUMP JUMPDEST PUSH1 0x84 PUSH1 0x40 MLOAD PUSH3 0x461BCD PUSH1 0xE5 SHL DUP2 MSTORE PUSH1 0x80 MLOAD PUSH1 0x4 DUP3 ADD MSTORE PUSH1 0x28 PUSH1 0x24 DUP3 ADD MSTORE PUSH32 0x5268697A6F6D654E46543A2054686973204E4654206973206E6F6E2D7472616E PUSH1 0x44 DUP3 ADD MSTORE PUSH32 0x7366657261626C65000000000000000000000000000000000000000000000000 PUSH1 0x64 DUP3 ADD MSTORE REVERT JUMPDEST POP PUSH1 0x1 PUSH2 0xF88 JUMP JUMPDEST PUSH4 0x32505749 PUSH1 0xE1 SHL PUSH1 0x0 MSTORE PUSH1 0x0 PUSH1 0x4 MSTORE PUSH1 0x24 PUSH1 0x0 REVERT JUMPDEST PUSH4 0x4E487B71 PUSH1 0xE0 SHL PUSH1 0x0 MSTORE PUSH1 0x11 PUSH1 0x4 MSTORE PUSH1 0x24 PUSH1 0x0 REVERT JUMPDEST CALLVALUE PUSH2 0x189 JUMPI PUSH1 0x40 PUSH1 0x3 NOT CALLDATASIZE ADD SLT PUSH2 0x189 JUMPI PUSH2 0x1FB0 PUSH2 0x22E1 JUMP JUMPDEST PUSH1 0x24 CALLDATALOAD PUSH2 0x1FBC DUP2 PUSH2 0x276B JUMP JUMPDEST CALLER ISZERO ISZERO DUP1 PUSH2 0x20A0 JUMPI JUMPDEST DUP1 PUSH2 0x2069 JUMPI JUMPDEST PUSH2 0x203B JUMPI DUP2 SWAP1 PUSH1 0x1 PUSH1 0x1 PUSH1 0xA0 SHL SUB DUP1 DUP6 AND SWAP2 AND PUSH32 0x8C5BE1E5EBEC7D5BD14F71427D1E84F3DD0314C0F7B2291E5B200AC8C7C3B925 PUSH1 0x0 DUP1 LOG4 PUSH1 0x0 MSTORE PUSH1 0x4 PUSH1 0x20 MSTORE PUSH1 0x1 PUSH1 0x1 PUSH1 0xA0 SHL SUB PUSH1 0x40 PUSH1 0x0 KECCAK256 SWAP2 AND PUSH20 0xFFFFFFFFFFFFFFFFFFFFFFFFFFFFFFFFFFFFFFFF NOT DUP3 SLOAD AND OR SWAP1 SSTORE PUSH1 0x0 DUP1 RETURN JUMPDEST PUSH32 0xA9FBF51F00000000000000000000000000000000000000000000000000000000 PUSH1 0x0 MSTORE CALLER PUSH1 0x4 MSTORE PUSH1 0x24 PUSH1 0x0 REVERT JUMPDEST POP PUSH1 0x1 PUSH1 0x1 PUSH1 0xA0 SHL SUB DUP2 AND PUSH1 0x0 MSTORE PUSH1 0x5 PUSH1 0x20 MSTORE PUSH1 0x40 PUSH1 0x0 KECCAK256 PUSH1 0x1 PUSH1 0x1 PUSH1 0xA0 SHL SUB CALLER AND PUSH1 0x0 MSTORE PUSH1 0x20 MSTORE PUSH1 0xFF PUSH1 0x40 PUSH1 0x0 KECCAK256 SLOAD AND ISZERO PUSH2 0x1FCB JUMP JUMPDEST POP CALLER PUSH1 0x1 PUSH1 0x1 PUSH1 0xA0 SHL SUB DUP3 AND EQ ISZERO PUSH2 0x1FC5 JUMP JUMPDEST CALLVALUE PUSH2 0x189 JUMPI PUSH1 0x20 PUSH1 0x3 NOT CALLDATASIZE ADD SLT PUSH2 0x189 JUMPI PUSH1 0x4 CALLDATALOAD PUSH2 0x20D0 DUP2 PUSH2 0x276B JUMP JUMPDEST POP PUSH1 0x0 MSTORE PUSH1 0x4 PUSH1 0x20 MSTORE PUSH1 0x20 PUSH1 0x1 PUSH1 0x1 PUSH1 0xA0 SHL SUB PUSH1 0x40 PUSH1 0x0 KECCAK256 SLOAD AND PUSH1 0x40 MLOAD SWAP1 DUP2 MSTORE RETURN JUMPDEST CALLVALUE PUSH2 0x189 JUMPI PUSH1 0x0 PUSH1 0x3 NOT CALLDATASIZE ADD SLT PUSH2 0x189 JUMPI PUSH1 0x40 MLOAD PUSH1 0x0 DUP1 SLOAD PUSH2 0x2113 DUP2 PUSH2 0x23F8 JUMP JUMPDEST DUP1 DUP5 MSTORE SWAP1 PUSH1 0x1 DUP2 AND SWAP1 DUP2 ISZERO PUSH2 0xBFE JUMPI POP PUSH1 0x1 EQ PUSH2 0x213A JUMPI PUSH2 0x9D6 DUP4 PUSH2 0xB8B DUP2 DUP6 SUB DUP3 PUSH2 0x232A JUMP JUMPDEST PUSH1 0x0 DUP1 DUP1 MSTORE PUSH32 0x290DECD9548B62A8D60345A988386FC84BA6BC95484008F6362F93160EF3E563 SWAP4 SWAP3 POP SWAP1 JUMPDEST DUP1 DUP3 LT PUSH2 0x217D JUMPI POP SWAP1 SWAP2 POP DUP2 ADD PUSH1 0x20 ADD PUSH2 0xB8B PUSH2 0xB7B JUMP JUMPDEST SWAP2 SWAP3 PUSH1 0x1 DUP2 PUSH1 0x20 SWAP3 SLOAD DUP4 DUP6 DUP9 ADD ADD MSTORE ADD SWAP2 ADD SWAP1 SWAP3 SWAP2 PUSH2 0x2165 JUMP JUMPDEST CALLVALUE PUSH2 0x189 JUMPI PUSH1 0x20 PUSH1 0x3 NOT CALLDATASIZE ADD SLT PUSH2 0x189 JUMPI PUSH1 0x4 CALLDATALOAD SWAP1 PUSH32 0xFFFFFFFF00000000000000000000000000000000000000000000000000000000 DUP3 AND DUP1 SWAP3 SUB PUSH2 0x189 JUMPI DUP2 PUSH32 0x4906490600000000000000000000000000000000000000000000000000000000 PUSH1 0x20 SWAP4 EQ SWAP1 DUP2 ISZERO PUSH2 0x220B JUMPI JUMPDEST POP ISZERO ISZERO DUP2 MSTORE RETURN JUMPDEST PUSH32 0x80AC58CD00000000000000000000000000000000000000000000000000000000 DUP2 EQ SWAP2 POP DUP2 ISZERO PUSH2 0x226F JUMPI JUMPDEST DUP2 ISZERO PUSH2 0x2245 JUMPI JUMPDEST POP DUP4 PUSH2 0x2204 JUMP JUMPDEST PUSH32 0x1FFC9A700000000000000000000000000000000000000000000000000000000 SWAP2 POP EQ DUP4 PUSH2 0x223E JUMP JUMPDEST PUSH32 0x5B5E139F00000000000000000000000000000000000000000000000000000000 DUP2 EQ SWAP2 POP PUSH2 0x2237 JUMP JUMPDEST PUSH1 0x0 JUMPDEST DUP4 DUP2 LT PUSH2 0x22AC JUMPI POP POP PUSH1 0x0 SWAP2 ADD MSTORE JUMP JUMPDEST DUP2 DUP2 ADD MLOAD DUP4 DUP3 ADD MSTORE PUSH1 0x20 ADD PUSH2 0x229C JUMP JUMPDEST SWAP1 PUSH1 0x1F NOT PUSH1 0x1F PUSH1 0x20 SWAP4 PUSH2 0x22DA DUP2 MLOAD DUP1 SWAP3 DUP2 DUP8 MSTORE DUP8 DUP1 DUP9 ADD SWAP2 ADD PUSH2 0x2299 JUMP JUMPDEST ADD AND ADD ADD SWAP1 JUMP JUMPDEST PUSH1 0x4 CALLDATALOAD SWAP1 PUSH1 0x1 PUSH1 0x1 PUSH1 0xA0 SHL SUB DUP3 AND DUP3 SUB PUSH2 0x189 JUMPI JUMP JUMPDEST PUSH1 0x24 CALLDATALOAD SWAP1 PUSH1 0x1 PUSH1 0x1 PUSH1 0xA0 SHL SUB DUP3 AND DUP3 SUB PUSH2 0x189 JUMPI JUMP JUMPDEST PUSH2 0x160 DUP2 ADD SWAP1 DUP2 LT PUSH8 0xFFFFFFFFFFFFFFFF DUP3 GT OR PUSH2 0x1561 JUMPI PUSH1 0x40 MSTORE JUMP JUMPDEST SWAP1 PUSH1 0x1F PUSH1 0x1F NOT SWAP2 ADD AND DUP2 ADD SWAP1 DUP2 LT PUSH8 0xFFFFFFFFFFFFFFFF DUP3 GT OR PUSH2 0x1561 JUMPI PUSH1 0x40 MSTORE JUMP JUMPDEST PUSH8 0xFFFFFFFFFFFFFFFF DUP2 GT PUSH2 0x1561 JUMPI PUSH1 0x1F ADD PUSH1 0x1F NOT AND PUSH1 0x20 ADD SWAP1 JUMP JUMPDEST SWAP3 SWAP2 SWAP3 PUSH2 0x2375 DUP3 PUSH2 0x234D JUMP JUMPDEST SWAP2 PUSH2 0x2383 PUSH1 0x40 MLOAD SWAP4 DUP5 PUSH2 0x232A JUMP JUMPDEST DUP3 SWAP5 DUP2 DUP5 MSTORE DUP2 DUP4 ADD GT PUSH2 0x189 JUMPI DUP3 DUP2 PUSH1 0x20 SWAP4 DUP5 PUSH1 0x0 SWAP7 ADD CALLDATACOPY ADD ADD MSTORE JUMP JUMPDEST SWAP1 DUP1 PUSH1 0x1F DUP4 ADD SLT ISZERO PUSH2 0x189 JUMPI DUP2 PUSH1 0x20 PUSH2 0x23BB SWAP4 CALLDATALOAD SWAP2 ADD PUSH2 0x2369 JUMP JUMPDEST SWAP1 JUMP JUMPDEST PUSH1 0x3 NOT PUSH1 0x60 SWAP2 ADD SLT PUSH2 0x189 JUMPI PUSH1 0x4 CALLDATALOAD PUSH1 0x1 PUSH1 0x1 PUSH1 0xA0 SHL SUB DUP2 AND DUP2 SUB PUSH2 0x189 JUMPI SWAP1 PUSH1 0x24 CALLDATALOAD PUSH1 0x1 PUSH1 0x1 PUSH1 0xA0 SHL SUB DUP2 AND DUP2 SUB PUSH2 0x189 JUMPI SWAP1 PUSH1 0x44 CALLDATALOAD SWAP1 JUMP JUMPDEST SWAP1 PUSH1 0x1 DUP3 DUP2 SHR SWAP3 AND DUP1 ISZERO PUSH2 0x2428 JUMPI JUMPDEST PUSH1 0x20 DUP4 LT EQ PUSH2 0x2412 JUMPI JUMP JUMPDEST PUSH4 0x4E487B71 PUSH1 0xE0 SHL PUSH1 0x0 MSTORE PUSH1 0x22 PUSH1 0x4 MSTORE PUSH1 0x24 PUSH1 0x0 REVERT JUMPDEST SWAP2 PUSH1 0x7F AND SWAP2 PUSH2 0x2407 JUMP JUMPDEST SWAP1 PUSH1 0x40 MLOAD SWAP2 DUP3 PUSH1 0x0 DUP3 SLOAD SWAP3 PUSH2 0x2446 DUP5 PUSH2 0x23F8 JUMP JUMPDEST DUP1 DUP5 MSTORE SWAP4 PUSH1 0x1 DUP2 AND SWAP1 DUP2 ISZERO PUSH2 0x24B4 JUMPI POP PUSH1 0x1 EQ PUSH2 0x246D JUMPI JUMPDEST POP PUSH2 0x246B SWAP3 POP SUB DUP4 PUSH2 0x232A JUMP JUMPDEST JUMP JUMPDEST SWAP1 POP PUSH1 0x0 SWAP3 SWAP2 SWAP3 MSTORE PUSH1 0x20 PUSH1 0x0 KECCAK256 SWAP1 PUSH1 0x0 SWAP2 JUMPDEST DUP2 DUP4 LT PUSH2 0x2498 JUMPI POP POP SWAP1 PUSH1 0x20 PUSH2 0x246B SWAP3 DUP3 ADD ADD CODESIZE PUSH2 0x245E JUMP JUMPDEST PUSH1 0x20 SWAP2 SWAP4 POP DUP1 PUSH1 0x1 SWAP2 SLOAD DUP4 DUP6 DUP10 ADD ADD MSTORE ADD SWAP2 ADD SWAP1 SWAP2 DUP5 SWAP3 PUSH2 0x247F JUMP JUMPDEST PUSH1 0x20 SWAP4 POP PUSH2 0x246B SWAP6 SWAP3 POP PUSH1 0xFF NOT SWAP2 POP AND DUP3 DUP5 ADD MSTORE ISZERO ISZERO PUSH1 0x5 SHL DUP3 ADD ADD CODESIZE PUSH2 0x245E JUMP JUMPDEST SWAP2 SWAP1 PUSH1 0x1 PUSH1 0x1 PUSH1 0xA0 SHL SUB AND SWAP2 DUP3 ISZERO PUSH2 0x1F6B JUMPI PUSH1 0x0 SWAP1 DUP3 DUP3 MSTORE PUSH1 0x2 PUSH1 0x20 MSTORE PUSH1 0x1 PUSH1 0x1 PUSH1 0xA0 SHL SUB PUSH1 0x40 DUP4 KECCAK256 SLOAD AND ISZERO ISZERO DUP1 PUSH2 0x2763 JUMPI JUMPDEST PUSH2 0x26F9 JUMPI DUP3 DUP3 MSTORE PUSH1 0x2 PUSH1 0x20 MSTORE DUP3 PUSH1 0x1 PUSH1 0x1 PUSH1 0xA0 SHL SUB PUSH1 0x40 DUP5 KECCAK256 SLOAD AND SWAP5 DUP6 CALLER ISZERO ISZERO DUP1 PUSH2 0x2625 JUMPI JUMPDEST POP PUSH32 0xDDF252AD1BE2C89B69C2B068FC378DAA952BA7F163C4A11628F55A4DF523B3EF PUSH1 0x1 PUSH1 0x1 PUSH1 0xA0 SHL SUB SWAP6 DUP3 PUSH2 0x25DE JUMPI JUMPDEST DUP4 DUP2 MSTORE PUSH1 0x3 PUSH1 0x20 MSTORE PUSH1 0x40 DUP2 KECCAK256 PUSH1 0x1 DUP2 SLOAD ADD SWAP1 SSTORE DUP5 DUP2 MSTORE PUSH1 0x2 PUSH1 0x20 MSTORE PUSH1 0x40 DUP2 KECCAK256 DUP5 PUSH20 0xFFFFFFFFFFFFFFFFFFFFFFFFFFFFFFFFFFFFFFFF NOT DUP3 SLOAD AND OR SWAP1 SSTORE DUP1 LOG4 AND DUP1 DUP4 SUB PUSH2 0x25AB JUMPI POP POP POP JUMP JUMPDEST PUSH32 0x64283D7B00000000000000000000000000000000000000000000000000000000 PUSH1 0x0 MSTORE PUSH1 0x4 MSTORE PUSH1 0x24 MSTORE PUSH1 0x44 MSTORE PUSH1 0x64 PUSH1 0x0 REVERT JUMPDEST PUSH2 0x260C DUP6 PUSH1 0x0 MSTORE PUSH1 0x4 PUSH1 0x20 MSTORE PUSH1 0x40 PUSH1 0x0 KECCAK256 PUSH20 0xFFFFFFFFFFFFFFFFFFFFFFFFFFFFFFFFFFFFFFFF NOT DUP2 SLOAD AND SWAP1 SSTORE JUMP JUMPDEST DUP3 DUP2 MSTORE PUSH1 0x3 PUSH1 0x20 MSTORE PUSH1 0x40 DUP2 KECCAK256 PUSH1 0x0 NOT DUP2 SLOAD ADD SWAP1 SSTORE PUSH2 0x2560 JUMP JUMPDEST SWAP2 SWAP4 SWAP5 SWAP3 POP POP DUP1 PUSH2 0x26A2 JUMPI JUMPDEST ISZERO PUSH2 0x2641 JUMPI SWAP2 SWAP1 DUP4 SWAP1 DUP6 CODESIZE PUSH2 0x252F JUMP JUMPDEST DUP4 SWAP1 DUP6 PUSH2 0x2673 JUMPI PUSH1 0x24 SWAP2 PUSH32 0x7E27328900000000000000000000000000000000000000000000000000000000 DUP3 MSTORE PUSH1 0x4 MSTORE REVERT JUMPDEST PUSH1 0x44 SWAP2 PUSH32 0x177E802F00000000000000000000000000000000000000000000000000000000 DUP3 MSTORE CALLER PUSH1 0x4 MSTORE PUSH1 0x24 MSTORE REVERT JUMPDEST POP CALLER DUP6 EQ DUP1 ISZERO PUSH2 0x26D0 JUMPI JUMPDEST DUP1 PUSH2 0x2631 JUMPI POP DUP4 DUP2 MSTORE PUSH1 0x4 PUSH1 0x20 MSTORE CALLER PUSH1 0x1 PUSH1 0x1 PUSH1 0xA0 SHL SUB PUSH1 0x40 DUP4 KECCAK256 SLOAD AND EQ PUSH2 0x2631 JUMP JUMPDEST POP DUP5 DUP2 MSTORE PUSH1 0x5 PUSH1 0x20 MSTORE PUSH1 0x40 DUP2 KECCAK256 PUSH1 0x1 PUSH1 0x1 PUSH1 0xA0 SHL SUB CALLER AND DUP3 MSTORE PUSH1 0x20 MSTORE PUSH1 0xFF PUSH1 0x40 DUP3 KECCAK256 SLOAD AND PUSH2 0x26AD JUMP JUMPDEST PUSH1 0x84 PUSH1 0x40 MLOAD PUSH3 0x461BCD PUSH1 0xE5 SHL DUP2 MSTORE PUSH1 0x20 PUSH1 0x4 DUP3 ADD MSTORE PUSH1 0x28 PUSH1 0x24 DUP3 ADD MSTORE PUSH32 0x5268697A6F6D654E46543A2054686973204E4654206973206E6F6E2D7472616E PUSH1 0x44 DUP3 ADD MSTORE PUSH32 0x7366657261626C65000000000000000000000000000000000000000000000000 PUSH1 0x64 DUP3 ADD MSTORE REVERT JUMPDEST POP PUSH1 0x1 PUSH2 0x2509 JUMP JUMPDEST DUP1 PUSH1 0x0 MSTORE PUSH1 0x2 PUSH1 0x20 MSTORE PUSH1 0x1 PUSH1 0x1 PUSH1 0xA0 SHL SUB PUSH1 0x40 PUSH1 0x0 KECCAK256 SLOAD AND SWAP1 DUP2 ISZERO PUSH2 0x278E JUMPI POP SWAP1 JUMP JUMPDEST PUSH32 0x7E27328900000000000000000000000000000000000000000000000000000000 PUSH1 0x0 MSTORE PUSH1 0x4 MSTORE PUSH1 0x24 PUSH1 0x0 REVERT JUMPDEST PUSH1 0x1 PUSH1 0x1 PUSH1 0xA0 SHL SUB PUSH1 0x7 SLOAD AND CALLER SUB PUSH2 0x27CF JUMPI JUMP JUMPDEST PUSH32 0x118CDAA700000000000000000000000000000000000000000000000000000000 PUSH1 0x0 MSTORE CALLER PUSH1 0x4 MSTORE PUSH1 0x24 PUSH1 0x0 REVERT JUMPDEST SWAP4 SWAP1 SWAP3 SWAP4 DUP3 EXTCODESIZE PUSH2 0x280F JUMPI JUMPDEST POP POP POP POP POP JUMP JUMPDEST PUSH2 0x2856 PUSH1 0x1 PUSH1 0x1 PUSH1 0xA0 SHL SUB SWAP3 DUP4 PUSH1 0x20 SWAP6 AND SWAP7 DUP5 PUSH1 0x40 MLOAD SWAP8 DUP9 SWAP7 DUP8 SWAP7 PUSH4 0xA85BD01 PUSH1 0xE1 SHL DUP9 MSTORE AND PUSH1 0x4 DUP8 ADD MSTORE AND PUSH1 0x24 DUP6 ADD MSTORE PUSH1 0x44 DUP5 ADD MSTORE PUSH1 0x80 PUSH1 0x64 DUP5 ADD MSTORE PUSH1 0x84 DUP4 ADD SWAP1 PUSH2 0x22BC JUMP JUMPDEST SUB DUP2 PUSH1 0x0 DUP7 GAS CALL DUP1 SWAP2 PUSH1 0x0 SWAP2 PUSH2 0x290F JUMPI JUMPDEST POP SWAP1 PUSH2 0x28C0 JUMPI POP RETURNDATASIZE ISZERO PUSH2 0x28B9 JUMPI RETURNDATASIZE PUSH2 0x287E DUP2 PUSH2 0x234D JUMP JUMPDEST SWAP1 PUSH2 0x288C PUSH1 0x40 MLOAD SWAP3 DUP4 PUSH2 0x232A JUMP JUMPDEST DUP2 MSTORE RETURNDATASIZE PUSH1 0x0 PUSH1 0x20 DUP4 ADD RETURNDATACOPY JUMPDEST DUP1 MLOAD SWAP1 DUP2 PUSH2 0x28B4 JUMPI DUP3 PUSH4 0x32505749 PUSH1 0xE1 SHL PUSH1 0x0 MSTORE PUSH1 0x4 MSTORE PUSH1 0x24 PUSH1 0x0 REVERT JUMPDEST PUSH1 0x20 ADD REVERT JUMPDEST PUSH1 0x60 PUSH2 0x2897 JUMP JUMPDEST PUSH32 0xFFFFFFFF00000000000000000000000000000000000000000000000000000000 PUSH4 0xA85BD01 PUSH1 0xE1 SHL SWAP2 AND SUB PUSH2 0x28FB JUMPI POP CODESIZE DUP1 DUP1 DUP1 DUP1 PUSH2 0x2808 JUMP JUMPDEST PUSH4 0x32505749 PUSH1 0xE1 SHL PUSH1 0x0 MSTORE PUSH1 0x4 MSTORE PUSH1 0x24 PUSH1 0x0 REVERT JUMPDEST PUSH1 0x20 DUP2 RETURNDATASIZE PUSH1 0x20 GT PUSH2 0x2962 JUMPI JUMPDEST DUP2 PUSH2 0x2928 PUSH1 0x20 SWAP4 DUP4 PUSH2 0x232A JUMP JUMPDEST DUP2 ADD SUB SLT PUSH2 0x1E74 JUMPI MLOAD SWAP1 PUSH32 0xFFFFFFFF00000000000000000000000000000000000000000000000000000000 DUP3 AND DUP3 SUB PUSH2 0x1E71 JUMPI POP CODESIZE PUSH2 0x2867 JUMP JUMPDEST RETURNDATASIZE SWAP2 POP PUSH2 0x291B JUMP JUMPDEST SWAP2 SWAP1 SWAP2 DUP1 MLOAD ISZERO PUSH2 0x2AA5 JUMPI DUP1 MLOAD PUSH1 0x2 DUP2 ADD DUP1 SWAP2 GT PUSH2 0x1F81 JUMPI PUSH1 0x3 SWAP1 DIV SWAP1 DUP2 PUSH1 0x2 SHL SWAP2 PUSH32 0x3FFFFFFFFFFFFFFFFFFFFFFFFFFFFFFFFFFFFFFFFFFFFFFFFFFFFFFFFFFFFFFF DUP2 AND SUB PUSH2 0x1F81 JUMPI PUSH2 0x29D5 PUSH2 0x29BF DUP4 PUSH2 0x234D JUMP JUMPDEST SWAP3 PUSH2 0x29CD PUSH1 0x40 MLOAD SWAP5 DUP6 PUSH2 0x232A JUMP JUMPDEST DUP1 DUP5 MSTORE PUSH2 0x234D JUMP JUMPDEST PUSH1 0x1F NOT PUSH1 0x20 DUP5 ADD SWAP2 ADD CALLDATASIZE DUP3 CALLDATACOPY SWAP1 DUP1 DUP2 MLOAD DUP3 ADD SWAP6 PUSH1 0x20 DUP8 ADD SWAP1 DUP2 MLOAD SWAP3 PUSH1 0x0 DUP4 MSTORE JUMPDEST DUP9 DUP2 LT PUSH2 0x2A57 JUMPI POP POP PUSH1 0x3 SWAP4 SWAP5 SWAP6 SWAP7 POP MSTORE MLOAD MOD DUP1 PUSH1 0x1 EQ PUSH2 0x2A26 JUMPI PUSH1 0x2 EQ PUSH2 0x2A1B JUMPI POP SWAP1 JUMP JUMPDEST PUSH1 0x0 NOT PUSH1 0x3D SWAP2 ADD MSTORE8 SWAP1 JUMP JUMPDEST POP PUSH32 0xFFFFFFFFFFFFFFFFFFFFFFFFFFFFFFFFFFFFFFFFFFFFFFFFFFFFFFFFFFFFFFFE DUP2 PUSH1 0x3D PUSH1 0x0 NOT DUP2 SWAP5 ADD MSTORE8 ADD MSTORE8 SWAP1 JUMP JUMPDEST PUSH1 0x3 PUSH1 0x4 SWAP2 SWAP10 SWAP7 SWAP10 ADD SWAP9 PUSH1 0x1 PUSH1 0x3F DUP12 MLOAD DUP3 DUP3 DUP3 PUSH1 0x12 SHR AND DUP8 ADD ADD MLOAD DUP5 MSTORE8 DUP3 DUP3 DUP3 PUSH1 0xC SHR AND DUP8 ADD ADD MLOAD DUP4 DUP6 ADD MSTORE8 DUP3 DUP3 DUP3 PUSH1 0x6 SHR AND DUP8 ADD ADD MLOAD PUSH1 0x2 DUP6 ADD MSTORE8 AND DUP5 ADD ADD MLOAD PUSH1 0x3 DUP3 ADD MSTORE8 ADD SWAP5 SWAP8 PUSH2 0x29F5 JUMP JUMPDEST POP SWAP1 POP PUSH1 0x40 MLOAD PUSH2 0x2AB6 PUSH1 0x20 DUP3 PUSH2 0x232A JUMP JUMPDEST PUSH1 0x0 DUP2 MSTORE SWAP1 JUMP INVALID LOG2 PUSH5 0x6970667358 0x22 SLT KECCAK256 RETURN DUP1 LOG3 0xDA SWAP1 DUP7 STOP 0x2B LT 0x4B PUSH25 0xE7EF74B14B88831D3920E38F1870C80392E89FFEF64736F6C PUSH4 0x4300081C STOP CALLER "},"methodIdentifiers":{"approve(address,uint256)":"095ea7b3","balanceOf(address)":"70a08231","getApproved(uint256)":"081812fc","isApprovedForAll(address,address)":"e985e9c5","mintNFT(address,string,string,string,string,string,string,string,string,string,string,string)":"1673b456","name()":"06fdde03","owner()":"8da5cb5b","ownerOf(uint256)":"6352211e","renounceOwnership()":"715018a6","safeTransferFrom(address,address,uint256)":"42842e0e","safeTransferFrom(address,address,uint256,bytes)":"b88d4fde","setApprovalForAll(address,bool)":"a22cb465","supportsInterface(bytes4)":"01ffc9a7","symbol()":"95d89b41","tokenURI(uint256)":"c87b56dd","transferFrom(address,address,uint256)":"23b872dd","transferOwnership(address)":"f2fde38b"}}}}}